:04000000020049327F
:03000B00022BAC19
:0100130032BA
:01001B0032B2
:03002300022308AD
:01002B0032A2
:01003300329A
:01003B003292
:0300430002239500
:0301200002004694
:0300460002012391
:1001230075BF5075B721D2AFD2A375E63F75E5C051
:10013300E4C0E0758200122F2D158175D909D2B460
:10014300D2B3758201123604123157C293C295C2DB
:1001530092903C00122060901E001220609080005C
:1001630012206090300012206090020012206090F4
:10017300888012206090F880122060900080122006
:100183006090F88012206090A08012206090008020
:1001930012206090F88012206090A080122060905E
:1001A3000080122060901080122060903080122016
:1001B30060907080122060903080122060901080D8
:1001C30012206090008012206090F88012206090CE
:1001D3000080122060900080122060900080122026
:1001E3006090008012206090008012206090008058
:1001F30012206090F88012206090F88012206090A6
:1002030000801220609000801220609000801220F5
:100213006090008012206090F88012206090F88037
:1002230012206090F88012206090F8801220609075
:10023300008012206090F88012206090F8801220D5
:100243006090F88012206090F88012206090F8800F
:1002530012206090F88012206090F8801220609045
:100263002080122060907080122060900080122005
:1002730060905080122060907080122060905080B7
:1002830012206090008012206090F880122060900D
:10029300F88012206090008012206090008012206D
:1002A3006090508012206090708012206090508087
:1002B30012206090008012206090008012206090D5
:1002C300008012206090C08012206090D88012209D
:1002D30060900080122060900080122060908880DF
:1002E30012206090708012206090008012206012B3
:1002F300052AAE8E4306088E8E758900D2A9122A6E
:10030300BF75D34875D4027CDD7D8A7E147F008C53
:10031300008D018E028F031CBCFF091DBDFF051E4E
:10032300BEFF011FE8494A4B70E5D29FD29ED29D82
:10033300D29C75CAFD75CBFFD2CDD2CCC2CBD2CA6B
:10034300C2C9C2C8759BFC759AEEAAE84302018A2A
:10035300E8D2ACC2A3758200C007C006C005C004C2
:10036300123604D004D005D006D007C007C006C09B
:1003730005C0047490C0E0E4C0E0C0E0C0E08C823B
:100383008D838EF0EF123668A882A983AAF0FBE56D
:100393008124FCF581D004D005D006D007E8494A72
:1003A3004B7013C007C006C005C004123157D004F8
:1003B300D005D006D007C007C006C005C0047459D5
:1003C300C0E0E4C0E0C0E0C0E08C828D838EF0EF3B
:1003D300123668A882A983AAF0FBE58124FCF58183
:1003E300D004D005D006D007E8494A4B7013C007A4
:1003F300C006C005C004122C08D004D005D006D016
:1004030007C007C006C005C0047403C0E0E4C0E031
:10041300C0E0C0E08C828D838EF0EF123668A88234
:10042300A983AAF0FBE58124FCF581D004D005D093
:1004330006D007E8494A4B7013C007C006C005C081
:100443000412052AD004D005D006D0078C008D01F4
:100453008E028F030CBC00090DBD00050EBE00010A
:100463000F888289838AF0EBC007C006C005C004E9
:100473001223C2D004D005D006D00702036EC01ADF
:10048300E581F51A2404F581AB82A81A08E4F6087D
:10049300F608F608F67A00EB6007D29775DA8880DB
:1004A30005D29475DA817F08EF14FF70FBE5DA302B
:1004B300E4FBAEDB7F00EE2EFEEF33FFEE2EFEEF0E
:1004C30033FFADDC7C00EE4205EF420453DA7F8D4F
:1004D300077D007E00A81A08EF26F6EC0836F6ED35
:1004E3000836F6EE0836F60ABA200040AAA81A081B
:1004F300860408E6C403CCC40354076CCC5407CC6D
:100503006CCCFD08E6C40354F84DFD860608E6C42A
:1005130003CEC40354076ECE5407CE6ECE8C828DA9
:0705230083851A81D01A2222
:1000A200750B00750C00750E00750F00751000754C
:0E00B20011007512007508457509FF750AFFEB
:10052A00C01AE581F51A2404F581121AD0AF82E4C3
:10053A00BF050104FE7003BF0A21EE60067D027E3C
:10054A000080047D037E008D82C0071235BDD0076E
:10055A00AD0B7E004305808D0B8012E50B30E70D55
:10056A00758200C0071235BDD007530B7FBF08380C
:10057A00758210C007122F91AE82D007BE80067D09
:10058A00007E0080047D807E00C007C005E4C0E0D4
:10059A00758210123051158115817508007509FF91
:1005AA00754E02123157D007BFC8137401B54E05F4
:1005BA00754E028003754E011231570209BABF09FE
:1005CA0002800302068675820F122F91E582F4FEDD
:1005DA00C006E4C0E075820F123051158115819072
:1005EA00800012206075820F122F91E582601CE450
:1005FA00C0E0C0E0C0E0740FC0E090377C75F080C6
:10060A00121D25E58124FCF581801AE4C0E0C0E0D2
:10061A00C0E0740FC0E090378C75F080121D25E59C
:10062A008124FCF581E4C0E004C0E0E4C0E0740F7A
:10063A00C0E090379B75F080121D25E58124FCF5FA
:10064A0081A81A0876B50876D8087607087600A829
:10065A001A088602088604088605088606A81A0863
:10066A0016B6FF0C0816B6FF070816B6FF020816DC
:10067A00EA4C4D4E70D97509FF0209BABF070280CC
:10068A0003020736908000122060E54F20E424E43C
:10069A00C0E0C0E07402C0E0740FC0E09037AB75F0
:1006AA00F080121D25E58124FCF581758201123640
:1006BA00048022E4C0E0C0E07402C0E0740FC0E02D
:1006CA009037B675F080121D25E58124FCF58175F9
:1006DA008200123604E4C0E004C0E0E4C0E0741012
:1006EA00C0E09037C075F080121D25E58124FCF525
:1006FA0081A81A0876B50876D8087607087600A879
:10070A001A088602088604088605088606A81A08B2
:10071A0016B6FF0C0816B6FF070816B6FF0208162B
:10072A00EA4C4D4E70D97509FF0209BABF0602801C
:10073A0003020865747F550BFE908000C0061220E4
:10074A0060D006EE705375822E1218ADAB82AC8360
:10075A00ADF0E4C0E0C0E0C0E07410C0E08B828C71
:10076A00838DF0121D25E58124FCF58175822F12F7
:10077A0018ADAB82AC83ADF0E4C0E004C0E0E4C0E5
:10078A00E07410C0E08B828C838DF0121D25E58108
:10079A0024FCF5817D030208228E037C00C00674C6
:1007AA0003C0E0E4C0E08B828C831236F6AB82157C
:1007BA00811581D006EB2BFF2428F582C007C006DD
:1007CA001218ADAA82AB83ACF0E4C0E0C0E0C0E08E
:1007DA007410C0E08A828B838CF0121D25E5812477
:1007EA00FCF581D006D00774292FF582C0061218AD
:1007FA00ADAA82AB83ACF0E4C0E004C0E0E4C0E0A0
:10080A007410C0E08A828B838CF0121D25E5812446
:10081A00FCF581D006EE04FD530B80747F5D420B1C
:10082A00A81A0876DD08768A087614087600A81AC7
:10083A00088602088604088605088606A81A081685
:10084A00B6FF0C0816B6FF070816B6FF020816EA26
:10085A004C4D4E70D97509FF0209BABF04067508D6
:10086A00007509FFE509702FBF0302802ABF1E0227
:10087A008025BF1F028020BF0B02801BBF6E028033
:10088A0016BF6F028011BF0102800CBF02028007EF
:10089A00E50860030209BAAE08BE010302094FBEA9
:1008AA00020302095DBE0303020956BE04030209DC
:1008BA0064BE050302096BBE0603020972BE070382
:1008CA00020972BE0803020972BE0903020972BE56
:1008DA000A03020979BE0B03020979BE0C03020955
:1008EA0079BE0D03020980BE0E03020980BE1403FD
:1008FA00020987BE150302098EBE4502800302095A
:10090A0095908000122060E4C0E0C0E004C0E0C41A
:10091A00C0E09037D175F080121D25E58124FCF5E1
:10092A0081E4C0E004C0E0E4C0E07410C0E09037A5
:10093A00E075F080121D25E58124FCF5817509FF1B
:10094A00750800806B8F82120D7A80648F82120F75
:10095A000A805D8F82120FDB80568F821210AC8064
:10096A004F8F8212117680488F8212127180418FC6
:10097A00821213B1803A8F821214FD80338F821251
:10098A00164D802C8F821216E58025C0071209C0E9
:10099A00D007BF020DE4C0E07582011217A01581CD
:1009AA00800EBF010BE4C0E07582021217A0158108
:1009BA00851A81D01A22E50E60507401B550077568
:1009CA000E007509FF22E509603F75090090800055
:1009DA00122060E4C0E0C0E004C0E0C4C0E0903788
:1009EA00F075F080121D25E58124FCF581E4C0E054
:1009FA0004C0E0E4C0E07410C0E09037FF75F080F6
:100A0A00121D25E58124FCF58122E5507047AE4F81
:100A1A005306807F00BE803DBF003AE4C0E0C0E0DC
:100A2A0004C0E0C4C0E09037F075F080121D25E5DF
:100A3A008124FCF581E4C0E004C0E0E4C0E0741065
:100A4A00C0E09037FF75F080121D25E58124FCF582
:100A5A0081750EFF22E5097003020B2290800012B5
:100A6A002060750900750AFF750CFF750D557582B2
:100A7A0010122F91E582601DE4C0E0C0E004C0E0DE
:100A8A00C4C0E090380F75F080121D25E58124FC62
:100A9A00F581020B22123144E4C0E004C0E0740480
:100AAA00C0E0121DE215811581158175820E122F83
:100ABA0091AF82BF01028005BF020A80047F0380D2
:100ACA00067F0180027F0BE4FEC0E004C0E0740CE4
:100ADA00C0E08F828E83121DE2158115811581E493
:100AEA00C0E004C0E0E4C0E07404C0E090381B75C4
:100AFA00F080121D25E58124FCF581E4C0E004C0E4
:100B0A00E07409C0E07404C0E090382075F08012E7
:100B1A001D25E58124FCF581050F7401B54E64E5B8
:100B2A00117008AE10FF4306208E10E54D701BE5CC
:100B3A001030E544E4C0E0740EC0E07582801220F3
:100B4A0015158115815310DF802E74B7B50F13E484
:100B5A00C0E0740EC0E075828012201515811581DF
:100B6A008016743FB50F11E4C0E0740EC0E07582C0
:100B7A000412201515811581AE107F004306108ED0
:100B8A001080337401B51109AE107F004306108E30
:100B9A0010E51030E41DE4C0E0740EC0E075820474
:100BAA0012201515811581AE107F004306208E1084
:100BBA005310EF751100E54F20E46DE54F30E71B48
:100BCA00E51030E058E4C0E0740FC0E075826012AE
:100BDA002015158115815310FE8042E50F7035E509
:100BEA001030E116E4C0E0740FC0E07582041220F0
:100BFA0015158115815310FD801AE4C0E0740FC0E9
:100C0A00E07582A012201515811581AE107F004370
:100C1A0006028E10AE107F004306018E10AE107FC2
:100C2A00004306088E10801CE51030E314E4C0E08F
:100C3A00740FC0E0758200122015158115815310BA
:100C4A00F7431009758210122F91E5826003020D95
:100C5A0002E52C602EE50A30E755E4C0E0C0E00466
:100C6A00C0E07406C0E090382575F080121D25E5B5
:100C7A008124FCF581AE0A7F004306408E0A530A9E
:100C8A007F802CE50A30E627E4C0E0C0E004C0E03B
:100C9A007406C0E090382C75F080121D25E5812479
:100CAA00FCF581AE0A7F004306808E0A530ABFE52F
:100CBA004CFFB50C01228F057E00C007E4C0E0C0DE
:100CCA00E07407C0E08D828E83121DE215811581C2
:100CDA001581D007E54D70057D92FE80047D227E48
:100CEA00008D82C007E4C0E0740BC0E01220151525
:100CFA00811581D0078F0C22E54DFFB50D02804783
:100D0A00EF7022C007E4C0E004C0E0E4C0E0740968
:100D1A00C0E090383375F080121D25E58124FCF57A
:100D2A0081D0078020C007E4C0E004C0E0E4C0E04E
:100D3A007409C0E090383C75F080121D25E58124C5
:100D4A00FCF581D0078F0DE54CFFB50C01228F050C
:100D5A007E00C007E4C0E004C0E0740BC0E08D82EE
:100D6A008E83121DE2158115811581D0078F0C2201
:100D7A00AF82BF01028046BF02028035BF030280F4
:100D8A0005BF0B458015E4C0E004C0E0758200127F
:100D9A00305115811581750AFF802EE4C0E0740276
:100DAA00C0E075820012305115811581750AFF80E5
:100DBA0018E4C0E07582011217A0158122E4C0E090
:100DCA007582021217A0158122E5096028750900AB
:100DDA00750AFF908000122060E4C0E0C0E074034E
:100DEA00C0E0740AC0E090384575F080121D25E510
:100DFA008124FCF581E50A700122750A00758200DA
:100E0A00122F91AF82BF0002800CBF01028043BF44
:100E1A000203020EAA227582001218ADAD82AE83B9
:100E2A00AFF0E4C0E004C0E07403C0E07410C0E0B6
:100E3A008D828E838FF0121D25E58124FCF5817445
:100E4A0001C0E0740CC0E0758240122015158115AE
:100E5A0081227582011218ADAD82AE83AFF0E4C073
:100E6A00E004C0E07403C0E07410C0E08D828E8399
:100E7A008FF0121D25E58124FCF5817401C0E07410
:100E8A000CC0E0758240122015158115817401C0CD
:100E9A00E0740DC0E07582C01220151581158122FB
:100EAA007582021218ADAD82AE83AFF0E4C0E004E1
:100EBA00C0E07403C0E07410C0E08D828E838FF0AE
:100ECA00121D25E58124FCF5817401C0E0740CC073
:100EDA00E0758240122015158115817401C0E074F5
:100EEA000DC0E07582C0122015158115817401C0EC
:100EFA00E0740EC0E075822012201515811581223A
:100F0A00AF82BF01028050BF0202803FBF0302804E
:100F1A000FBF0B02801FBF1F028005BF6F458015E0
:100F2A00E4C0E004C0E075820212305115811581D7
:100F3A00750AFF802EE4C0E07402C0E075820212D6
:100F4A00305115811581750AFF8018E4C0E0758259
:100F5A00011217A0158122E4C0E07582021217A0BF
:100F6A00158122E5096044750900750AFF90800021
:100F7A00122060E4C0E0C0E07402C0E0740DC0E07A
:100F8A0090384F75F080121D25E58124FCF581E427
:100F9A00C0E004C0E07407C0E004C0E090385C75AB
:100FAA00F080121D25E58124FCF581E50A60217592
:100FBA000A00758202122F91AF82E4FEC0E004C0DB
:100FCA00E0C0E08F828E83121DE2158115811581A2
:100FDA0022AF82BF01028050BF0202803FBF0302DC
:100FEA00800FBF0B02801FBF1F028005BF6F4580A5
:100FFA0015E4C0E004C0E075820112305115811574
:10100A0081750AFF802EE4C0E07402C0E075820197
:10101A0012305115811581750AFF8018E4C0E075F8
:10102A0082011217A0158122E4C0E075820212170C
:10103A00A0158122E5096044750900750AFF9080B0
:10104A0000122060E4C0E0C0E07402C0E0740DC089
:10105A00E090386475F080121D25E58124FCF58145
:10106A00E4C0E004C0E07407C0E004C0E090385C6B
:10107A0075F080121D25E58124FCF581E50A6021C1
:10108A00750A00758201122F91AF82E4FEC0E00456
:10109A00C0E0C0E08F828E83121DE2158115811592
:1010AA008122AF82BF01028050BF0202803FBF038C
:1010BA0002800FBF0B02801FBF1F028005BF6F4552
:1010CA008015E4C0E004C0E0758203123051158136
:1010DA001581750AFF802EE4C0E07402C0E07582B3
:1010EA000312305115811581750AFF8018E4C0E09A
:1010FA007582011217A0158122E4C0E075820212DE
:10110A0017A0158122E5096028750900750AFF9064
:10111A008000122060E4C0E0C0E07404C0E07407FC
:10112A00C0E090387175F080121D25E58124FCF528
:10113A0081E50A6036750A00758203122F91AF8223
:10114A0074142FF5821218ADAD82AE83AFF0E4C0ED
:10115A00E004C0E07406C0E07410C0E08D828E83A3
:10116A008FF0121D25E58124FCF58122AF82BF0193
:10117A00028050BF0202803FBF0302800FBF0B02F2
:10118A00801FBF1F028005BF6F458015E4C0E004C1
:10119A00C0E075820412305115811581750AFF80ED
:1011AA002EE4C0E07402C0E0758204123051158149
:1011BA001581750AFF8018E4C0E07582011217A034
:1011CA00158122E4C0E07582021217A0158122E57A
:1011DA00096028750900750AFF908000122060E4F2
:1011EA00C0E0C0E07403C0E0740CC0E090387875C9
:1011FA00F080121D25E58124FCF581E50A606775FA
:10120A000A00758204122F91E582701DC0E004C0A5
:10121A00E07406C0E07410C0E090388475F0801263
:10122A001D25E58124FCF58122E4C0E004C0E074B8
:10123A0003C0E07410C0E090388875F080121D2554
:10124A00E58124FCF581758204122F91AF82E4FEB8
:10125A00C0E004C0E07405C0E08F828E83121DE2F4
:10126A0015811581158122AF827E00AD08BD060267
:10127A00800FBD0702800EBD0802800DBD091080D7
:10128A000C7E05800A7E0680067E0780027E08BFE5
:10129A0001028056BF02028045BF0302800FBF0BC6
:1012AA00028022BF1F028005BF6F4B8018C006E470
:1012BA00C0E004C0E08E8212305115811581D0063B
:1012CA00750AFF8031C006E4C0E07402C0E08E8275
:1012DA0012305115811581D006750AFF8018E4C0B5
:1012EA00E07582011217A0158122E4C0E07582021E
:1012FA001217A0158122E509603C750900750AFFDD
:10130A00908000C006122060AF0874C82FF58212C0
:10131A0018ADAC82AD83AFF0E4C0E0C0E07403C0A6
:10132A00E07410C0E08C828D838FF0121D25E58158
:10133A0024FCF581D006E50A606C750A008E82C02D
:10134A0006122F91E582D006701DC0E004C0E07439
:10135A0006C0E07410C0E090388475F080121D2534
:10136A00E58124FCF58122C006E4C0E004C0E0E483
:10137A00C0E07410C0E090388875F080121D25E531
:10138A008124FCF581D0068E82122F91AF82E4FE71
:10139A00C0E004C0E07406C0E08F828E83121DE2B2
:1013AA0015811581158122AF827E007D00AC08BCB3
:1013BA000A02800ABC0B02800BBC0C12800C7D094D
:1013CA007E04800A7D0A7E0580047D0B7E06BF01AD
:1013DA00028054BF02028043BF03028005BF0B5341
:1013EA00801CC006C005E4C0E004C0E08D82123053
:1013FA005115811581D005D006750AFF8035C006C2
:10140A00C005E4C0E07402C0E08D8212305115813B
:10141A001581D005D006750AFF8018E4C0E07582F0
:10142A00011217A0158122E4C0E07582021217A0EA
:10143A00158122E50970030214C4750900750AFFB3
:10144A00908000C006C005122060E4C0E0C0E0043D
:10145A00C0E0C4C0E090388975F080121D25E5818E
:10146A0024FCF581D005D006BE0402800ABE05021E
:10147A00801CBE0645802EC005E4C0E07408C0E0AA
:10148A0075822C12201515811581D005802CC00576
:10149A00E4C0E07408C0E07582AC1220151581150D
:1014AA0081D0058015C005E4C0E07408C0E07582EB
:1014BA006C12201515811581D005E50A6034750A6C
:1014CA00008D82122F91AF82743C2FF5821218ADD3
:1014DA00AD82AE83AFF0E4C0E004C0E004C0E074C3
:1014EA0010C0E08D828E838FF0121D25E58124FCC9
:1014FA00F58122AF82BF01030215B7BF02030215AD
:10150A00ABBF030302159DBF0B030215A4BF1E0246
:10151A0080030215C3740DB508067E017F0080049E
:10152A007E007F0075F003E5128485F082C0061202
:10153A002F2D1581E4C0E004C0E0E4C0E07410C0BF
:10154A00E090388875F080121D25E58124FCF5812C
:10155A00740DB5081FE4C0E004C0E07406C0E0746E
:10156A0010C0E090389975F080121D25E58124FCA1
:10157A00F5818045E4C0E004C0E07406C0E0741060
:10158A00C0E09038A075F080121D25E58124FCF595
:10159A008180260512750AFF801F1512750AFF80C1
:1015AA0018E4C0E07582011217A0158122E4C0E098
:1015BA007582021217A0158122E509604B75090090
:1015CA00750AFF908000122060740DB5081EE4C0F1
:1015DA00E0C0E07402C0E0740EC0E09038A875F074
:1015EA0080121D25E58124FCF581801CE4C0E0C041
:1015FA00E07402C0E0740EC0E09038B675F0801254
:10160A001D25E58124FCF581E50A6036750A007519
:10161A00F003E51284AFF074502FF5821218ADADC5
:10162A0082AE83AFF0E4C0E004C0E07404C0E074AA
:10163A0010C0E08D828E838FF0121D25E58124FC77
:10164A00F58122AF82BF0102803BBF0202802ABF1E
:10165A000302800FBF0B028015BF1F028005BF6FF8
:10166A0030800B7582011230E4750AFF802375827F
:10167A00021230E4750AFF8018E4C0E07582011294
:10168A0017A0158122E4C0E07582021217A0158105
:10169A0022E5096028750900750AFF90800012206A
:1016AA0060E4C0E0C0E07402C0E0740CC0E09038AE
:1016BA00C475F080121D25E58124FCF581E50A60D8
:1016CA0019750A00123144E4C0E004C0E07404C091
:1016DA00E0121DE215811581158122AF82BF010238
:1016EA008046BF02028035BF03028005BF0B4580DA
:1016FA0015E4C0E004C0E075820E12305115811560
:10170A0081750AFF802EE4C0E07402C0E075820E83
:10171A0012305115811581750AFF8018E4C0E075F1
:10172A0082011217A0158122E4C0E0758202121705
:10173A00A0158122E5096026750900750AFF9080C7
:10174A0000122060E4C0E0C0E0C0E07411C0E09084
:10175A0038D075F080121D25E58124FCF581E50A53
:10176A006033750A0075820E122F91AF8274642F4E
:10177A00F5821218ADAD82AE83AFF0E4C0E004C0CA
:10178A00E0C0E0C4C0E08D828E838FF0121D25E593
:10179A008124FCF58122C01A85811AAF827509FF5E
:1017AA00BF01028077BF0202800302187AE51A2479
:1017BA00FDF8A608758210122F91E582702FE51A9E
:1017CA0024FDF8E6700AE51A24FDF8761402189F3B
:1017DA00E51A24FDF806E51A24FDF8E624EA400392
:1017EA0002189FE51A24FDF8760002189FE51A24CC
:1017FA00FDF8E6700AE51A24FDF8760102189FE55D
:10180A001A24FDF806E51A24FDF8E624F14003023D
:10181A00189FE51A24FDF8760002189FE51A24FDA0
:10182A00F8A608758210122F91E582702AE51A240B
:10183A00FDF8E67009E51A24FDF876158057E51AD1
:10184A0024FDF816E51A24FDF8B614005047E51AE7
:10185A0024FDF87600803EE51A24FDF8E67009E5D5
:10186A001A24FDF8760E802DE51A24FDF816802537
:10187A00E51A24FDF8E624F15014E51A24FDF8B619
:10188A0014004011E51A24FDF8E624EA4007E51A97
:10189A0024FDF87600E51A24FDF88608D01A228578
:1018AA00088222AF828F06BE00030219AABE010374
:1018BA000219B1BF02030219B8BF14030219BFBF4C
:1018CA0015030219C6BF16030219CDBF1703021961
:1018DA00D4BF18030219E2BF19030219E9BF1A0398
:1018EA000219DBBF2803021A91BF2903021A98BF03
:1018FA002A03021A9FBF2B03021AA6BF2C03021A3D
:10190A00ADBF2D03021AB4BF2E03021ABBBF2F03A9
:10191A00021AC2BF3C03021A0CBF3D03021A13BFCC
:10192A003E03021A1ABF3F03021A21BF4003021ADA
:10193A0028BF4103021A2FBF4203021A36BF4303CC
:10194A00021A3DBF4403021A44BF4503021A4BBFA1
:10195A004603021A52BF4703021A59BF4803021A22
:10196A0060BF5003021A67BF5103021A6EBF5203C7
:10197A00021A75BF6403021A7CBF6503021A83BF89
:10198A006603021A8ABFCE030219F0BFCF030219F7
:10199A00F7BFD0030219FEBFD103021A05021AC902
:1019AA009038E175F080229038E775F080229038FF
:1019BA00EC75F0802290388475F080229038F375A7
:1019CA00F080229038FB75F0802290390075F08003
:1019DA002290390675F0802290390C75F080229099
:1019EA00391175F0802290391775F08022903921CB
:1019FA0075F0802290392D75F0802290393875F073
:101A0A00802290394575F0802290394F75F08022F6
:101A1A0090395C75F0802290396075F08022903997
:101A2A006775F0802290396D75F080229039727551
:101A3A00F0802290397775F0802290397F75F08096
:101A4A002290398B75F0802290399975F080229016
:101A5A0039A575F080229039AE75F080229039B799
:101A6A0075F080229039BE75F080229039C575F0E4
:101A7A0080229039CC75F080229039D375F080227B
:101A8A009039E275F080229039E975F08022903918
:101A9A00F875F08022903A0775F08022903A18750E
:101AAA00F08022903A2975F08022903A3A75F080B7
:101ABA0022903A4B75F08022903A5C75F080229021
:061ACA00000075F000228F
:10377C0054616E6B204C6967687473204F666600E9
:10378C0054616E6B204C6967687473204F6E0046F1
:10379C00756E2B4D616E20746F20556E646F0048F2
:1037AC006561746572204F66660048656174657268
:1037BC00204F6E0042757273742B557020746F20FD
:1037CC00556E646F0041746D6F73464541522032E3
:1037DC0032314200427920426C697A7A61726420FB
:1037EC0050726F005043204C6F6164204C657474B0
:1037FC00657200427572737420746F20526566692D
:10380C006C6C004D616E75616C204D6F6465004190
:10381C00646472004D6F646500444D58204F6B001A
:10382C004E6F20444D5800496E74657276616C0081
:10383C004475726174696F6E00466F67204C6576D3
:10384C00656C00466F6720496E74657276616C001A
:10385C005365636F6E647300466F672044757261C5
:10386C0074696F6E004D6163726F73004D616372AA
:10387C006F205370656564004F6666000052656D7D
:10388C006F7465205820416374696F6E00536176C4
:10389C00656421004C6F6164656421005361766539
:1038AC002053657474696E6773004C6F61642053A8
:1038BC00657474696E677300444D5820416464727A
:1038CC0065737300444D58204368616E6E656C20BF
:1038DC004D6F64650057696D7079004D696C6400BB
:1038EC00426C617A696E005261696E626F77004654
:1038FC006972650057617465720053746F726D0064
:10390C004163696400457468657200526564204CBB
:10391C006576656C00477265656E204C6576656CE6
:10392C0000426C7565204C6576656C005374726F43
:10393C006265204C6576656C004E6F20416374693E
:10394C006F6E0043686F6F7365204D6163726F001B
:10395C005265640059656C6C6F7700477265656ED3
:10396C00004379616E00426C7565004D6167656E50
:10397C007461005374726F626520536C6F770053DF
:10398C0074726F6265204D656469756D0053747255
:10399C006F6265204661737400426C61636B6F7576
:1039AC00740057686974656F757400536C6F74207C
:1039BC003100536C6F74203200536C6F74203300E1
:1039CC00313120416C6C00203320466F67202B2056
:1039DC004D6163726F00203120466F670030783480
:1039EC00383646364336443635373300262035379D
:1039FC00363137343733364636450036323646376D
:103A0C00343638344637373645343100353336455D
:103A1C003646373736323631364336430034443641
:103A2C004637323639363137323734373900363457
:103A3C00364636353733344536463734203B004628
:103A4C0069726D77617265437261667465723A0072
:103A5C0043687269737469616E4B727565676572E0
:013A6C000059
:0600C00075130075140029
:101AD000758201120481AE82AF837D00C3EE94A2B1
:101AE000EF9403403174F8251450257417251440E1
:101AF0001F7401B5130280167403B51302800774B6
:101B00000BB5130C80047D0380067D0B80027D01E4
:101B1000751300751400C3747A9E74039F40257476
:101B2000669E74039F501D7402B5131274F8251439
:101B3000400F051474F8251450077D0280037514B6
:101B400000751302C374489E74039F4029742F9E2E
:101B500074039F50217403B5131674172514400C99
:101B6000051474172514500B7D1E80077D1F8003FC
:101B7000751400751303C374AA9EE49F4028748CE7
:101B80009EE49F5021740BB5131674172514400C56
:101B9000051474172514500B7D6E80077D6F80032C
:101BA00075140075130BC374769E74029F402574E0
:101BB000589E74029F501D7407B513127417251494
:101BC000400F05147417251450077D078003751402
:101BD00000751307C374989E74039F402574849EF8
:101BE00074039F501D7401B5131274172514400F10
:101BF00005147417251450077DC8800375140075EB
:101C00001301C374129E74029F402574FE9E7401DA
:101C10009F501D7408B5131274F82514400F051455
:101C200074F8251450077D08800375140075130897
:101C3000C374C69E74029F402974A89E74029F506C
:101C4000217405B5131674F82514400C051474F8A6
:101C50002514500B7D0580077D05800375140075E4
:101C60001305C374EA9E74019F402574CC9E7401D1
:101C70009F501D7409B5131274172514400F0514D5
:101C80007417251450077D09800375140075130916
:101C9000C374B89E74019F402974A49E74019F5020
:101CA00021740AB5131674172514400C0514741703
:101CB0002514500B7D0A80077D0A8003751400757A
:101CC000130AC3742A9E74039F402574169E7403DE
:101CD0009F501D7404B5131274F82514400F051499
:101CE00074F8251450077D048003751400751304DF
:101CF000C3748A9E74029F402974769E74029F501A
:101D0000217406B5131674172514400C05147417A6
:101D10002514500B7D0680077D0680037514007521
:101D200013068D8222C01A85811AC082C083C0F03A
:101D30007C00E51A24FBF8E6600DE51A24FCF88621
:101D40000374402BFB8007E51A24FCF886038B8282
:101D5000C0041222AFAA827B008B8274014AF583F1
:101D6000122060D004E51A24FDF806E51A24FAF8DA
:101D7000E6600A900080C004122060D0047B00E579
:101D80001A24FDF8C3EB965053EC703FC004A81A18
:101D900008EB26FAE40836FC0886078A828C838FD3
:101DA000F01236DAFFD004EF601D8F82C004C0034A
:101DB0001220A6AE827F0074804FF5828E8312209F
:101DC00060D003D00480127C01800E900480C00497
:101DD000C003122060D003D0040B80A3851A81D0E9
:101DE0001A22C01A85811A058105810581AE82AF4C
:101DF000837D00A91A097704E904F876047402299E
:101E0000FCC000A804760CD000C3EE94E8EF940365
:101E100040047EE77F03C000E51A24FCF8E6D0000A
:101E20006011C000E51A24FDF88603D00074402B31
:101E3000FB800BC000E51A24FDF88603D0008B82DE
:101E4000C007C006C005C004C001C0001222AFAA6E
:101E5000827B008B8274014AF583122060D000D00F
:101E600001D004D005D006D007C000E51A24FBF845
:101E7000E6D0006020900080C007C006C005C00406
:101E8000C001C000122060D000D001D004D005D025
:101E900006D007801E900480C007C006C005C0049D
:101EA000C001C000122060D000D001D004D005D005
:101EB00006D007C007C006C005C004C001C000743A
:101EC00064C0E0E4C0E08E828F83123615AA82AB34
:101ED0008315811581D000D001D004D005D006D063
:101EE00007EA4B6054C0048A0474302CF582C007A2
:101EF000C006C004C003C002C001C0001220A6E595
:101F000082D000D001D002D003D004F77D01C005FB
:101F1000C001C000C002C003900064123646AB820C
:101F2000AC8315811581D000D001D005D006D00733
:101F3000EEC39BFEEF9CFFD004C007C006C005C0E7
:101F400004C001C000740AC0E0E4C0E08E828F8348
:101F5000123615AA82AB8315811581D000D001D02D
:101F600004D005D006D007ED7004EA4B604A8A051C
:101F700074302DF582C007C006C004C003C002C083
:101F800001C0001220A6E582D000D001D002D0030B
:101F9000F6C001C000C002C00390000A123646AB72
:101FA00082AD8315811581D000D001D004D006D038
:101FB00007EEC39BFEEF9DFF74302EF582C004C078
:101FC00001C0001220A6E582D000D001D004C000DC
:101FD000A804F6D00087078F067F0074804FF58233
:101FE0008E83C004C000122060D00086078F067F59
:101FF0000074804FF5828E83122060D004A804867E
:10200000078F067F0074804FF5828E8312206085D3
:102010001A81D01A22C01A85811AAF82E51A24FCCF
:10202000F8E6600DE51A24FDF8860674402EFE8061
:1020300007E51A24FDF886068E82C0071222AFAD8E
:10204000827E008E8274014DF583122060D0078F4E
:10205000067F0074804FF5828E83122060D01A2292
:10206000AE82AF834306208E828F83C007C00612E4
:10207000227BD006D0075306DF8E828F83C007C035
:102080000612227BD006D007E4BE0004BF80010404
:10209000FF7D007E038D038E041DBDFF011EEB4CF2
:1020A0006003EF70F022AF82BF2600500302227758
:1020B000EF24855003022277EF24DAFF240A83F508
:1020C00082EF245983F583E4736F777777776B77A3
:1020D00077777743474B4F53575B5F6367777377E8
:1020E00077777777737B838B939BA3ABB3BBC3CBA0
:1020F000D3DBE3EBF3FB030B131B232B333B777790
:1021000077777777777F878F979FA7AFB7BFC7CF4F
:10211000D7DFE7EFF7FF070F171F272F373F2222E1
:10212000222222222222222222222222222222228F
:102130002222222222222222222121212121212186
:10214000212121212121212121212122222222227A
:102150002222222222222222222121212121212166
:10216000212121212121212121212122222222225A
:1021700022222275828222758286227582422275EF
:102180008246227582C2227582C6227582222275FB
:102190008226227582A2227582A62275826222750B
:1021A0008266227582E2227582E62275821222758B
:1021B000821622758292227582962275825222752B
:1021C0008256227582D2227582D62275823222757B
:1021D0008236227582B2227582B62275827222758B
:1021E0008276227582F2227582F62275820A227523
:1021F000820E2275828A2275828E2275824A22750B
:10220000824E227582CA227582CE2275822A22755A
:10221000822E227582AA227582AE2275826A22756A
:10222000826E227582EA227582EE2275821A2275EA
:10223000821E2275829A2275829E2275825A22758A
:10224000825E2275820C2275828C2275824C2275E8
:1022500082CC2275822C227582AC2275826C22750A
:1022600082EC2275821C2275829C227582D4227592
:102270008264227582E02275820422AE82AF837D61
:10228000048DF005F07B017C008006EB2BFBEC332A
:10229000FCD5F0F7EE5203EF5204EB4C24FF92957D
:1022A000D293C2930DBD100040D7D292C29222AFFA
:1022B000827E007D00C0068DF005F07B80E4FC335B
:1022C00092D28008A2D2EC13FCEB13FBD5F0F58F71
:1022D000027E00EA5203EE5204D006EB4C60067B0D
:1022E000017C0080047B007C008D048CF005F0EB09
:1022F000800225E0D5F0FBFB8E04EC42038B060D3B
:08230000BD080040B08E8222EE
:0800C600752C00E4F52DF52E68
:10230800C020C0E0C0F0C082C083C007C006C005BE
:10231800C004C003C002C001C000C0D075D0001204
:102328003144AE82AF83AD99759BFC759AEE752CDE
:10233800FFE52D452E7009ED6006752D01752E02FD
:10234800C3E52D9EE52E9F401A740B2EFBE43FFC3F
:10235800C3E52D9BE52E9C500AE52DFCC39E242148
:10236800F8A6057401252DF52DE4352EF52EC29815
:10237800D0D0D000D001D002D003D004D005D006F0
:10238800D007D083D082D0F0D0E0D02032C0E0E5B2
:102398002D452E701AF52CF521F522F5237524000C
:1023A800752500752600752700752800752900E435
:0A23B800F52DF52E5391EFD0E03221
:1000CE00752F00753000753100753200753300756F
:1000DE003401E4F535F536F537753801F539F53A6D
:0200EE00F53BE0
:1023C200C01A85811AC082C083C0F0C0E075821035
:1023D200122F91E582600302253575820E122F912C
:1023E200AB82BB00028009BB01030224C402252F79
:1023F200E529FB24EB505EEB246B400F8B02EA24B1
:10240200EB25E0F582122A3B0225EAE52AFA24F5B9
:102412005026EA24FBFA8B82C0021225F0AF82C05A
:1024220007A81A0886820886830886F008E612261C
:1024320035158115810225EA8B821225F0AF82744F
:10244200FFC0E0C007900001E4F5F01226351581C7
:1024520015810225EAE528FF24F550487E00EF2F7A
:10246200FFEE33FE741CC39FFF74029EFE3395E0A1
:10247200FDFCC007C006C005C004A81A0886820871
:1024820086830886F008E6123668AC82AD83AEF029
:10249200FFE58124FCF581EC4D4E4F700AE52FF4E7
:1024A200F52F8003752FFFE52F6011852582C02748
:1024B200C026122B0C158115810225EA122ABF02B1
:1024C20025EAE522FF24EB505EBF9400500F8F06F1
:1024D200EE24EB25E0F582122A3B0225EAE523FEF3
:1024E20024F55026EE24FBFE8F82C0061225F0ADA5
:1024F20082C005A81A0886820886830886F008E644
:10250200122635158115810225EA8F821225F0AF38
:102512008274FFC0E0C007900001E4F5F012263596
:10252200158115810225EA122ABF0225EA122ABF65
:102532000225EA758203122F91E582602B758204CF
:10254200122F91AF82758203C007122F91AE82C003
:1025520006A81A0886820886830886F008E61226EC
:1025620035158115810225EA758208122F91E582BF
:10257200FF60487E00EF2FFFEE33FE741CC39FFF07
:1025820074029EFE3395E0FDFCC007C006C005C084
:1025920004A81A0886820886830886F008E612369E
:1025A20068AC82AD83AEF0FFE58124FCF581EC4D91
:1025B2004E4F700AE52FF4F52F8003752FFFE52F9C
:1025C2006023758207122F91AF82758206C00712AF
:1025D2002F91AE82758205C006122F91122B0C1517
:1025E2008115818003122ABF851A81D01A22E582C1
:1025F200FF244B400475822122EF2441400475825E
:102602000122EF2437400475820222EF242D400478
:1026120075820322EF2423400475820422EF2419D9
:10262200400475820522EF240F400475820622754C
:10263200824522C01A85811AC082C083C0F0C0E0E0
:10264200E5812404F581E51A2405F8E4F608F60884
:10265200F608F67B00E51A24FCF8E6C313FC7D00BD
:102662007485C39CFCE49DFD3395E0FEFFC003C06E
:1026720004C005C006C007A81A0886820886830817
:1026820086F008E6123668AC82AD83AEF0FFE581D3
:1026920024FCF581D003EC4D4E4F70377BFFE51AD9
:1026A2002405F8E4F608F608F608F6E51A24FCF81C
:1026B200E660200530C003122ACFAC82AD83AEF0B3
:1026C200FFD003E51A2405F8A60408A60508A60605
:1026D20008A607E51A24FDF8B601028054E51A247B
:1026E200FDF8B602028053E51A24FDF8E4B60301B0
:1026F20004FF6003022803E51A24FDF8B60403026E
:102702002803E51A24FDF8B60503022803E51A2476
:10271200FDF8B606030228EBE51A24FDF8B62103FC
:1027220002295EE51A24FDF8B64503022964022A4D
:1027320032853082122A3B022A35EB7003022A3597
:1027420074C92531400C753137AD337E0043050124
:102752008D33E53330E00E74FFB531055333FE801F
:10276200200531801CAD317E001DBDFF011EBD372D
:102772000EBE000BAD337E004305018D3380021582
:1027820031740DC0E0E4C0E0C0E0C0E0E51A240509
:10279200F886820886830886F008E6123668AB82DD
:1027A200AC83ADF0FEE58124FCF581EB4C4D4E701F
:1027B2000CC3740195ADE433FD7E0080047D007E80
:1027C20000E5310303543FFE7C007B007A00C00524
:1027D200C006C004C003C002E51A2405F8868208B8
:1027E20086830886F008E6123668AA82E58124FC10
:1027F200F581C002853182122B0C15811581022AC6
:1028020035EB7003022A35E53330E014AE31740241
:102812002EF531C3944B501F5333FE7531FF801791
:10282200E531FE24FEF531247D400CAD337E0043BC
:1028320005018D33753182C0077415C0E0E4C0E034
:10284200C0E0C0E0E51A2405F8868208868308867F
:10285200F008E6123668AB82AC83ADF0FEE5812467
:10286200FCF581D007EB4C4D4E7015E53330E40595
:102872005333EF8028AD337E004305108D33801D26
:10288200E53330E40D053274DE2532501075322204
:10289200800B1532E53224DB5003753200EF6011F4
:1028A200C031C032853282122B0C15811581022A69
:1028B20035E51A24FDF8B60412E4C0E0C0318532D1
:1028C20082122B0C15811581022A35E51A24FDF896
:1028D200B605028003022A35C031C0328531821228
:1028E2002B0C15811581022A35EB7003022A3574EF
:1028F20059C0E0E4C0E0C0E0C0E0E51A2405F88673
:10290200820886830886F008E6123668AC82AD83B8
:10291200AEF0FFE58124FCF581EC4D4E4F7005755C
:1029220031FF8027E531243750041531801DE53110
:10293200247D5009E531FF24FEF531800EE531FF9B
:1029420024FDF53124375003753100C031C0318583
:102952003182122B0C15811581022A35122AAE0200
:102962002A3574E02530403F8530F005F07C007D4B
:10297200007E007F80800DC3EF13FFEE13FEED1388
:10298200FDEC13FCD5F0F0EC54BA700FED54B870B6
:102992000AEE543B7005EF54EE6006122AAE022A8C
:1029A20035122ABF022A3574C025304041E5302451
:1029B200E0FF8FF005F07F007E007D007C80800DBF
:1029C200C3EC13FCED13FDEE13FEEF13FFD5F0F095
:1029D200EF5438700FEE54BA700AED54B87005EC2B
:1029E20054286005122AAE804A122ABF804574AD6F
:1029F20025304037E53024C0FF8FF005F07F007EA0
:102A0200007D007C80800DC3EC13FCED13FDEE1302
:102A1200FEEF13FFD5F0F0ED54B87005EC54EB6007
:102A220005122AAE800D122ABF800875300080037D
:102A3200122ABF851A81D01A22AF82BF55005020B8
:102A42008F06EE75F003A4D394FFF4FEEF75F00346
:102A5200A4F582E4C0E0C006122B0C158115812278
:102A6200BFAA0050238F06EE24ABFE75F003A4FD2F
:102A7200EE75F003A4D394FFF4F582C005E4C0E040
:102A8200122B0C1581158122EF2456FFFEEE75F0F4
:102A920003A4D394FFF4FEEF75F003A4FFC006C0B5
:102AA20007758200122B0C158115812274FFC0E07C
:102AB200C0E07582FF122B0C1581158122E4C0E063
:102AC200C0E0758200122B0C1581158122E5382594
:102AD20034F538E5393535F539E53A3536F53AE53F
:102AE2003B3537F53BE538C39534F534E539953553
:102AF200F535E53A9536F536E53B9537F5378538C0
:102B020082853983853AF0E53B22C01A85811AAF66
:102B1200827EFF758210C007C006122F91E582D017
:102B220006D007701475820EC007C006122F91E5F9
:102B320082D006D0077002AE24BEFF128FBDE51A06
:102B420024FDF886ADE51A24FCF886B580597D008F
:102B52007C00C006C004C006C0048F828D8312367A
:102B620046AF8315811581D004D0068FBDE51A24A6
:102B7200FDF886057F00C006C004C006C0048D8231
:102B82008F83123646AF83158115818FADE51A24E6
:102B9200FCF886057F008D828F83123646AE82AFA7
:0A2BA20083158115818FB5D01A222A
:0E00F000751700E4F518F51975150075160062
:102BAC00C020C0E0C0F0C082C083C007C006C00512
:102BBC00C004C003C002C001C000C0D075D000204A
:102BCC00B714AF150515EF24F0500E122E6B85823D
:102BDC00167515008003751500758C84758A5FD089
:102BEC00D0D000D001D002D003D004D005D006D074
:102BFC0007D083D082D0F0D0E0D020327582101272
:102C0C002F91E58270045388EF22AE884306108E14
:102C1C0088E516FF24F94051EF2F902C2A73804938
:102C2C00800A800D8010801680238030754E0180C4
:102C3C0038754E0080337582021235BD802BE51736
:102C4C007027758209122F91122C8B801CE517703E
:102C5C001875820A122F91122C8B800DE5177009B2
:102C6C0075820B122F91122C8B7403B5170D7403F4
:102C7C00B5160280067582001235BD85161722C066
:102C8C001A85811A058105810581AF827E00A81AFB
:102C9C00087600A81A08087600E51A2403F87600CE
:102CAC00EF7003022E65EF14FA8AF005F07A017BBF
:102CBC00008006EA2AFAEB33FBD5F0F7EA5518FC4C
:102CCC00EB5519FD4C60107EFFEAF4FCEBF4FDECC7
:102CDC005218ED52198006EA4218EB4219EF24F310
:102CEC005003022E65EF240A83F582EF241183F53D
:102CFC0083E473E8192C34424B5B657392B1D0D4E6
:102D0C002D2D2D2D2D2D2D2D2D2D2D2D2DE4C0E0EA
:102D1C0004C0E075820312305115811581022E65B5
:102D2C00A81A0876FF022DEAA81A0876FFA81A0836
:102D3C000876FF022DEAA81A080876FF022DEAA8E9
:102D4C001A080876FFE51A2403F876FF022DEAE547
:102D5C001A2403F876FF022DEAE51A2403F876FF0D
:102D6C00A81A0876FF8077EE60067D007F0080044D
:102D7C007D017F00C005E4C0E0758208123051155A
:102D8C00811581022E65EE60067D007F0080047D3A
:102D9C00797F00C005E4C0E07582081230511581BE
:102DAC001581022E65EE60067D007F0080047DFF9C
:102DBC007F00C005E4C0E075820812305115811502
:102DCC0081022E657EFF8016A81A0876FFA81A08C5
:102DDC000876FFE51A2403F876FF8002807BC00694
:102DEC00E4C0E0C0E075820312305115811581D02A
:102DFC0006EE60067D007F008007A81A0886057F16
:102E0C0000C006C005E4C0E0758205123051158182
:102E1C001581D006EE60067D007F008008A81A0898
:102E2C000886057F00C006C005E4C0E07582061266
:102E3C00305115811581D006EE60067E007F008032
:102E4C0009E51A2403F886067F00C006E4C0E07585
:102E5C00820712305115811581851A81D01A227F73
:102E6C0000C007122ED7AE82D007EE70038E8222DE
:102E7C008FF005F07C017D008006EC2CFCED33FD21
:102E8C00D5F0F7EC54577005ED54056009BE0102FE
:102E9C00800D75820022BE02028004758200220F12
:102EAC00BF0C0040BC7F0D8F061F8F05EE6016C057
:102EBC0007C005122ED7AE82D005D007EE7003F5F1
:102ECC008222BE02E2EDC313F582227EB87F0B8E06
:102EDC00048F051EBEFF011FEC4D600330B7F0EEF2
:102EEC004F7003F582227E007F007CB87D0B8C0234
:102EFC008D031CBCFF011DEA4B600A30B7070EBEE8
:102F0C0000EC0F80E9EC4D7003F58222C374E99E4E
:102F1C00E49F50067E027F0080047E017F008E823B
:102F2C0022C01A85811AE582C454F0FFE51A24FDEB
:102F3C00F8E6700375E4A0E51A24FDF8E4B6010187
:102F4C0004FE7D00EE6017EF2D2400FBE43401FC41
:102F5C00ED243CF987028B828C83EAF08012ED24FD
:102F6C003CF9EF2D2400F582E43401F583E0FCF705
:102F7C000DBD100040CEEE600975E49075E4C00004
:102F8C000000D01A22AF82BF10077480553CF58226
:102F9C0022EF243CF98706EF24F1500302304EEF68
:102FAC00240A83F582EF241383F583E473D7F5F5B4
:102FBC00FD4E4E4E4E4E1818184E4E332F2F2F2FAF
:102FCC0030303030303030303030308E057F00745F
:102FDC007F5DF5828F837403C0E0E4C0E01236F6A7
:102FEC00AD82158115818D8222EE70027E018E825A
:102FFC00228E057F007407C0E0E4C0E08D828F83D1
:10300C001236F6AD82158115818D82228E057F00D8
:10301C00740DC0E0E4C0E08D828F831236F6AD8271
:10302C00158115818D82228E057F007403C0E0E42A
:10303C00C0E08D828F831236F6AD82158115818D9D
:10304C0082228E8222C01A85811AAF827480553CEE
:10305C00FEE51A24FDF8B60102800AE51A24FDF8F3
:10306C00B60216800AEF243CF9E7FD04F78033EF33
:10307C00243CF9E7FD14F78029BF101BE51A24FC4A
:10308C00F8E6600BAC3C7D004304808C3C801374F0
:10309C007F553CF53C800BEF243CF8E51A24FCF9F9
:1030AC00E7F6EF7024EE6013EF243CF9EF243CF8C4
:1030BC0086067D00430680A706800EEF243CF9EFC0
:1030CC00243CF88607747F5FF77401C0E0758200BA
:1030DC00122F2D1581D01A22AF82C007123144ADA8
:1030EC0082AE83D007BF011274FE2E50067D017E86
:1030FC0000801A0DBD00160E8013C374019DE49E52
:10310C0040067D007E0280051DBDFF011E8D07C09F
:10311C0006C005C007E4C0E075820D123051158160
:10312C001581D005D0068E05C005E4C0E075820C73
:10313C001230511581158122AF487E00AC497D00BB
:0B314C00EE4204EF42058C828D8322CE
:103FC0008806090000000000000B0C0A0001000038
:103FD0008806090000000000000B0C0A0001000028
:103FE0008806090000000000000B0C0A0001000018
:103FF0008806090000000000000B0C0A0001000008
:1000FE00E4F551F552F553F554F555F556F557F51A
:10010E0058F559F55AF55BF55F754E00754F047548
:02011E0050018E
:10315700C01AE581F51A2404F581A81A08E4F608CF
:10316700F608F608F6AB5B055B530303EB2B24531A
:10317700F9758200C001120481E5828583F0D001D0
:10318700F709A7F07B00EB701FEB2B2453F9C00363
:10319700870209870319A81A08A60208A603087652
:1031A70000087600D0038025EB2B2453F9C0038752
:1031B70002098703197E007F00A81A08EA26F6EBA2
:1031C7000836F6EE0836F6EF0836F6D0030BBB04E2
:1031D7000040B3A81A08080808E6C313FF18E61347
:1031E700FE18E613FD18E613FCEFC313FFEE13FEFC
:1031F700ED13FDEC13FCC3948CED9400EE9400EFFB
:1032070094005005534F7D8031C374B99CE49DE40D
:103217009EE49F5010AA4F4302028A4F7B0043024D
:10322700808A4F8015C374AA9CE49DE49EE49F5056
:1032370009AE4F7F004306808E4FE54F30E406D23C
:10324700B4D2B3800AE54FA2E1920092B492B320C0
:10325700A6187401B5500EAF510551EF24F2501F57
:10326700755000801A7551008015E550700EAF51EA
:103277000551EF24DD500875500180037551007525
:10328700820F122F91E5827028E5507013E552F4F2
:10329700F5526006C290D2A0801BD290D2A08015B2
:1032A700E54F30E706C290D2A0800AD290C2A08034
:1032B70004D290D2A0758200123604758210122FA4
:1032C70091E582600302348DE52C70030234887522
:1032D7004E01755E0175820E122F91E5827057E5DA
:1032E70021FF24EB4005754E008014EF249B40041A
:1032F7007F04800BEF243740047F0280027F01EFB9
:10330700B55E0280028F5EE522FFB55C0280088F02
:103317005C855C4C754DFFE523FFB55D0280058F2D
:103327005D754E02E52B247F40030234D875820178
:103337001236040234D8E521FF24EB4006754E000F
:103347000234D8EF24D740197403B55C08740DB55F
:103357005D030234D8755C03755D0D754E0202344A
:10336700D8EF24C340197403B55C087415B55D0321
:103377000234D8755C03755D15754E020234D8EFBB
:1033870024AF40197403B55C087422B55D03023499
:10339700D8755C03755D22754E020234D8EF249B05
:1033A70040197403B55C087437B55D030234D875EA
:1033B7005C03755D37754E020234D8EF24874019D8
:1033C7007408B55C087415B55D030234D8755C08DC
:1033D700755D15754E020234D8EF247340197408D1
:1033E700B55C087422B55D030234D8755C08755D59
:1033F70022754E020234D8EF245F40197408B55C79
:10340700087437B55D030234D8755C08755D377588
:103417004E020234D8EF244B40197408B55C087487
:1034270059B55D030234D8755C08755D59754E0250
:103437000234D8EF243740197408B55C087490B586
:103447005D030234D8755C08755D90754E020234D1
:10345700D8EF242340177415B55C077437B55D02A0
:10346700806F755C15755D37754E02806474FFB5A6
:103477005C04E55D605B755CFF755D00754E028001
:1034870050754E02804B758200122F91AF827402E5
:10349700C39FFF8FF005F07401800225E0D5F0FB94
:1034A700FFB55E0280058F5E754E02758201122F91
:1034B70091E582FFB55C0280058F5C754E027582CF
:1034C70002122F91E582FFB55D0280058F5D754E73
:1034D700027402B54E09754E00855D4C754D00E5C9
:1034E7004E70030235B1055F758210122F91E58288
:1034F700702AE55C6004E55D6006E55C2419501CF4
:10350700855EF0E55F84E5F070097582011235BDCF
:103517000235B77582001235BD0235B775821012B4
:103527002F91E582700CE55C7008F5821235BD02BB
:1035370035B7AE5F7F007408C0E0E4C0E08E828FCD
:10354700831236F6AE82AF8315811581EE4F700276
:10355700154CE54C702FE54D70057E01FF80047E0C
:10356700007F008E821235BDE54D7004AF5C80028E
:10357700AF5D8F4CE54D70057EFFFF80047E007FB9
:10358700008E4D802BE54D7007F5821235BD8020EA
:10359700855EF0E55F84E5F070087582011235BD40
:1035A700800E7582001235BD80067582001235BD0A
:1035B700851A81D01A22AF82BF0102800ABF020298
:1035C700801FBF03358030E5506013AE4F53068030
:1035D7007F00BE8009BF0006C2A5534FFD22D2A5BA
:1035E70022AE4F5306807F00BE8009BF0006C2A5EA
:1035F700534FFD22D2A522C2A522D2A522AF82BF58
:103607000108AE4F4306108E4F22534FEF22E5813C
:1036170024FEF8E6F918E6F87A10E4FBFCE58225C3
:10362700E0F582E58333F583EB33FBEC33FCEB9872
:0F363700F5F0EC994006FCABF0438201DADF229C
:06007800E478FFF6D8FD5C
:100056007900E94400601B7A00903A6D780175A03A
:1000660000E493F2A308B8000205A0D9F4DAF27509
:02007600A0FFE9
:1036460074FE2581F8E68582F0A4C0E08582F01834
:10365600E6A4F582D0E025F0C58386F0A42583F59F
:023666008322BD
:10007E007800E84400600A790175A000E4F309D81D
:10008E00FC7800E84400600C7900900001E4F0A3D5
:04009E00D8FCD9FAB7
:10366800F9E58124FBF886020886030886040886A3
:10367800057800EA4B4C4D60587800C308ED20E708
:1036880027EA25E0FAEB33FBEC33FCED33FDE5826A
:103698009AE5839BE5F09CE99D50E1C3ED13FDECB1
:1036A80013FCEB13FBEA13FAE5829AE5839BFEE52C
:1036B800F09CFFE99D400AF98FF08E83E5829AF528
:1036C80082C3ED13FDEC13FCEB13FBEA13FAD8D815
:0236D800E922E5
:0D00490075815F123778E582600302004682
:1036DA0020F71430F6148883A88220F507E6A88319
:1036EA0075830022E280F7E49322E022C2D5E583C3
:1036FA0030E70DD2D5E4C39582F582E49583F5834C
:10370A00E58124FEF8E630E70918E4C396F6E408F2
:10371A0096F6860118860012373D30D50BE4C3951C
:10372A0082F582E49583F58322E58124FEF88601F9
:10373A00188600E84960367A01E825E0F8E933405E
:10374A000EF9E58298E5839940030A80ECC3E913F0
:10375A00F9E813F8C3E58298F5F0E583994005F591
:10376A008385F082C3E913F9E813F8DAE722758250
:02377A0000222B
:00000001FF
