:03000000021D1AC4
:0F1D1A0075BF1878FFE4F6D8FD7581D3021D64FC
:102D2C0053077FED600343078090FFFF74D0F09052
:052D3C00FFFEEFF02294
:102DF70090FFFF74D8F0EF90FFFE60047401F0229B
:032E0700E4F022D2
:0E2EC60090FFFF74F3F090FFFEEFF0EDF022AE
:0C2F150090FFFF74FBF090FFFEEFF02235
:102C8C0090FFFF74F4F090FFFEE0F51790FFFAE070
:062C9C00F516AE16AF179D
:012CA200220F
:0B2F210090FFFFEFF090FFFEE0FF22AA
:0D001600EF444090FFFFF090FFFEE0FF225E
:0D2ED400EF448090FFFFF090FFFEE0FF2232
:0D2EE100EF444090FFFFF090FFFEEDF02267
:0F2E8A0090FFFFEFF074F1F0EF700374F2F0229D
:092F580090FFFFEFF074F2F0228B
:062233008B168A178918C2
:10223900E4FE90FFFFEFF090FFFEE030E03A90FF00
:10224900FF74F0F090FFFAE0F51B90FFF6E0FEED69
:10225900D39E4002AD06E4FEEEC39D501590FFFEED
:10226900E0AB16AA17A9188E82758300120A100E00
:0A22790080E690FFFF74F2F0AF065C
:012283002238
:062458008B188A19891A95
:10245E0090FFFFEFF090FFFEE0F51BA374F0F090FD
:10246E00FFFEE4F0EDF0E4FFEFC39D5015AB18AAAC
:10247E0019A91A8F827583001209D190FFFEF00FF1
:08248E0080E690FFFF74FAF0F4
:012496002223
:0B2AC600C2B47F19122AD1D2B47F23C2
:102AD100AE071FEE600CE4F572E572C3940A50F084
:032AE10080F72259
:0D2EEE00D2A9122AC6122AC6C2B4C2A92255
:1016BC00E4F5A875C0FF75B0FF75A0FF7590FF75B8
:1016CC0080FF122D6BC2997599553099FDC299C244
:1016DC0088D2ACD2AF1227E2EF7012D2A9C2B47F7B
:1016EC0002122AD1D2B47FC5122AD180F075BF1054
:1016FC00C2B3C2AFC2A8C2B57D437F02122EC6D2FE
:10170C00B57D437F02122EC6E4F535F536AF36EFC4
:10171C004403F536D2AF122EEE122EB7C2AFE4F55B
:10172C0035F536FF122F157D437F12122EC6D2A827
:10173C00D2AFAF35EFC31330E011C2AFAF35EF54BA
:10174C00FDF535D2B3D2B4D288D2AFAF35EF30E09D
:10175C002CC2A8C2AFAF35EF54FEF53530B318C26A
:10176C00B4D28AD2AAD2AF75BF18E4F5E14387018F
:10177C0075BF10C2AAC2AFC288D2A8D2AFAF35EF24
:10178C001313543F30E0ABC2AFAF35EF54FBF5351C
:07179C00122411D2AF809B63
:102E300053877F75987053890F438920758DF2D21F
:022E40008E22E0
:1024D600AD07AC06E41208FE7B007AA0790C7845BD
:1024E600120753120937AD07AC06C3E49DFDE49C01
:1024F600F570AF05EFF571E4F572F573C28C53898B
:0C250600F043890185708C85718AD28CAD
:0125120022A6
:102D6B00E4F5DD75DEFF75BF18F5D9122E307F0146
:042D7B00FE0224D65A
:102CA300E4F5A875BF19F5E1D2B1D2B075E27C7530
:072CB300E39375870180FE29
:031E9F00011F0020
:030003000224973D
:10249700C0E0C0F0C083C082C0D075D000C000C00B
:1024A70001C002C003C004C005C006C007C2AF1206
:1024B7001E25D2AFD007D006D005D004D003D00256
:0F24C700D001D000D0D0D082D083D0F0D0E0327E
:03000B00022E9929
:0F2E9900C28C85708C85718AD28C05730572325C
:0300130002309325
:01309300320A
:03002300021A0BB3
:101A0B00C0E0C0F0C083C082C0D075D000C000C0A1
:0D1A1B0001C002C003C004C005C006C00722
:101A2800C2AC309862AF99BF0205751F018056C2DB
:101A380001E51F24FE601914601F14602314602739
:101A480014602B2405702CEF64557027D201802375
:101A5800EF6453701ED201801ABF4217D20180135F
:101A6800BF4910D201800CBF5309D2018005BF5075
:101A780002D20130010CE51FB40603122CA3051F86
:0E1A88008003751F00C298309902C299D2AC3B
:101A9600D007D006D005D004D003D002D001D000A4
:0B1AA600D0D0D082D083D0F0D0E0324E
:101EA200C100016D00016802016900016B00016C53
:041EB20000016F00BC
:082FF100C2B0122FF8D2B12288
:102D7F00C2B0122D86D2B185686AD56AFD85686AA0
:042D8F00D56AFD22E2
:102E0A00E5686009122D86122D7FD2B022122FF1A9
:032E1A00D2B02211
:102A2100E5686010122D86D2B0122D81C2B0122D30
:102A310086C2B122D2B0122FF3C2B0122FF8C2B1A6
:012A41002272
:100BE000756E08E5687003020CCE200003020C5FEE
:100BF000E56C3385686AD56AFD92B085686AD56A06
:100C0000FDD2B185686AA2B150F9D56AF9156E00B6
:100C100033C2B185686AD56AFD92B085686AD56AC3
:100C2000FDD2B185686A0000D56AFBD56EE133C29A
:100C3000B185686AD56AFD00D2B085686AD56AFD5B
:100C4000D2B185686AA2B150F9D56AF9E4A2B0C2FE
:100C5000B10033426FE56D7003020D4C020CC8E524
:100C60006C3385686AD56AFD92B085686AD56AFD7D
:100C7000D2B185686A0000D56AFB156E000033C2E8
:100C8000B185686AD56AFD92B085686AD56AFDD279
:100C9000B185686A0000D56AFBD56EE133C2B185C3
:100CA000686AD56AFD00D2B085686AD56AFDD2B19E
:100CB00085686A0000D56AFB00E4A2B0C2B1334285
:100CC0006FE56D7003020D4C122D7F020D47200061
:100CD00003020D13E56C3392B00000D2B1A2B15003
:100CE000FC156E33C2B192B00000D2B100D56EF3E4
:100CF0000033C2B100D2B000D2B1A2B150FCE4A224
:100D0000B0C2B133426FE56D7003020D4C122FF18A
:080D1000020D47E56C3392B0BF
:100D18000000D2B1156E000033C2B192B00000D20B
:100D2800B1D56EF30033C2B100D2B00000D2B10029
:100D3800E4A2B0C2B133426FE56D6008122FF1D260
:100D4800B0E4F56DE56F20E0047F0180027F0022AA
:100A6700756E08E5687003020B69200003020AF13E
:100A7700E485686AD56AFDD2B085686AD56AFDD211
:100A8700B185686AA2B150F9D56AF9156E00A2B0AE
:100A9700C2B185686AD56AFD3385686AD56AFDD2B1
:100AA700B185686A00A2B0D56AFAD56EE0A2B0C275
:100AB700B133F56B85686AD56AFDC2B085686AD5BA
:100AC7006AFDD2B185686AA2B150F9D56AF9E56DB8
:100AD7007002C2B185686AD56AFDE56D600B8568ED
:100AE7006AD56AFD756D00D2B022E485686AD56A59
:100AF700FDD2B085686AD56AFDD2B1000085686A03
:100B07000000D56AFB156EA2B0C2B13385686AD5FD
:100B17006AFD85686AD56AFDD2B10085686A00A258
:100B2700B0D56AFAD56EE0A2B0C2B133F56B85686D
:100B37006AD56AFDC2B085686AD56AFDD2B1856893
:100B47006A0000D56AFBE56D7002C2B185686AD597
:100B57006AFDE56D600B85686AD56AFD756D00D223
:100B6700B022200003020BA9E4D2B00000D2B1A248
:100B7700B150FC156EA2B0C2B133000000D2B1A2D1
:100B8700B0D56EF1A2B0C2B133C2B0F56B00D2B12D
:100B9700A2B150FCE56D7004C2B18005756D00D23D
:050BA700B022E4D2B011
:100BAC000000D2B100156E00A2B0C2B1330000003B
:100BBC00D2B1A2B0D56EF1A2B0C2B133C2B0F56B56
:100BCC0000D2B1000000E56D7004C2B18005756DF6
:040BDC0000D2B02271
:1026FB0030B00320B1287F10D2B020B01EC2B1E59C
:10270B00686005122D868003122FF8D2B1E5686040
:0F271B0005122D868003122FF8DFDF122E0A22FF
:0D2EFB00E56954FEF56C122A21120BE0224D
:0D2F0800E5694401F56C122A21120BE0224C
:10187F0036303331003630333200363033332F3396
:10188F00370036303532004E4F4E45000000010014
:10189F0000FF2DA7FF2289FF2B76FF2A42FF0D584D
:1018AF00FF2C10FF272AFF3049FF280EFF2999FF31
:1018BF00307DFF2E42FF30650100010000FF2DCF6C
:1018CF00FF232BFF2BAAFF2A84FF0FEAFF2C42FFD7
:1018DF002786FF3057FF2862FF29DDFF3085FF2E57
:1018EF0066FF30710200004000FF2DBBFF22DAFFC0
:1018FF002B90FF2A63FF0EA1FF2C29FF2758FF30E3
:10190F0050FF2838FF29BBFF3081FF2E54FF306B6B
:10191F000300002000FF2DE3FF237CFF2BC4FF2AD1
:10192F00A5FF1133FF2C5BFF27B4FF305EFF288C20
:0C193F00FF29FFFF3089FF2E78FF307772
:101EB60006450100A07C0000075D00FFFF00000052
:101EC60000124B00FF0000000000000000000000B0
:0F1ED60000000000FF01670501640A026512C0E9
:061BF4008B088A09890A32
:101BFA00ED14601714602114602B24037034750BE4
:101C0A00FF750C18750D7F7F058032750BFF750CFB
:101C1A0018750D847F058025750BFF750C18750DD9
:101C2A00897F088018750BFF750C18750D917F0553
:101C3A00800B750BFF750C18750D967F05E5094528
:101C4A000A45086037AB0BAA0CA90D1209B8FE6049
:101C5A0021AB08AA09A90A1209FE7401250AF50A84
:101C6A00E43509F5097401250DF50DE4350CF50C7B
:0C1C7A0080D3AB08AA09A90AEE1209FEEB
:011C8600223B
:1027E200754B04E4FFEFC3954B5016EF75F02CA424
:1027F200249BF582E43418F583E493B507030F8034
:0B280200E48F4BE54B7002FF227F01CA
:01280D0022A8
:101B540012011001DC000010E10501280001000061
:101B6400000109022E000101008030090400000474
:101B7400DCA0B00007058103100001070501031074
:101B84000001070582024000000705020240000030
:101B9400FF1F0BFF211AFF308DFF217BFF308DFFCC
:101BA4002D93FF2952FF308DFF2AE4FF23C8FF2E17
:101BB400A8FF2BDEFF3090FF308DFF308DFF308D7E
:101BC400FF2BF7FF2E1DFF308DFF308DFF308DFF73
:101BD400308DFF308DFF308DFF308DFF308DFF3025
:101BE4008DFF308DFF0026FF308DFF308DFF308D4F
:101EE500012500022E00000230000002230000023E
:101EF500290000032600000003320000000235001F
:051F05000002210000B4
:1021DC00D3E5449DE5439C40048C438D44AA06A959
:1021EC0007752BFF8A2C892DD3E5449410E5439475
:1021FC00004019AB2B7D107F01122458752E0075F1
:10220C002F10AF36EF54FC4402F53622AD44AB2B05
:10221C00AA2CA92D7F0112245885432E85442FAF5B
:07222C0036EF54FCF53622E9
:101AB100E4F50AC3E5249531F509E5239530F508E8
:101AC100E50945087002FF22D3E5099440E5089431
:101AD100004006750800750940AF09EF2531F53161
:101AE100E43530F53090FFFF7405F090FFFEE0F52E
:101AF1001BA374F0F090FFFEE4F0E509F0E5246526
:101B0100317004E5236530702AF50AE50914FFE513
:101B11000AC39F500D120A6790FFFEE56BF0050A9C
:101B210080E985466D120A6790FFFEE56BF0E4F5EA
:101B3100468017E4F50AE50AC39509500D120A67B4
:101B410090FFFEE56BF0050A80EC90FFFF74FAF060
:021B51007F0112
:011B5300226F
:101C8700536FFE90FFFF7404F090FFFEE020E00327
:101C97007F002290FFFF74F0F090FFFAE0F51B90B1
:101CA700FFF6E0F508E508D39400400D90FFFEE04D
:101CB700F56C120BE0150880EC90FFFF74F2F07FD3
:101CC70004122ED48F1BE51B30E63690FFFF7404F9
:101CD700F090FFFEE020E0037F002290FFFF74F00A
:101CE700F090FFFAE0F51B90FFF6E0F508E508D362
:101CF7009400400D90FFFEE0F56C120BE015088094
:101D0700EC90FFFF74F2F0E56F20E0047F018002A2
:021D17007F004B
:011D190022A7
:102D16007D01E4FF122EE17D017F01122EE1AF3627
:062D2600EF54FCF536221B
:03308D00022D16FB
:101F0B00E537541FF50CE4F508F509E50C7015AF32
:101F1B0035EF131313541F30E005750803803B7521
:101F2B0008018036E50CB40102802FE50C640270C9
:101F3B0036E542540FF50AC39403502BE54220E7D4
:101F4B0006E50A25E08005E50A25E004FF122F21AE
:101F5B008F0BE50B30E1037508017B007A007908E4
:0A1F6B007D027F01022458122D169A
:011F75002249
:10211A00E537541FF5097019E5406401453F704DD4
:10212A00FBFAF9FD7F01122458AF35EF54F7F53564
:10213A0022E50964027036E542540FF508C3940398
:10214A005029E540453F7023E54220E706E508258A
:10215A00E08005E50825E004FFE4FD122EE17B009E
:10216A007A007900E4FD7F010224588000122D16BE
:01217A002242
:10217B00E537541FF5097019E5406401453F704D73
:10218B00FBFAF9FD7F01122458AF35EF4408F53502
:10219B0022E50964027036E542540FF508C3940337
:1021AB005029E540453F7023E54220E706E5082529
:1021BB00E08005E50825E004FF7D01122EE17B00A0
:1021CB007A007900E4FD7F010224588000122D165D
:0121DB0022E1
:102D9300AF407D01122D2C7B007A007900E4FD7F8A
:042DA30001022458AD
:10295200E53FF508E508B401087E1B7F547D12802F
:102962000BE508B4020B7E1B7F667D2E7C000221E4
:04297200DC122D1630
:01297600223E
:102AE400AF35EFC4540F30E0047F0180027F008FC4
:0E2AF400087B007A0079087D017F01022458DA
:1023C800E540453F7019FF122DF77B007A00790030
:1023D800E4FD7F01122458AF35EF54EFF53522E5BF
:1023E800406401453F701EFF122DF77F01122DF743
:1023F8007B007A007900E4FD7F01122458AF35EFA5
:092408004410F53522122D1622B4
:0F2EA800E4F508FB7A0079087D017F01022458C8
:102BDE00E540453F700FE54245417009FBFAF9FDAE
:092BEE007F01022458122D162269
:03309000022D16F8
:0F2EB700E4FF122F587F02122F587F04022F586A
:102BF700750A13750B237508027509207B007A0087
:092C070079087D047F01022458C4
:102E1D007508627509027B007A0079087D027F01D1
:032E2D0002245824
:10002600E5416003020736E542B4180040030207C3
:100036003690003EF828287302008602009A0200D5
:10004600A50200B00200E902012202015B0201BA28
:100056000201DC02021C0202490202D402034D0222
:1000660003BE0204160204830204E802051F020509
:100076009B0205DA02061F0206800206B60206EB9E
:10008600A2B4B392B47532007533007534001226EB
:10009600FB020739A2B4B392B4122A21020739A28D
:1000A600B4B392B4122E0A020739AF35EFC4131354
:1000B60013540130E017E544640145436003020729
:1000C60036A2B4B392B47874A6680201FCE525643E
:1000D600016003020736A2B4B392B47874E6F568F9
:1000E600020739AF35EFC4131313540130E017E597
:1000F60044640145436003020736A2B4B392B47860
:1001060074A6690201FCE52564016003020736A2B4
:10011600B4B392B47874E6F569020739AF35EFC423
:10012600131313540130E017E5446401454360039B
:10013600020736A2B4B392B47874A6460201FCE56F
:100146002564016003020736A2B4B392B47874E65C
:10015600F546020739AF35EFC4131313540130E0E7
:1001660042E544640245436003020736A2B4B392F3
:10017600B4853F23854024F530F5317532FF75335C
:100186001A7534B1E52445236007AA33A934120A47
:10019600617874A62408A6237B007A0079747D0210
:1001A60002063CA2B4B392B47526FF75271C7528C7
:1001B60087020739AF35EFC4131313540130E00B30
:1001C600A2B4B392B4122F08020739A2B4B392B400
:1001D600122EFB020739AF35EFC413131354013047
:1001E600E01EE544640145436003020736A2B4B34A
:1001F60092B47874A66FFB7A0079747D0102063C8E
:10020600E52564016003020736A2B4B392B478749C
:10021600E6F56F020739AF35EFC413131354012007
:10022600E003020736E544640145436003020736EE
:10023600A2B4B392B47874A64BFB7A0079747D01AC
:1002460002063CAF35EFC4131313540130E046E504
:100256004CF470030207367874A64C08A65008A61C
:100266004F08A64E08A64D7B007A007979AD4C1250
:100276001BF4EF2406F525FFC3E5449FE5439400F0
:100286005003020736A2B4B392B47B007A007974A5
:10029600AD2502063CE52564016003020736787445
:1002A600E6FFC3954B4003020736A2B4B392B48F60
:1002B6004C75F02CEFA4249CF582E5F03418F583F8
:1002C600120A518F508E4F8D4E8C4D020739AF3525
:1002D600EFC4131313540130E033E5446408454377
:1002E6006003020736A2B4B392B47874A64508A692
:1002F6004808A64708A66808A66608A66508A66769
:1003060008A664FB7A0079747D0802063CE54CF485
:100316007003020736E52564086003020736A2B4B7
:10032600B392B47874E6F54508E6F54808E6F5476D
:1003360008E6F56808E6F56608E6F56508E6F56791
:1003460008E6F564020739AF35EFC41313135401F9
:1003560030E033E544640845436003020736A2B43F
:10036600B392B47874A65408A65308A65208A651A8
:1003760008A65808A65708A65608A655FB7A007977
:10038600747D0802063CE52564086003020736A270
:10039600B4B392B47874E6F55408E6F55308E6F576
:1003A6005208E6F55108E6F55808E6F55708E6F569
:1003B6005608E6F555020739E54CF4700302073690
:1003C600AF35EFC4131313540120E003020736E5DB
:1003D60044640145436003020736A2B4B392B412E3
:1003E60026FB75F02CE54CA424A0F582E5F0341824
:1003F600F583E4740193FA740293F9120A6178742E
:10040600A6071226FB7B007A0079747D0102063C62
:10041600E54CF47003020736AF35EFC413131354DB
:100426000130E030A2B4B392B475F02CE54CA424AC
:10043600A9F582E5F03418F583E4740193FA7402A1
:1004460093F9120A617874A6077B007A0079747DA5
:100456000102063CA2B4B392B475F02CE54CA42478
:10046600A3F582E5F03418F583740193FA740293C8
:10047600F9120A61EF6003020739020617E54CF428
:100486007003020736AF35EFC4131313540130E07F
:1004960029A2B4B392B475F02CE54CA424ACF58231
:1004A600E5F03418F583E493FB740193FA74029330
:1004B600F98B328A33F534020731A2B4B392B4759C
:1004C600F02CE54CA424A6F582E5F03418F583E477
:1004D60093FB740193FA7402938B268A27F52802FC
:1004E6000739E54CF47003020736AF35EFC4131332
:1004F60013540130E003020736A2B4B392B475F088
:100506002CE54CA424AFF582E5F03418F58374018C
:1005160093FA740293F9020731E54CF4700302076B
:1005260036AF35EFC4131313540130E037E5446496
:100536000145436003020736A2B4B392B475F02CAA
:10054600E54CA424B5F582E5F03418F583E474018E
:1005560093FA740293F9120A617B007A0079747D2A
:100566000102063CE52564016003020736A2B4B326
:1005760092B475F02CE54CA424B2F582E5F034185B
:10058600F583740193FA740293F9120A61EF60031A
:10059600020739807CE54CF47003020736AF35EF6D
:1005A600C4131313540130E003020736A2B4B39206
:1005B600B475F02CE54CA424B8F582E5F03418F5B2
:1005C60083740193FA740293F9120A61EF600302CD
:1005D6000739803DE54CF47003020736AF35EFC4AA
:1005E600131313540130E003020736A2B4B392B4D6
:1005F60075F02CE54CA424BBF582E5F03418F583A0
:10060600740193FA740293F9120A61EF6003020708
:1006160039A2B4B392B4020736AF35EFC41313133D
:10062600540130E023A2B4B392B4787476107B0000
:100636007A0079747D017F01122458AF36EF54FC9D
:10064600F536A2B4B392B422E525D3940150030241
:100656000736E54CF47003020736A2B4B392B475BC
:10066600F02CE54CA424BEF582E5F03418F583742D
:100676000193FA740293F9020731E54CF470030210
:100686000736AF35EFC4131313540130E0030207E6
:1006960036A2B4B392B475F02CE54CA424C1F5820D
:1006A600E5F03418F583740193FA740293F9807BAC
:1006B600E54CF4607BA2B4B392B4AF35EFC4131328
:1006C60013540130E014C2A1E47874F612000E78D7
:1006D6007406E6C3940A40F48059D2A17874E6FF02
:1006E600122545804EE52564077045A2B4B392B441
:1006F6007874E6F55D08E6F55F08E6F55E08E6F56A
:100706006008E6F56108E6F56208E6F563855F547C
:10071600855E5375F02CE54CA424C4F582E5F034CF
:1007260018F583740193FA740293F9120A6180032F
:10073600022D16A2B4B392B47B007A007900E4FDD0
:0C0746007F01122458AF36EF54FCF5364A
:010752002284
:10241100E537546024C0601A24407037E538C3940E
:10242100105030E53875F003A42494F582E4341B90
:102431008014E538C39410501AE53875F003A424CC
:10244100C4F582E4341BF583740193FA740293F9A1
:07245100020A61122D1622A0
:1017A300E4FF120016EF20E503021853E4F525FBCE
:1017B3007A0079377D08FF122233EF640860167DC3
:1017C30001E4FF122EE17D017F01122EE1E4F543D6
:1017D300F544021877853940853A3F853B42853C7D
:1017E30041853D44853E43E4FF122E8A7F01122E3C
:1017F3008AE53730E718AF35EF4480F535AF35EF7D
:101803004404F535AF36EF54FC4402F53622E54483
:1018130045437009AF35EF4404F5358019D3E544EA
:101823009410E543940040177D01E4FF122EE17DFF
:10183300017F01122EE1AF36EF54FCF5368009AF7C
:1018430036EF54FC4401F536AF35EF547FF53522BE
:10185300AF36EF5403FFBF01187B007A0079747D24
:1018630010E4FF1222338F25AF35EF4404F53580A2
:0B18730003E4F525AF36EF54FCF5361A
:01187E002247
:101DA9007F01120016AF36EF54036402706DC3E56C
:101DB90044952FF517E543952EF516C3E5179410AD
:101DC900E5169400401EAB2BE52D252FF9E52C35A2
:101DD9002EFA7D107F01122458EF252FF52FE435B7
:101DE9002EF52E22E517601FAB2BE52D252FF9E5E2
:101DF9002C352EFAAD177F01122458EF252FF52F18
:101E0900E4352EF52E800D7B007A007900E4FD7F04
:0B1E190001122458AF36EF54FCF536E0
:011E2400229B
:102C74007F021200167B007A0079847D107F021295
:082C840022337529008F2A227A
:050006007F030200165B
:102D41007F04120016E527452845266007AA27A912
:052D510028120A6122B6
:102D56007F05120016E533453445326007AA33A9CC
:052D660034120A612295
:082FF900AF35EF4401F535226C
:08300100AF35EF4402F5352262
:101E2500122C8CEF4222EE4221E52254336034E538
:101E35002230E0085322FE1217A380E4E52230E1A8
:101E4500085322FD121DA980D7E52230E40853224C
:101E5500EF122D4180CAE52230E5C55322DF122D50
:101E65005680BDE52254CC6030E52230E20853228D
:101E7500FB122C74800BE52230E3065322F7120087
:101E850006E52230E6065322BF123001E52230E78F
:091E95008F53227F122FF9808780
:011E9E002221
:10297700122A21E54854FEF56C120BE0EF600F8533
:10298700496C120BE0756D01854A6C020BE0122E43
:022997000A2212
:102513008E138F14E54854FEF56CE5141514AE13B1
:10252300700215134E600F536FFE122A21756D0151
:10253300120BE0EF60E4E56F20E0047F0180027F8F
:02254300002274
:04000E007FFFDFFE93
:0100120022CB
:10194B001226FB7874E67069858D10AC65AD661256
:10195B0008FEA804A905AA06AB077F407E547D8923
:10196B007C4712085C120937EFF404F58D750F01F3
:10197B00E50FC39525503585670EE50E6007120000
:10198B000E150E80F5C2997474250FF8E6F599754E
:10199B000EFF2099137FFF209906EF60031F80F73E
:1019AB00E50E6004150E80EA050F80C485108D804E
:1019BB004C85670EE50E600712000E150E80F512B2
:1019CB002A21750F01E50FC39525501D85670EE57F
:1019DB000E600712000E150E80F57474250FF8E6D5
:1019EB00F56C120BE0050F80DC85670EE50E6007CA
:0F19FB0012000E150E80F5122E0AE4F5257F015D
:011A0A0022B9
:10254500EF60157EC8A2A0B392A0E4FC7DE0DDFE9D
:102555000CBC01F8DEEF80177E64A2A0B392A0E464
:10256500FCECC39E50077D20DDFE0C80F4DEEBD233
:01257500A0C5
:012576002242
:092F6100E4F549754A01022977E3
:092F6A00E4F549754A04022977D7
:092F7300E4F549754A08022977CA
:092F7C00E4F549754A20022977A9
:083009007549018F4A02297785
:083011007549028F4A0229777C
:101F76008F148D15855459E553540125E0F55AE51E
:101F860052C43333335480FFE553C3134FF55B53C9
:101F96006FFE655C6010855B5CAF5B123009E56FB8
:101FA60030E0037F0022122A21E547455A54FEF508
:101FB6006C120BE0EF600FE514600585596C800329
:101FC600E4F56C120BE0E5156003122E0AE56F20AE
:091FD600E0047F0180027F00227B
:102577008F13536FFE122A21E547455A54FEF56C17
:10258700120BE0EF600FE513600585596C8003E4DB
:10259700F56C120BE0E56F20E0047F0180027F00FD
:0125A7002211
:10127C0090FFFF7404F090FFFEE020E0037F00225B
:10128C0090FFFF74F0F090FFFAE0F51B90FFF6E092
:10129C00F510E5456022E554701EE55320E0191267
:1012AC002E0A7FFA7E00122513122F7C7F007E10EF
:1012BC00122513E4FF12257785530E85540FE4FC99
:1012CC00FDFEE5542510F554EE3553F553ED35522E
:1012DC00F552EC3551F551E50E65536067E50F603D
:1012EC002690FFFEE0F512E4F511536FFE85126CAB
:1012FC00120BE0E56F30E00B0511E511C394FA40D9
:10130C00E98004050F80D6122E0A7FFA7E00122582
:10131C0013E4FDFF121F76EF60058554108003E483
:10132C00F510E545601EE554601AE50E655354FE54
:10133C006012122E0A122F7C7F007E10122513E4ED
:10134C00FF122577E510602690FFFEE0F512E4F51C
:10135C0011536FFE85126C120BE0E56F30E00B053C
:10136C0011E511C394FA40E98004151080D690FF62
:0F137C00FF74F2F0E56F20E0047F0180027F0034
:01138B00223F
:102B0200536FFE122A21E547455A4401F56C120B18
:0D2B1200E0E56F20E0047F0180027F0022DB
:102DA700536FFEAF47123011E56F20E0047F0180BB
:042DB700027F002275
:052284000554122CBA04
:10228900E552C43333335480FFE553C3134FF4F598
:102299005CE4FD7F01121F76EF7002FF22E54560C5
:1022A90028E5547005E55330E01F122E0A122F7CE1
:1022B900E56F30E0037F00227F007E10122513EFC7
:0C22C9007002FF227F011225777F0122A6
:102B760012127CEF7002FF227F04122ED48F1BE507
:0A2B86001B30E60302127C7F0122DF
:102C1000122E0A7FFA7E00122513536FFEE56F20F5
:092C2000E0047F0180027F002224
:102A4200E552C43333335480FFE553C3134FF4F5D7
:102A52005C7D017F01121F76EF7002FF22122B02B2
:012A62002251
:100D5800AF54AE53AD52AC51AB58AA57A956A8558B
:100D6800C3120A4050037F0022C3E5589554FFE59B
:100D7800579553FEE5569552FDE5559551FCEF24E0
:100D880001F511E43EF510E43DF50FE43CF50EE401
:100D98007F40FEFDFCAB11AA10A90FA80ED3120AC2
:100DA800404005751240800385111290FFFF7405BD
:100DB800F090FFFEE0F51BA374F0F090FFFEE4F066
:100DC800E512F0855310855411E4FCFDFEE5542529
:100DD80012F554EE3553F553ED3552F552EC3551C5
:100DE800F551E5106553604AE511C394FF500D12A3
:100DF8000A6790FFFEE56BF0051180EC756D011236
:100E08000A6790FFFEE56BF0AF54AE53AD52AC519C
:100E1800AB58AA57A956A855C3120A405004E5541E
:100E280060657D01E4FF121F76EF605B122B02857F
:100E38005412AF54AE53AD52AC51AB58AA57A95641
:100E4800A855C3120A405028E4F513E51214FFE52B
:100E580013C39F500D120A6790FFFEE56BF0051350
:100E680080E9756D01120A6790FFFEE56BF0801747
:100E7800E4F513E513C39512500D120A6790FFFEAF
:100E8800E56BF0051380EC90FFFF74FAF0E56F2036
:080E9800E0047F0180027F00ED
:010EA000222F
:07304900787476FF7F01227D
:0B2F2C0085708C85718AE58C70FC229A
:10272A00536FFE122F73E56F30E0037F00227F00A4
:10273A007EF0122513A2C0B392C0122F2CA2C0B3EE
:0E274A0092C0E56F20E0047F0180027F002234
:1028B6007F64AE071FEE601E85708C85718AE4F515
:1028C60072E572C3956450EAE58C70F50572857001
:0628D6008C85718A80EB85
:0128DC0022D9
:10280E00536FFE122F6AE56F30E0037F00227F00C8
:10281E007EF0122513A2C0B392C01228B6A2C0B386
:0A282E0092C07F007EF012251322F5
:102999007D017F01121F76E56F30E0037F0022126F
:1029A9002F7CE56F30E0037F00227F007E10122527
:0229B9001322E7
:04307D0012194B22B7
:102E4200536FFE122F61E56F20E0047F0180027F45
:022E520000225C
:102CBA007F64E56870028006EF8568F084FFAE07DE
:062CCA001FEE600280F81D
:012CD00022E1
:10263B00122289536FFE85636C120BE012228453B6
:10264B006FFE85626C120BE0122284536FFE856164
:10265B006C120BE0122284536FFE85606C020BE050
:0630650012263B7F012250
:092F8500E4F549754A01022977BF
:092F8E00E4F549754A04022977B3
:092F9700E4F549754A08022977A6
:092FA000E4F549754A2002297785
:083019007549018F4A02297775
:083021007549028F4A0229776C
:101FDF008F148D15855459E553540125E0F55AE5B5
:101FEF0052C43333335480FFE553C3134FF55B5360
:101FFF006FFE655C6010855B5CAF5B123019E56F3F
:10200F0030E0037F0022122A21E547455A54FEF59E
:10201F006C120BE0EF600FE514600585596C8003BF
:10202F00E4F56C120BE0E5156003122E0AE56F2044
:09203F00E0047F0180027F002211
:1025A8008F13536FFE122A21E547455A54FEF56CE6
:1025B800120BE0EF600FE513600585596C8003E4AA
:1025C800F56C120BE0E56F20E0047F0180027F00CC
:0125D80022E0
:10138C0090FFFF7404F090FFFEE020E0037F00224A
:10139C0090FFFF74F0F090FFFAE0F51B90FFF6E081
:1013AC00F510E5456022E554701EE55320E0191256
:1013BC002E0A7FFA7E00122513122FA07F007E10BA
:1013CC00122513E4FF1225A885530E85540FE4FC57
:1013DC00FDFEE5542510F554EE3553F553ED35521D
:1013EC00F552EC3551F551E50E65536067E50F602C
:1013FC002690FFFEE0F512E4F511536FFE85126C9A
:10140C00120BE0E56F30E00B0511E511C394FA40C7
:10141C00E98004050F80D6122E0A7FFA7E00122571
:10142C0013E4FDFF121FDFEF60058554108003E409
:10143C00F510E545601EE554601AE50E655354FE43
:10144C006012122E0A122FA07F007E10122513E4B8
:10145C00FF1225A8E510602690FFFEE0F512E4F5DA
:10146C0011536FFE85126C120BE0E56F30E00B052B
:10147C0011E511C394FA40E98004151080D690FF51
:0F148C00FF74F2F0E56F20E0047F0180027F0023
:01149B00222E
:102B1F00536FFE122A21E547455A4401F56C120BFB
:0D2B2F00E0E56F20E0047F0180027F0022BE
:102DBB00536FFEAF47123021E56F20E0047F018097
:042DCB00027F002261
:0522D5000554122CD19C
:1022DA00E552C43333335480FFE553C3134FF4F547
:1022EA005CE4FD7F01121FDFEF7002FF22E545600B
:1022FA0028E5547005E55330E01F122E0A122FA06C
:10230A00E56F30E0037F00227F007E10122513EF75
:0C231A007002FF227F011225A87F012223
:102B900012138CEF7002FF227F04122ED48F1BE5DC
:0A2BA0001B30E60302138C7F0122B4
:102C2900122E0A7FFA7E00122513536FFEE56F20DC
:092C3900E0047F0180027F00220B
:102A6300E552C43333335480FFE553C3134FF4F5B6
:102A73005C7D017F01121FDFEF7002FF22122B1F0B
:012A83002230
:100EA100AF54AE53AD52AC51AB58AA57A956A85541
:100EB100C3120A4050037F0022C3E5589554FFE551
:100EC100579553FEE5569552FDE5559551FCEF2496
:100ED10001F511E43EF510E43DF50FE43CF50EE4B7
:100EE1007F40FEFDFCAB11AA10A90FA80ED3120A78
:100EF100404005751240800385111290FFFF740573
:100F0100F090FFFEE0F51BA374F0F090FFFEE4F01B
:100F1100E512F0855310855411E4FCFDFEE55425DE
:100F210012F554EE3553F553ED3552F552EC35517A
:100F3100F551E5106553604AE511C394FF500D1258
:100F41000A6790FFFEE56BF0051180EC756D0112EB
:100F51000A6790FFFEE56BF0AF54AE53AD52AC5152
:100F6100AB58AA57A956A855C3120A405004E554D4
:100F710060657D01E4FF121FDFEF605B122B1F85AF
:100F81005412AF54AE53AD52AC51AB58AA57A956F7
:100F9100A855C3120A405028E4F513E51214FFE5E1
:100FA10013C39F500D120A6790FFFEE56BF0051306
:100FB10080E9756D01120A6790FFFEE56BF08017FD
:100FC100E4F513E513C39512500D120A6790FFFE65
:100FD100E56BF0051380EC90FFFF74FAF0E56F20EC
:080FE100E0047F0180027F00A3
:010FE90022E5
:07305000787476FF7F012276
:0B2F370085708C85718AE58C70FC228F
:10275800536FFE122F97E56F30E0037F00227F0052
:102768007EF0122513A2C0B392C0122F37A2C0B3B5
:0E27780092C0E56F20E0047F0180027F002206
:1028DD007F64AE071FEE601E85708C85718AE4F5EE
:1028ED0072E572C3956450EAE58C70F505728570DA
:0628FD008C85718A80EB5E
:0129030022B1
:10283800536FFE122F8EE56F30E0037F00227F007A
:102848007EF0122513A2C0B392C01228DDA2C0B335
:0A28580092C07F007EF012251322CB
:1029BB007D017F01121FDFE56F30E0037F002212E4
:1029CB002FA0E56F30E0037F00227F007E101225E1
:0229DB001322C5
:0430810012194B22B3
:102E5400536FFE122F85E56F20E0047F0180027F0F
:022E640000224A
:102CD1007F64E56870028006EF8568F084FFAE07C7
:062CE1001FEE600280F806
:012CE70022CA
:10266B001222DA536FFE85636C120BE01222D553E4
:10267B006FFE85626C120BE01222D5536FFE8561E3
:10268B006C120BE01222D5536FFE85606C020BE0CF
:06306B0012266B7F01221A
:092FA900E4F549754A010229779B
:092FB200E4F549754A040229778F
:092FBB00E4F549754A0802297782
:092FC400E4F549754A2002297761
:083029007549018F4A02297765
:083031007549028F4A0229775C
:102048008F148D15855459E553540125E0F55AE54B
:1020580052C43333335480FFE553C3134FF55B53F6
:102068006FFE655C6010855B5CAF5B123029E56FC5
:1020780030E0037F0022122A21E547455A54FEF535
:102088006C120BE0EF600FE514600585596C800356
:10209800E4F56C120BE0E5156003122E0AE56F20DB
:0920A800E0047F0180027F0022A8
:1025D9008F13536FFE122A21E547455A54FEF56CB5
:1025E900120BE0EF600FE513600585596C8003E479
:1025F900F56C120BE0E56F20E0047F0180027F009B
:0126090022AE
:10149C0090FFFF7404F090FFFEE020E0037F002239
:1014AC0090FFFF74F0F090FFFAE0F51B90FFF6E070
:1014BC00F510E5456022E554701EE55320E0191245
:1014CC002E0A7FFA7E00122513122FC47F007E1085
:1014DC00122513E4FF1225D985530E85540FE4FC15
:1014EC00FDFEE5542510F554EE3553F553ED35520C
:1014FC00F552EC3551F551E50E65536067E50F601B
:10150C002690FFFEE0F512E4F511536FFE85126C88
:10151C00120BE0E56F30E00B0511E511C394FA40B6
:10152C00E98004050F80D6122E0A7FFA7E00122560
:10153C0013E4FDFF122048EF60058554108003E48E
:10154C00F510E545601EE554601AE50E655354FE32
:10155C006012122E0A122FC47F007E10122513E483
:10156C00FF1225D9E510602690FFFEE0F512E4F598
:10157C0011536FFE85126C120BE0E56F30E00B051A
:10158C0011E511C394FA40E98004151080D690FF40
:0F159C00FF74F2F0E56F20E0047F0180027F0012
:0115AB00221D
:102B3C00536FFE122A21E547455A4401F56C120BDE
:0D2B4C00E0E56F20E0047F0180027F0022A1
:102DCF00536FFEAF47123031E56F20E0047F018073
:042DDF00027F00224D
:052326000554122CE833
:10232B00E552C43333335480FFE553C3134FF4F5F5
:10233B005CE4FD7F01122048EF7002FF22E545604F
:10234B0028E5547005E55330E01F122E0A122FC4F6
:10235B00E56F30E0037F00227F007E10122513EF24
:0C236B007002FF227F011225D97F0122A1
:102BAA0012149CEF7002FF227F04122ED48F1BE5B1
:0A2BBA001B30E60302149C7F012289
:102C4200122E0A7FFA7E00122513536FFEE56F20C3
:092C5200E0047F0180027F0022F2
:102A8400E552C43333335480FFE553C3134FF4F595
:102A94005C7D017F01122048EF7002FF22122B3C63
:012AA400220F
:100FEA00AF54AE53AD52AC51AB58AA57A956A855F7
:100FFA00C3120A4050037F0022C3E5589554FFE507
:10100A00579553FEE5569552FDE5559551FCEF244B
:10101A0001F511E43EF510E43DF50FE43CF50EE46C
:10102A007F40FEFDFCAB11AA10A90FA80ED3120A2D
:10103A00404005751240800385111290FFFF740528
:10104A00F090FFFEE0F51BA374F0F090FFFEE4F0D1
:10105A00E512F0855310855411E4FCFDFEE5542594
:10106A0012F554EE3553F553ED3552F552EC355130
:10107A00F551E5106553604AE511C394FF500D120E
:10108A000A6790FFFEE56BF0051180EC756D0112A1
:10109A000A6790FFFEE56BF0AF54AE53AD52AC5108
:1010AA00AB58AA57A956A855C3120A405004E5548A
:1010BA0060657D01E4FF122048EF605B122B3C85DE
:1010CA005412AF54AE53AD52AC51AB58AA57A956AD
:1010DA00A855C3120A405028E4F513E51214FFE597
:1010EA0013C39F500D120A6790FFFEE56BF00513BC
:1010FA0080E9756D01120A6790FFFEE56BF08017B3
:10110A00E4F513E513C39512500D120A6790FFFE1A
:10111A00E56BF0051380EC90FFFF74FAF0E56F20A1
:08112A00E0047F0180027F0058
:01113200229A
:07305700787476FF7F01226F
:0B2F420085708C85718AE58C70FC2284
:10278600536FFE122FBBE56F30E0037F00227F0000
:102796007EF0122513A2C0B392C0122F42A2C0B37C
:0E27A60092C0E56F20E0047F0180027F0022D8
:102904007F64AE071FEE601E85708C85718AE4F5C6
:1029140072E572C3956450EAE58C70F505728570B2
:062924008C85718A80EB36
:01292A00228A
:10286200536FFE122FB2E56F30E0037F00227F002C
:102872007EF0122513A2C0B392C0122904A2C0B3E3
:0A28820092C07F007EF012251322A1
:1029DD007D017F01122048E56F30E0037F00221258
:1029ED002FC4E56F30E0037F00227F007E1012259B
:0229FD001322A3
:0430850012194B22AF
:102E6600536FFE122FA9E56F20E0047F0180027FD9
:022E7600002238
:102CE8007F64E56870028006EF8568F084FFAE07B0
:062CF8001FEE600280F8EF
:012CFE0022B3
:10269B0012232B536FFE85636C120BE01223265310
:1026AB006FFE85626C120BE0122326536FFE856161
:1026BB006C120BE0122326536FFE85606C020BE04D
:0630710012269B7F0122E4
:092FCD00E4F549754A0102297777
:092FD600E4F549754A040229776B
:092FDF00E4F549754A080229775E
:092FE800E4F549754A200229773D
:083039007549018F4A02297755
:083041007549028F4A0229774C
:1020B1008F148D15855459E553540125E0F55AE5E2
:1020C10052C43333335480FFE553C3134FF55B538D
:1020D1006FFE655C6010855B5CAF5B123039E56F4C
:1020E10030E0037F0022122A21E547455A54FEF5CC
:1020F1006C120BE0EF600FE514600585596C8003ED
:10210100E4F56C120BE0E5156003122E0AE56F2071
:09211100E0047F0180027F00223E
:10260A008F13536FFE122A21E547455A54FEF56C83
:10261A00120BE0EF600FE513600585596C8003E447
:10262A00F56C120BE0E56F20E0047F0180027F0069
:01263A00227D
:1015AC0090FFFF7404F090FFFEE020E0037F002228
:1015BC0090FFFF74F0F090FFFAE0F51B90FFF6E05F
:1015CC00F510E5456022E554701EE55320E0191234
:1015DC002E0A7FFA7E00122513122FE87F007E1050
:1015EC00122513E4FF12260A85530E85540FE4FCD2
:1015FC00FDFEE5542510F554EE3553F553ED3552FB
:10160C00F552EC3551F551E50E65536067E50F6009
:10161C002690FFFEE0F512E4F511536FFE85126C77
:10162C00120BE0E56F30E00B0511E511C394FA40A5
:10163C00E98004050F80D6122E0A7FFA7E0012254F
:10164C0013E4FDFF1220B1EF60058554108003E414
:10165C00F510E545601EE554601AE50E655354FE21
:10166C006012122E0A122FE87F007E10122513E44E
:10167C00FF12260AE510602690FFFEE0F512E4F555
:10168C0011536FFE85126C120BE0E56F30E00B0509
:10169C0011E511C394FA40E98004151080D690FF2F
:0F16AC00FF74F2F0E56F20E0047F0180027F0001
:0116BB00220C
:102B5900536FFE122A21E547455A4401F56C120BC1
:0D2B6900E0E56F20E0047F0180027F002284
:102DE300536FFEAF47123041E56F20E0047F01804F
:042DF300027F002239
:052377000554122CFFCB
:10237C00E552C43333335480FFE553C3134FF4F5A4
:10238C005CE4FD7F011220B1EF7002FF22E5456095
:10239C0028E5547005E55330E01F122E0A122FE881
:1023AC00E56F30E0037F00227F007E10122513EFD3
:0C23BC007002FF227F0112260A7F01221E
:102BC4001215ACEF7002FF227F04122ED48F1BE586
:0A2BD4001B30E6030215AC7F01225E
:102C5B00122E0A7FFA7E00122513536FFEE56F20AA
:092C6B00E0047F0180027F0022D9
:102AA500E552C43333335480FFE553C3134FF4F574
:102AB5005C7D017F011220B1EF7002FF22122B59BC
:012AC50022EE
:10113300AF54AE53AD52AC51AB58AA57A956A855AC
:10114300C3120A4050037F0022C3E5589554FFE5BC
:10115300579553FEE5569552FDE5559551FCEF2401
:1011630001F511E43EF510E43DF50FE43CF50EE422
:101173007F40FEFDFCAB11AA10A90FA80ED3120AE3
:10118300404005751240800385111290FFFF7405DE
:10119300F090FFFEE0F51BA374F0F090FFFEE4F087
:1011A300E512F0855310855411E4FCFDFEE554254A
:1011B30012F554EE3553F553ED3552F552EC3551E6
:1011C300F551E5106553604AE511C394FF500D12C4
:1011D3000A6790FFFEE56BF0051180EC756D011257
:1011E3000A6790FFFEE56BF0AF54AE53AD52AC51BE
:1011F300AB58AA57A956A855C3120A405004E55440
:1012030060657D01E4FF1220B1EF605B122B59850D
:101213005412AF54AE53AD52AC51AB58AA57A95662
:10122300A855C3120A405028E4F513E51214FFE54C
:1012330013C39F500D120A6790FFFEE56BF0051371
:1012430080E9756D01120A6790FFFEE56BF0801768
:10125300E4F513E513C39512500D120A6790FFFED0
:10126300E56BF0051380EC90FFFF74FAF0E56F2057
:08127300E0047F0180027F000E
:01127B002250
:07305E00787476FF7F012268
:0B2F4D0085708C85718AE58C70FC2279
:1027B400536FFE122FDFE56F30E0037F00227F00AE
:1027C4007EF0122513A2C0B392C0122F4DA2C0B343
:0E27D40092C0E56F20E0047F0180027F0022AA
:10292B007F64AE071FEE601E85708C85718AE4F59F
:10293B0072E572C3956450EAE58C70F5057285708B
:06294B008C85718A80EB0F
:012951002263
:10288C00536FFE122FD6E56F30E0037F00227F00DE
:10289C007EF0122513A2C0B392C012292BA2C0B392
:0A28AC0092C07F007EF01225132277
:1029FF007D017F011220B1E56F30E0037F002212CD
:102A0F002FE8E56F30E0037F00227F007E10122554
:022A1F00132280
:0430890012194B22AB
:102E7800536FFE122FCDE56F20E0047F0180027FA3
:022E8800002226
:102CFF007F64E56870028006EF8568F084FFAE0799
:062D0F001FEE600280F8D7
:012D1500229B
:1026CB0012237C536FFE85636C120BE0122377533E
:1026DB006FFE85626C120BE0122377536FFE8561E0
:1026EB006C120BE0122377536FFE85606C020BE0CC
:063077001226CB7F0122AE
:10075300EC4D6011E8497017ED33EC3304600DE4A0
:10076300FCFFFEFD22E933E8330470F80209A3120B
:10077300096E58046009E4CC24815006285009020C
:1007830009AD2840030209AAC0E0EB4A7044B980CE
:1007930006D0E0FB020999EF4E701CBD8008EBFF09
:1007A300EAFEE9FD80EBE98DF0A4FEE5F002083CEA
:1007B300E9CDF9EAFEEBFFEF89F0A4FCE5F0CE8981
:1007C300F0A42EFFE435F0CD89F0A42DFEE435F03E
:1007D3008067EF4E7005BD80D780C3EF8BF0A4AC6C
:1007E300F0EE8BF0A42CFCE435F0F8EF8AF0A42CA7
:1007F300E5F038FCE433CB8DF0A42CFCE5F03BF8BA
:10080300EE8AF0A42CFCE5F038F8E433CF89F0A4A9
:100813002CFCE5F038CF3400CE89F0A42FFFE5F0AF
:100823003EFEE433C98DF0A42EFEE5F039CD8AF007
:10083300A42FFFE5F03EFEE43DFD33D0E0FB50077F
:100843000BBB000F0209ADEC2CFCEF33FFEE33FEC4
:06085300ED33FD020985F2
:100859000209ADEC5D046005E8590470030209A3BF
:1008690012096E580460F6EC4860F2EC7004FDFE63
:10087900FF22C860DB2481C85009C3986002500672
:100889000209AA9850CAF582E9294B4A7005AB8238
:1008990002099975F0007C1A7880C3EF9BEE9AEDF6
:1008A90099400DC3EF9BFFEE9AFEED99FDE842F0EA
:1008B900DC23ACF0D0E0FFD0E0FED0E0FDAB82203D
:1008C900E7101BEB60BAEC2CFCEF33FFEE33FEEDC7
:1008D90033FD020985E803F830E705C0F075F0003B
:1008E900EF2FFFEE33FEED33FD40B830E7C280AAAB
:1008F90075F020800E75F010800575F0087D007E7A
:10090900007F003392D530D503120A32EC33401000
:10091900EF33FFEE33FEED33FDEC33FCD5F0ED2282
:0E092900E5F0247EA2D513CC92E7CDCEFF22BE
:10093700EDD2E7CD33EC3392D524814006E4FFFEB8
:10094700FDFC22FCE4CFCECDCC24E0501174FF8017
:10095700EDC3CC13CCCD13CDCE13CECF13CF0470B4
:07096700F030D5DE020A3278
:10096E00E9D2E7C933E833F892D5EDD2E7CD33ECCF
:07097E0033FC5002B2D52248
:10098500EC30E7100FBF000C0EBE00080DBD0004D3
:100995000BEB6014A2D5EB13FCED92E7FD2274FF7F
:1009A500FCFDFEFF22E480F8A2D574FF13FC7D80D8
:0309B500E480EFEC
:101D29000216BCE493A3F8E493A34003F68001F2FE
:101D390008DFF48029E493A3F85407240CC8C333BB
:101D4900C4540F4420C8834004F456800146F6DF8A
:101D5900E4800B0102040810204080901E9FE47E5D
:101D6900019360BCA3FF543F30E509541FFEE4937F
:101D7900A360010ECF54C025E060A840B8E493A346
:101D8900FAE493A3F8E493A3C8C582C8CAC583CA71
:101D9900F0A3C8C582C8CAC583CADFE9DEE780BE29
:011F0A0000D6
:1009B800BB010689828A83E0225002E722BBFE023D
:0909C800E32289828A83E4932270
:1009D100BB010CE58229F582E5833AF583E02250DB
:1009E10006E92582F8E622BBFE06E92582F8E22225
:0D09F100E58229F582E5833AF583E493223F
:1009FE00BB010689828A83F0225002F722BBFE01D8
:020A0E00F322D1
:100A1000F8BB010DE58229F582E5833AF583E8F01C
:100A2000225006E92582C8F622BBFE05E92582C8C8
:020A3000F222B0
:0E0A3200C3E49FFFE49EFEE49DFDE49CFC22D5
:100A4000EB9FF5F0EA9E42F0E99D42F0E89C45F00C
:010A50002283
:100A5100E493FC740193FD740293FE740393FF22EB
:060A61008A838982E47320
:00000001FF
