:04000000020049327F
:03000B0002256D5E
:0100130032BA
:01001B0032B2
:03002300021DD0EB
:01002B0032A2
:01003300329A
:01003B003292
:03004300021E4C4E
:03011000020046A4
:03004600020113A1
:2001130075BF5075B721D2AFD2A375E63F75E5C075760075820012287275D909D2B4D2B361
:20013300758201122E08122A39C293C295C292903C00121B30901E00121B30908000121B86
:2001530030903000121B30900200121B30908880121B3090F880121B30900080121B3090F9
:20017300F880121B3090A080121B30900080121B3090F880121B3090A080121B309000809B
:20019300121B30901080121B30903080121B30907080121B30903080121B30901080121B0E
:2001B30030900080121B3090F880121B30900080121B30900080121B30900080121B309053
:2001D3000080121B30900080121B30900080121B3090F880121B3090F880121B309000807B
:2001F300121B30900080121B30900080121B30900080121B3090F880121B3090F880121BAE
:200213003090F880121B3090F880121B30900080121B3090F880121B3090F880121B30900A
:20023300F880121B3090F880121B3090F880121B3090F880121B3090F880121B3090208012
:20025300121B30907080121B30900080121B30905080121B30907080121B30905080121BBD
:2002730030900080121B3090F880121B3090F880121B30900080121B30900080121B30909A
:200293005080121B30907080121B30905080121B30900080121B30900080121B309000809A
:2002B300121B3090C080121B3090D880121B30900080121B30900080121B30908880121BBD
:2002D30030907080121B30900080121B301204F1AE8E4306088E8E758900D2A91224A47519
:2002F300D34875D4027CDD7D8A7E147F008C008D018E028F031CBCFF091DBDFF051EBEFF3F
:20031300011FE8494A4B70E5D29FD29ED29DD29C75CAFD75CBFFD2CDD2CCC2CBD2CAC2C965
:20033300C2C8759BFC759AD0AAE84302018AE8D2ACC2A3758200C007C006C005C004122EBB
:2003530008D004D005D006D007757690E4F577F578F5798C828D838EF0EFC007C006C005A9
:20037300C004122E42A882A983AAF0FBD004D005D006D007E8494A4B7013C007C006C00548
:20039300C004122A39D004D005D006D007757659E4F577F578F5798C828D838EF0EFC007FA
:2003B300C006C005C004122E42A882A983AAF0FBD004D005D006D007E8494A4B7013C00708
:2003D300C006C005C0041225C9D004D005D006D007757603E4F577F578F5798C828D838EA0
:2003F300F0EFC007C006C005C004122E42A882A983AAF0FBD004D005D006D007E8494A4B6C
:200413007013C007C006C005C0041204F1D004D005D006D0078C008D018E028F030CBC00CF
:20043300090DBD00050EBE00010F888289838AF0EBC007C006C005C004121E79D004D00512
:07045300D006D00702035C94
:20045A00858276E4F577F578F579F57AFAE5766007D29775DA888005D29475DA817908E94A
:20047A0014F970FBE5DA30E4FBA8DB7900E828F8E933F9E828F8E933F9AFDC7E00E84207AC
:20049A00E9420653DA7F8E04E4FDFEEF2577F577EC3578F578ED3579F579EE357AF57A0AD8
:2004BA00BA200040A8AC77E578C403CCC40354076CCC5407CC6CCCFDE579C40354F84DFDDC
:1704DA00AE79E57AC403CEC40354076ECE5407CE6ECE8C828D8322ED
:1E00A200750B007510007512007513007514007515007516007508457509FF750AFFD1
:2004F100121688AF82E4BF050104FE7003BF0A21EE60067D027E0080047D037E008D82C060
:2005110007122DC1D007AD0B7E004305808D0B8012E50B30E70D758200C007122DC1D0071B
:20053100530B7FBF0834758210C0071228C8AE82D007BE80067D007E0080047D807E008D30
:200551006A756900758210C00712295C7508007509FF756D02122A39D007BFC8107401B5F2
:200571006D05756D028003756D01022A39BF0902800302061C75820F1228C8E582F4F56A16
:2005910075690075820F12295C908000121B3075820F1228C8E582601775210F75220075CB
:2005B1002300752400902F8575F0801218DD801575210F752200752300752400902F957573
:2005D100F0801218DD75210F752200752301752400902FA475F0801218DD750CB5750DD846
:2005F100750E07750F00A80CA90DAA0EAE0F150C74FFB50C0C150DB50D07150EB50E0215B4
:200611000FE8494A4E70DF7509FF22BF070280030206AD908000121B30E56E20E41D75218C
:200631000F752202752300752400902FB475F0801218DD758201122E08801B75210F75225A
:2006510002752300752400902FBF75F0801218DD758200122E087521107522007523017562
:200671002400902FC975F0801218DD750CB5750DD8750E07750F00A80CA90DAA0EAE0F153F
:200691000C74FFB50C0C150DB50D07150EB50E02150FE8494A4E70DF7509FF22BF06028008
:2006B10003020760747F550BFE908000C006121B30D0068E047D007576038D778C828D8344
:2006D100C006122F4BE582FC2CFC2428F582C00412147FAA82AB83ADF07521107522007557
:2006F10023007524008A828B838DF01218DDD00474292CF58212147FAB82AC83ADF0752147
:20071100107522007523017524008B828C838DF01218DDD0060E530B80747F5E420B750C6E
:20073100DD750D8A750E14750F00A80CA90DAA0EAE0F150C74FFB50C0C150DB50D07150E56
:20075100B50E02150FE8494A4E70DF7509FF22BF04067508007509FFE509702DBF03028056
:2007710028BF1E028023BF1F02801EBF0B028019BF6E028014BF6F02800FBF0102800ABF4E
:2007910002028005E508600122AE08BE010302082EBE0203020838BE0303020833BE0403D4
:2007B10002083DBE0503020842BE0603020847BE0703020847BE0803020847BE09028076C5
:2007D100BE0A028076BE0B028071BE0C02806CBE0D02806CBE0E028067BE14028067BE15D8
:2007F100028067BE4569908000121B30752110752201752300752400902FDA75F08012180F
:20081100DD752110752200752301752400902FE975F0801218DD7509FF750800228F8202B8
:200831000B668F82020CA08F82020D4F8F82020DFE8F82020EAA8F82020F778F8202108AD9
:200851008F820211A98F820212C58F82021349C007120880D007BF020975170075820102D9
:2008710013EBBF01097517007582020213EB22E5097003020967908000121B3075090075C6
:200891000AFF7510FF751155E56F7033E56E30E72E752110752201752300752400902FF929
:2008B10075F0801218DD75211075220075230175240090300875F0801218DD7512FF22E58B
:2008D10012600C7401B56F067512007509FF227582101228C8E5826017752110752201752A
:2008F100230075240090301875F0801218DD8066122A287525047526017527001219A17506
:20091100820E1228C8AF82BF01028005BF020A80047F0380067F0180027F0B7E0075250CB5
:200931007526018E278F828E831219A175210475220075230175240090302475F080121811
:20095100DD75210475220975230175240090302975F0801218DD05137401B56D55E51570FA
:2009710008AE14FF4306208E14E56C7016E51430E535752B0E752C00758280121AFB531424
:20099100DF802474B7B5130E752B0E752C00758280121AFB8011743FB5130C752B0E752C6E
:2009B10000758204121AFBAE147F004306108E14802E7401B51509AE147F004306108E1496
:2009D100E51430E418752B0E752C00758204121AFBAE147F004306208E145314EF75150044
:2009F100E56E20E45EE56E30E716E51430E049752B0F752C00758260121AFB5314FE803874
:200A1100E513702BE51430E111752B0F752C00758204121AFB5314FD8015752B0F752C005C
:200A31007582A0121AFBAE147F004306028E14AE147F004306018E14AE147F004306088E6C
:200A5100148017E51430E30F752B0F752C00758200121AFB5314F74314097582101228C88A
:200A7100E5826003020B06E5386028E50A30E74975210675220175230075240090302E75CC
:200A9100F0801218DDAE0A7F004306408E0A530A7F8026E50A30E621752106752201752302
:200AB1000075240090303575F0801218DDAE0A7F004306808E0A530ABFE56BFFB5100122C0
:200AD1008F057E007525078E268E278D828E83C0071219A1D007E56C70057D92FE80047D8B
:200AF100227E008D82752B0B752C00C007121AFBD0078F1022E56CFFB511028037EF70191D
:200B1100752109F522752301F52490303C75F080C0071218DDD00780197521097522007592
:200B3100230175240090304575F080C0071218DDD0078F11E56BFFB51001228F057E0075FA
:200B5100250B7526018E278D828E83C0071219A1D0078F1022AF82BF0102803ABF020280C8
:200B71002CBF03028005BF0B368011756901756A0075820012295C750AFF8023756902759C
:200B91006A0075820012295C750AFF80127517007582010213EB7517007582020213EBE54E
:200BB100096021750900750AFF908000121B3075210A75220375230075240090304E75F053
:200BD100801218DDE50A700122750A007582001228C8AF82BF0002800BBF01028033BF02D0
:200BF1000280672275820012147FAD82AE83AFF07521107522037523017524008D828E83AC
:200C11008FF01218DD752B0C752C01758240021AFB75820112147FAD82AE83AFF07521105F
:200C31007522037523017524008D828E838FF01218DD752B0C752C01758240121AFB752BE5
:200C51000D752C017582C0021AFB75820212147FAD82AE83AFF0752110752203752301751B
:200C710024008D828E838FF01218DD752B0C752C01758240121AFB752B0D752C017582C0E7
:200C9100121AFB752B0E752C01758220021AFBAF82BF01028044BF02028036BF0302800F1B
:200CB100BF0B02801BBF1F028005BF6F368011756901756A0075820212295C750AFF8023F3
:200CD100756902756A0075820212295C750AFF80127517007582010213EB7517007582029B
:200CF1000213EBE5096036750900750AFF908000121B3075210D75220275230075240090F9
:200D1100305875F0801218DD75210875220775230175240090306575F0801218DDE50A6080
:200D31001C750A007582021228C8AF827E007525017526018E278F828E830219A122AF8240
:200D5100BF01028044BF02028036BF0302800FBF0B02801BBF1F028005BF6F368011756991
:200D710001756A0075820112295C750AFF8023756902756A0075820112295C750AFF801274
:200D91007517007582010213EB7517007582020213EBE5096036750900750AFF9080001297
:200DB1001B3075210D75220275230075240090306D75F0801218DD7521087522077523017C
:200DD10075240090306575F0801218DDE50A601C750A007582011228C8AF827E007525012A
:200DF1007526018E278F828E830219A122AF82BF01028044BF02028036BF0302800FBF0B44
:200E110002801BBF1F028005BF6F368011756901756A0075820312295C750AFF802375697C
:200E310002756A0075820312295C750AFF80127517007582010213EB751700758202021301
:200E5100EBE5096021750900750AFF908000121B3075210775220475230075240090307A1B
:200E710075F0801218DDE50A602E750A007582031228C8AF8274142FF58212147FAD82AE9C
:200E910083AFF07521107522067523017524008D828E838FF00218DD22AF82BF010280443B
:200EB100BF02028036BF0302800FBF0B02801BBF1F028005BF6F368011756901756A007561
:200ED100820412295C750AFF8023756902756A0075820412295C750AFF80127517007582DF
:200EF100010213EB7517007582020213EBE5096021750900750AFF908000121B3075210CE1
:200F110075220375230075240090308175F0801218DDE50A604F750A007582041228C8E5C9
:200F3100827014752110752206752301F52490308D75F0800218DD752110752203752301A3
:200F510075240090309175F0801218DD7582041228C8AF827E007525057526018E278F82FD
:200F71008E830219A122AF827E00AD08BD0602800FBD0702800EBD0802800DBD0910800CAF
:200F91007E05800A7E0680067E0780027E08BF0102804ABF0202803CBF0302800FBF0B0272
:200FB100801EBF1F028005BF6F3C8014756901756A008E82C00612295CD006750AFF8026FA
:200FD100756902756A008E82C00612295CD006750AFF80127517007582010213EB751700DE
:200FF1007582020213EBE5096035750900750AFF908000C006121B30AF0874C82FF582128A
:20101100147FAC82AD83AFF07521107522037523007524008C828D838FF01218DDD006E55F
:201031000A6055750A008E82C0061228C8E582D0067014752110752206752301F524903013
:201051008D75F0800218DD75211075220075230175240090309175F080C0061218DDD006CE
:201071008E821228C8AF827E007525067526018E278F828E830219A122AF827E007D00ACD5
:2010910008BC0A02800ABC0B02800BBC0C12800C7D097E04800A7D0A7E0580047D0B7E06FF
:2010B100BF01028048BF0202803ABF03028005BF0B448018756901756A008D82C006C005D1
:2010D10012295CD005D006750AFF802A756902756A008D82C006C00512295CD005D0067585
:2010F1000AFF80127517007582010213EB7517007582020213EBE509606C750900750AFF85
:20111100908000C006C005121B3075211075220175230075240090309275F0801218DDD049
:2011310005D006BE0402800ABE05028017BE06368024752B08752C0075822CC005121AFB23
:20115100D0058022752B08752C007582ACC005121AFBD0058010752B08752C0075826CC05E
:2011710005121AFBD005E50A602D750A008D821228C8AF82743C2FF58212147FAD82AE83C5
:20119100AFF07521107522027523017524008D828E838FF00218DD22AF82BF010302124826
:2011B100BF020302123FBF0303021231BF0B03021238BF1E02800302125175F003E5168436
:2011D100AFF0740DB508067D017E0080047D007E008D768F8212287275211075220075230B
:2011F1000175240090309175F0801218DD740DB5081775211075220675230175240090307D
:20121100A275F0801218DD80377521107522067523017524009030A975F0801218DD80200E
:201231000516750AFF80191516750AFF80127517007582010213EB7517007582020213EB27
:20125100E509603D750900750AFF908000121B30740DB5081775210E7522027523007524C6
:20127100009030B175F0801218DD801575210E7522027523007524009030BF75F08012186F
:20129100DDE50A602E750A0075F003E51684AFF074502FF58212147FAD82AE83AFF075213A
:2012B100107522047523017524008D828E838FF00218DD22AF82BF01028038BF0202802A70
:2012D100BF0302800FBF0B028015BF1F028005BF6F2A800B7582011229D5750AFF801D7569
:2012F10082021229D5750AFF80127517007582010213EB7517007582020213EBE5096021C1
:20131100750900750AFF908000121B3075210C7522027523007524009030CD75F08012184B
:20133100DDE50A6012750A00122A287525047526017527000219A122AF82BF0102803ABF5B
:201351000202802CBF03028005BF0B368011756901756A0075820E12295C750AFF80237502
:201371006902756A0075820E12295C750AFF80127517007582010213EB751700758202025B
:2013910013EBE5096021750900750AFF908000121B30752111752200752300752400903037
:2013B100D975F0801218DDE50A602E750A0075820E1228C8AF8274642FF58212147FAD82D1
:2013D100AE83AFF07521107522017523017524008D828E838FF00218DD22AF827509FFBF97
:2013F1000102803DBF026A8508177582101228C8E5827017E517700675171402147705179B
:20141100E51724EA5060751700805BE517700575170180520517E51724F1504A75170080F7
:20143100458508177582101228C8E5827016E5177005751715802F151774EC251740277557
:2014510017008022E517700575170E801915178015E51724F1500C74EC25175009E51724DB
:20147100EA40037517008517082285088222AF828F06BE0003021570BE0103021577BF028C
:201491000302157EBF1403021585BF150302158CBF1603021593BF170302159ABF180302CF
:2014B10015A8BF19030215AFBF1A030215A1BF2803021657BF290302165EBF2A0302166506
:2014D100BF2B0302166CBF2C03021673BF2D0302167ABF3C030215D2BF3D030215D9BF3EBD
:2014F100030215E0BF3F030215E7BF40030215EEBF41030215F5BF42030215FCBF430302AE
:201511001603BF440302160ABF4503021611BF4603021618BF470302161FBF480302162689
:20153100BF500302162DBF5103021634BF520302163BBF6403021642BF6503021649BF6650
:2015510003021650BFCE030215B6BFCF030215BDBFD0030215C4BFD1030215CB0216819042
:2015710030EA75F080229030F075F080229030F575F0802290308D75F080229030FC75F051
:20159100802290310475F0802290310975F0802290310F75F0802290311575F08022903186
:2015B1001A75F0802290312075F0802290312A75F0802290313675F0802290314175F0803A
:2015D1002290314E75F0802290315875F0802290316575F0802290316975F0802290317013
:2015F10075F0802290317675F0802290317B75F0802290318075F0802290318875F08022BA
:2016110090319475F080229031A275F080229031AE75F080229031B775F080229031C07508
:20163100F080229031C775F080229031CE75F080229031D575F080229031DC75F080229011
:2016510031EB75F080229031F275F0802290320175F0802290321075F0802290322175F0B1
:17167100802290323275F0802290324375F0802290000075F00022A2
:202F850054616E6B204C6967687473204F66660054616E6B204C6967687473204F6E00469C
:202FA500756E2B4D616E20746F20556E646F00486561746572204F6666004865617465723C
:202FC500204F6E0042757273742B557020746F20556E646F0041746D6F73464541522032E2
:202FE50032314200427920426C697A7A6172642050726F005043204C6F6164204C657474CD
:20300500657200427572737420746F20526566696C6C004D616E75616C204D6F64650041FF
:20302500646472004D6F646500444D58204F6B004E6F20444D5800496E74657276616C00FE
:203045004475726174696F6E00466F67204C6576656C00466F6720496E74657276616C0070
:203065005365636F6E647300466F67204475726174696F6E004D6163726F73004D61637212
:203085006F205370656564004F6666000052656D6F7465205820416374696F6E0053617604
:2030A500656421004C6F616465642100536176652053657474696E6773004C6F61642053C4
:2030C500657474696E677300444D58204164647265737300444D58204368616E6E656C203C
:2030E5004D6F64650057696D7079004D696C6400426C617A696E005261696E626F77004632
:203105006972650057617465720053746F726D004163696400457468657200526564204C62
:203125006576656C00477265656E204C6576656C00426C7565204C6576656C005374726F8D
:203145006265204C6576656C004E6F20416374696F6E0043686F6F7365204D6163726F00DD
:203165005265640059656C6C6F7700477265656E004379616E00426C7565004D6167656EC7
:203185007461005374726F626520536C6F77005374726F6265204D656469756D00537472F8
:2031A5006F6265204661737400426C61636B6F75740057686974656F757400536C6F7420D6
:2031C5003100536C6F74203200536C6F74203300313120416C6C00203320466F67202B203B
:2031E5004D6163726F00203120466F67003078343836463643364436353733002620353741
:2032050036313734373336463645003632364637343638344637373645343100353336450E
:203225003646373736323631364336430034443646373236393631373237343739003634FD
:0F324500364636353733344536463734203B006E
:0600C0007518007519001F
:2016880075820112045AAE82AF837D00C3EE94A2EF9403403174F8251950257417251940F5
:2016A8001F7401B5180280167403B518028007740BB5180C80047D0380067D0B80027D01F2
:2016C800751800751900C3747A9E74039F402574669E74039F501D7402B5181274F8251923
:2016E800400F051974F8251950077D028003751900751802C374489E74039F4029742F9E78
:2017080074039F50217403B5181674172519400C051974172519500B7D1E80077D1F800348
:20172800751900751803C374AA9EE49F4028748C9EE49F5021740BB5181674172519400C10
:20174800051974172519500B7D6E80077D6F800375190075180BC374769E74029F402574FF
:20176800589E74029F501D7407B5181274172519400F05197417251950077D0780037519A4
:2017880000751807C374989E74039F402574849E74039F501D7401B5181274172519400F40
:2017A80005197417251950077DC88003751900751801C374129E74029F402574FE9E740119
:2017C8009F501D7408B5181274F82519400F051974F8251950077D08800375190075180857
:2017E800C374C69E74029F402974A89E74029F50217405B5181674F82519400C051974F8AC
:201808002519500B7D0580077D058003751900751805C374EA9E74019F402574CC9E74016E
:201828009F501D7409B5181274172519400F05197417251950077D098003751900751809B5
:20184800C374B89E74019F402974A49E74019F5021740AB5181674172519400C051974171C
:201868002519500B7D0A80077D0A800375190075180AC3742A9E74039F402574169E740371
:201888009F501D7404B5181274F82519400F051974F8251950077D048003751900751804A2
:2018A800C3748A9E74029F402974769E74029F50217406B5181674172519400C051974171A
:1518C8002519500B7D0680077D0680037519007518068D822210
:2018DD00AD82AE83AFF07C00E5236008AB2274402BFB8002AB228B82C007C006C005C004E7
:2018FD00121D7FAA827B008B8274014AF583121B30D004D005D006D0070521E5246016904A
:20191D000080C007C006C005C004121B30D004D005D006D0077B00C3EB9521400122EC70C3
:20193D0045EB2DF8E43EF98F02888289838AF0122F2FFA602D8A82C007C006C005C004C020
:20195D0003121B76AA828A0189027900748049F5828A83121B30D003D004D005D006D007C2
:20197D00801E7C01801A900480C007C006C005C004C003121B30D003D004D005D006D00722
:20199D000B021934AE82AF837D00752804752904752A0CC3EE94E8EF940340047EE77F0325
:2019BD00E5266008AC2574402CFC8002AC258C82C007C006C005121D7FAB827C008C82745E
:2019DD00014BF583121B30D005D006D007E5276014900080C007C006C005121B30D005D063
:2019FD0006D0078012900480C007C006C005121B30D005D006D0077576647577008E828F3C
:201A1D0083C007C006C005122E19AB82AC83D005D006D007EB4C60398B0274302AF582C03B
:201A3D0007C006C004C003121B76E582D003D004F5287D018B768C77900064C005122EC527
:201A5D00AB82AC83D005D006D007EEC39BFEEF9CFF75760A7577008E828F83C007C006C067
:201A7D0005122E19AB82AC83D005D006D007ED7004EB4C60338B0574302DF582C007C0067D
:201A9D00C004C003121B76E582D003D004F5298B768C7790000A122EC5AC82AD83D006D02C
:201ABD0007EEC39CFEEF9DFF74302EF582121B76E582F52AAF287E0074804EF5828F831288
:201ADD001B30AF297E0074804EF5828F83121B30AF2A7E0074804EF5828F83021B30AF8280
:201AFD00E52C6008AE2B74402EFE8002AE2B8E82C007121D7FAD827E008E8274014DF583C0
:201B1D00121B30D0078F067F0074804FF5828E83021B30AE82AF834306208E828F83C00794
:201B3D00C006121D4BD006D0075306DF8E828F83C007C006121D4BD006D007E4BE0004BF28
:201B5D00800104FF7D007E038D038E041DBDFF011EEB4C6003EF70F022AF82BF2600500358
:201B7D00021D47EF24855003021D47EF24DAFF240A83F582EF245983F583E4733F474747AB
:201B9D00473B4747474713171B1F23272B2F333747434747474747434B535B636B737B83B0
:201BBD008B939BA3ABB3BBC3CBD3DBE3EBF3FB030B474747474747474F575F676F777F8744
:201BDD008F979FA7AFB7BFC7CFD7DFE7EFF7FF070F1D1D1D1D1D1D1D1D1D1D1D1D1D1D1D76
:201BFD001D1D1D1D1D1D1D1D1D1D1D1D1C1C1C1C1C1C1C1C1C1C1C1C1C1C1C1C1C1C1C1C3C
:201C1D001C1C1C1C1D1D1D1D1D1D1D1D1C1C1C1C1C1C1C1C1C1C1C1C1C1C1C1C1C1C1C1C1F
:201C3D001C1C1C1C1D1D758282227582862275824222758246227582C2227582C622758238
:201C5D002222758226227582A2227582A62275826222758266227582E2227582E62275827F
:201C7D00122275821622758292227582962275825222758256227582D2227582D6227582DF
:201C9D003222758236227582B2227582B62275827222758276227582F2227582F6227582BF
:201CBD000A2275820E2275828A2275828E2275824A2275824E227582CA227582CE227582DF
:201CDD002A2275822E227582AA227582AE2275826A2275826E227582EA227582EE227582BF
:201CFD001A2275821E2275829A2275829E2275825A2275825E2275820C2275828C2275823F
:201D1D004C227582CC2275822C227582AC2275826C227582EC2275821C2275829C227582DE
:201D3D00D422758264227582E02275820422AE82AF837D048DF005F07B017C008006EB2B14
:201D5D00FBEC33FCD5F0F7EE5203EF5204EB4C24FF9295D293C2930DBD100040D7D292C2BA
:201D7D009222AF827E007D008DF005F07B80E4FC3392D28008A2D2EC13FCEB13FBD5F0F5D8
:201D9D008F017A00E95203EA5204EB4C60067B017C0080047B007C008D048CF005F0EB8021
:131DBD000225E0D5F0FB8E044CFE0DBD080040B88E822274
:0800C600753800E4F539F53A44
:201DD000C020C0E0C0F0C082C083C007C006C005C004C003C002C001C000C0D075D000123B
:201DF0002A28AE82AF83759BFC759AD07538FF74012539F539E4353AF53AC3E5399EE53A67
:201E10009F401A740B2EFCE43FFDC3E5399CE53A9D500AE539FDC39E242DF8A699C298D02F
:201E3000D0D000D001D002D003D004D005D006D007D083D082D0F0D0E0D02032C0E0E53931
:201E5000453A701AF538F52DF52EF52F753000753100753200753300753400753500E4F50D
:091E700039F53A5391EFD0E0324C
:2000CE00753B00754000754100754200754300754F01E4F550F551F552755301F554F555B1
:0200EE00F556C5
:201E7900AC82AD83AEF0FF758210C007C006C005C0041228C8E582D004D005D006D0076012
:201E990003021FDE75820EC007C006C005C0041228C8AB82D004D005D006D007BB0002804A
:201EB90009BB0103021F7D0224A4AB35BB14004057BB9400500C8B02EA24EC25E0F58202E3
:201ED9002438E536FA24F5502B8B82C007C006C005C004C0021220AF858244D002D004D05D
:201EF90005D006D007EA24FBF5458C828D838EF0EF0220F48B821220AF8582447545FF90B1
:201F19000001E4F5F00220F4E534FB60417A00EB2BFBEA33FA741CC39BFB74029A8B76F582
:201F3900773395E0F578F5798C828D838EF0EF122E4285823C85833D85F03EF53FE53C45AC
:201F59003D453E453F700AE53BF4F53B8003753BFFE53B600C85318285325785335802242C
:201F7900ED0224A4AB2EBB14004057BB9400500C8B02EA24EC25E0F582022438E52FFA2414
:201F9900F5502B8B82C007C006C005C004C0021220AF858244D002D004D005D006D007EA95
:201FB90024FBF5458C828D838EF0EF0220F48B821220AF8582447545FF900001E4F5F002C0
:201FD90020F40224A4758203C007C006C005C0041228C8E582D004D005D006D00760317535
:201FF9008203C007C006C005C0041228C8AB82758204C0031228C8858245D003D004D00576
:20201900D006D0078B448C828D838EF0EF0220F4758208C007C006C005C0041228C8AB8246
:20203900D004D005D006D007EB60397A00EB2BFBEA33FA741CC39BFB74029A8B76F5773372
:2020590095E0F578F5798C828D838EF0EF122E42AC82AD83AEF0FFEC4D4E4F700AE53BF4AB
:20207900F53B8003753BFFE53B60287582051228C8AF82758206C0071228C8AE827582071A
:20209900C0061228C8858258D006D0078E578F820224ED0224A4AF82BFB400500475822170
:2020B90022BFBE00500475820122BFC800500475820222BFD200500475820322BFDC005018
:2020D9000475820422BFE600500475820522BFF000500475820622758245228582468583DA
:2020F9004785F048F549E4F54AF54BF54CF54DF54EE545C313FE7D007485C39EFEE49DFD0B
:202119008E76EDF5773395E0F578F5798546828547838548F0E549122E42AC82AD83AEF0C1
:20213900FFEC4D4E4F7013754EFF1224B085824A85834B85F04CF54D05407401B5440280AA
:20215900427402B5440280417403B5440474018001E4FF600302224D7404B5440302224DEC
:202179007405B5440302224D7406B544030223117421B544030223737445B544030223763B
:20219900022435854082022438E54E70012274C92541400C754137AD437E004305018D43FD
:2021B900E54330E00E74FFB541055343FE80200541801CAD417E001DBDFF011EBD370EBE18
:2021D900000BAD437E004305018D4380021541E5410303543FFE8E767577007578007579F4
:2021F90000854A82854B83854CF0E54D122E42AB8275760DE4F577F578F579854A82854B3C
:2022190083854CF0E54DC003122E42AA82AC83ADF0FED003EA4C4D4E700CC3740195ADE476
:2022390033FD7E0080047D007E008D588B578541820224EDE54E700122E54330E014AE4135
:2022590074022EF541C3944B501F5343FE7541FF8017E541FE24FEF541247D400CAD437EC3
:20227900004305018D43754182757615E4F577F578F579854A82854B83854CF0E54DC0076B
:20229900122E42AB82AC83ADF0FED007EB4C4D4E7015E54330E4055343EF8028AD437E00A2
:2022B9004305108D43801DE54330E40D054274DE25425010754222800B1542E54224DB5066
:2022D90003754200EF600C8542578541588542820224ED7404B5440C85415775580085420A
:2022F900820224ED7405B544028001228542578541588541820224EDE54E70012275765978
:20231900E4F577F578F579854A82854B83854CF0E54D122E42AC82AD83AEF0FFEC4D4E4F8F
:2023390070057541FF8027E541243750041541801DE541247D5009E541FF24FEF541800EC0
:20235900E541FF24FDF541243750037541008541578541588541820224ED02249874E025B7
:202379004040398540F005F07C007D007E007F80800DC3EF13FFEE13FEED13FDEC13FCD54E
:20239900F0F0EC54BA700FED54B8700AEE543B7005EF54EE60030224980224A474C02540B1
:2023B900403DE54024E0FF8FF005F07F007E007D007C80800DC3EC13FCED13FDEE13FEEF3F
:2023D90013FFD5F0F0EF5438700FEE54BA700AED54B87005EC542860030224980224A47478
:2023F900AD25404033E54024C0FF8FF005F07F007E007D007C80800DC3EC13FCED13FDEE17
:2024190013FEEF13FFD5F0F0ED54B87005EC54EB60030224980224A4754000220224A4AF08
:2024390082BF5500501AEF75F003A4F5828F06EE75F003A4D394FFF4F5577558000224EDFC
:20245900BFAA00501F8F06EE24ABFEFDED75F003A4D394FFF4F582EE75F003A4F558755761
:20247900000224EDEF2456FF75F003A4F557EF75F003A4D394FFF4F5587582000224ED754F
:2024990057FF7558FF7582FF0224ED7557007558007582000224EDE553254FF553E55435F3
:2024B90050F554E5553551F555E5563552F556E553C3954FF54FE5549550F550E5559551AD
:2024D900F551E5569552F5528553828554838555F0E55622AF827EFF758210C007C0061203
:2024F90028C8E582D006D007701475820EC007C0061228C8E582D006D0077002AE30BEFF86
:20251900098FBD8557AD8558B5227D007C008E768C778F828D83C006C004122EC5AF83D05E
:2025390004D0068FBDAD577F008E768C778D828F83C006C004122EC5AF83D004D0068FAD0A
:14255900AD587F008E768C778D828F83122EC5AF838FB52225
:0E00F000751C00E4F51DF51E751A00751B0049
:20256D00C020C0E0C0F0C082C083C007C006C005C004C003C002C001C000C0D075D0002088
:20258D00B714AF1A051AEF24F0500E1227B085821B751A008003751A00758C84758A5FD0BB
:2025AD00D0D000D001D002D003D004D005D006D007D083D082D0F0D0E0D020327582101252
:2025CD0028C8E58270045388EF22AE884306108E88E51BFF24F94051EF2F9025EB738049EB
:2025ED00800A800D8010801680238030756D018038756D008033758202122DC1802BE51C69
:20260D0070277582091228C812264C801CE51C701875820A1228C812264C800DE51C7009DD
:20262D0075820B1228C812264C7403B51C0D7403B51B028006758200122DC1851B1C22AF5D
:20264D00827E007D007C008E1FEF700122EF14FA8AF005F079017A008006E929F9EA33FA3D
:20266D00D5F0F7E9551DF8EA551EFB4860107EFFE9F4F8EAF4FBE8521DEB521E8006E942A0
:20268D001DEA421EEF24F35003022743EF240A83F582EF241183F583E47343C1CDD2D9DD1B
:2026AD00E3E8EF071F373B27262626262626262627272727756901756A0075820302295C89
:2026CD007DFF0227447DFF7CFF0227447CFF80677CFF8C1F8061751FFF805C751FFF7DFFB9
:2026ED008055EE60067B007F0080047B017F008B6A75690075820802295CEE60067B007F84
:20270D000080047B797F008B6A75690075820802295CEE60067B007F0080047BFF7F008B06
:20272D006A75690075820802295C7EFF80097DFF7CFF8D1F800122756900756A00758203BB
:20274D00C006C005C00412295CD004D005D006EE60067B007F0080048D037F008B6A756953
:20276D0000758205C006C00412295CD004D006EE60067D007F0080048C057F008D6A7569CC
:20278D0000758206C00612295CD006EE60067E007F008004AE1F7F008E6A75690075820707
:2027AD0002295C7F00C00712281CAE82D007EE70038E82228FF005F07C017D008006EC2C43
:2027CD00FCED33FDD5F0F7EC54577005ED54056009BE0102800D75820022BE02028004753A
:2027ED008200220FBF0C0040BC7F0D8F061F8F05EE6016C007C00512281CAE82D005D0075C
:20280D00EE7003F58222BE02E2EDC313F582227EB87F0B8E048F051EBEFF011FEC4D600336
:20282D0030B7F0EE4F7003F582227E007F007CB87D0B8C028D031CBCFF011DEA4B600A30D0
:20284D00B7070EBE00EC0F80E9EC4D7003F58222C374E99EE49F50067E027F0080047E019F
:05286D007F008E8222B5
:20287200E582C454F0FFE576700375E4A07401B5760474018001E4FE7D00EE6014EF2D2476
:2028920000F582E43401F583ED2459F9E7FCF08012ED2459F9EF2D2400F582E43401F583AB
:2028B200E0FCF70DBD100040D1EE600975E49075E4C000000022AF82BF100774805559F52F
:2028D2008222EF2459F98706EF24F15003022959EF240A83F582EF241383F583E4730E21B7
:2028F200212959595959593939395959492929292929292929292929292929298E057F00A0
:20291200747F5DF5828F837576038F77022F4BEE70027E018E82228E057F007576078F7741
:202932008D828F83022F4B8E057F0075760D8F778D828F83022F4B8E057F007576038F7735
:202952008D828F83022F4B8E8222AF8274805559FE7401B5690280077402B56916800AEF86
:202972002459F9E7FD04F7802AEF2459F9E7FD14F78020BF1017E56A600BAC597D004304E9
:20299200808C59800E747F5559F5598006EF2459F8A66AEF7024EE6013EF2459F9EF245994
:2029B200F886067D00430680A706800EEF2459F9EF2459F88607747F5FF77576017582007E
:2029D200022872AF82C007122A28AD82AE83D007BF011274FE2E50067D017E00801A0DBD8E
:2029F20000160E8013C374019DE49E40067D007E0280051DBDFF011E8D6A75690075820D1E
:202A1200C006C00512295CD005D0068E6A75690075820C02295CAF657E00AC667D00EC4E1C
:072A3200F582ED4FF5832250
:203FC0008206090000000000000B0C0A000100008206090000000000000B0C0A000100007B
:203FE0008206090000000000000B0C0A000100008206090000000000000B0C0A000100005B
:1200FE00757000757100757500756D00756E04756F018D
:202A390075820012045AAE82AF83C3EE94A0EF94005005536E7D8029C374B99EE49F50109F
:202A5900AC6E4304028C6E7D004304808C6E8011C374AF9EE49F5009AE6E7F004306808EDF
:202A79006EE56E30E406D2B4D2B3800FE56E035401FF24FF92B4EF24FF92B320A61874010B
:202A9900B56F0EAF700570EF24DD501F756F00801A7570008015E56F700EAF700570EF2487
:202AB900DD5008756F01800375700075820F1228C8E5827028E56F7013E571F4F571600687
:202AD900C290D2A0801BD290D2A08015E56E30E706C290D2A0800AD290C2A08004D290D2DB
:202AF900A07582101228C8E5826003022CCAE5387003022CC5756D01757401758200122ECB
:202B19000875820E1228C8E5827057AF2DBF14005005756D008014BF640050047F04800B60
:202B3900BFC80050047F0280027F01EFB5740280028F74E52EFFB5720280088F7285726B59
:202B5900756CFFE52FFFB5730280058F73756D02748025374003022D10758201122E0802C0
:202B79002D10AF2DBF14005006756D00022D10BF280050197403B57208740DB57303022D08
:202B99001075720375730D756D02022D10BF3C0050197403B572087415B57303022D107598
:202BB9007203757315756D02022D10BF500050197403B572087422B57303022D107572035F
:202BD900757322756D02022D10BF640050197403B572087437B57303022D10757203757396
:202BF90037756D02022D10BF780050197408B572087415B57303022D1075720875731575C3
:202C19006D02022D10BF8C0050197408B572087422B57303022D10757208757322756D02B1
:202C3900022D10BFA00050197408B572087437B57303022D10757208757337756D02022D93
:202C590010BFB40050197408B572087459B57303022D10757208757359756D02022D10BF7B
:202C7900C80050197408B572087490B57303022D10757208757390756D02022D10BFDC00CC
:202C990050177415B572077437B573028069757215757337756D02805EE5727004E57360DF
:202CB90056757200757300756D02804B756D0280467582001228C8AF828FF005F0740180EA
:202CD9000225E0D5F0FBFFB5740280058F74756D027582011228C8E582FFB5720280058FE1
:202CF90072756D027582021228C8E582FFB5730280058F73756D027402B56D09756D008567
:202D1900736B756C00E56D7003022DBB05757582101228C8E582701EE5726004E57370161B
:202D39008574F0E57584E5F07006758201022DC1758200022DC1AE757F007576088F778E70
:202D5900828F83122F4BE5828583F045F07002156BE56B702EE56C70057E01FF80047E0080
:202D79007F008E82122DC1E56C7004AF728002AF738F6BE56C70057EFFFF80047E007F0064
:202D99008E6C22E56C7005F582022DC18574F0E57584E5F07006758201022DC175820002DE
:202DB9002DC1758200022DC1AF82BF0102800ABF0202801FBF03358030E56F6013AE6E5369
:202DD90006807F00BE8009BF0006C2A5536EFD22D2A522AE6E5306807F00BE8009BF000669
:202DF900C2A5536EFD22D2A522C2A522D2A522AF82BF0108AE6E4306108E6E22536EEF225A
:202E19007A10E4FBFCE58225E0F582E58333F583EB33FBEC33FCEB9576F5F0EC95774006F1
:092E3900FCABF0438201DADD225A
:202E4200F9E57645774578457960777800C308E57920E73BE57625E0F576E57733F577E580
:202E62007833F578E57933F579E5829576E5839577E5F09578E9957950D4C3E57913F579B4
:202E8200E57813F578E57713F577E57613F576E5829576FCE5839577FDE5F09578FEE99562
:202EA200794007F98EF08D838C82C3E57913F579E57813F578E57713F577E57613F576D8B0
:032EC200CEE92234
:06007800E478FFF6D8FD5C
:200056007900E94400601B7A00903254780175A000E493F2A308B8000205A0D9F4DAF275CA
:02007600A0FFE9
:1D2EC500E5828576F0A4C582C0F08577F0A4D0F025F0C5838576F0A42583F5832285
:202EE200E576457760467A01E57625E0F576E577334012F577E5829576E583957740030A4D
:202F020080E6C3E57713F577E57613F576C3E5829576F5F0E58395774005F58385F082C3CD
:0D2F2200E57713F577E57613F576DAE12211
:20007E007800E84400600A790175A000E4F309D8FC7800E84400600C7900900001E4F0A380
:04009E00D8FCD9FAB7
:0D00490075817A122F81E582600302004666
:1C2F2F0020F71430F6148883A88220F507E6A88375830022E280F7E49322E022B1
:202F4B00C2D5E58330E70DD2D5E4C39582F582E49583F583E57730E70BE4C39576F576E474
:162F6B009577F577122EE230D50BE4C39582F582E49583F58322DB
:042F81007582002233
:00000001FF
