:04000000020049327F
:03000B0002240FBD
:0100130032BA
:01001B0032B2
:03002300021D5665
:01002B0032A2
:01003300329A
:01003B003292
:03004300021DD2C9
:03011000020046A4
:03004600020113A1
:2001130075BF5075B721D2AFD2A375E63F75E5C075720075820012271475D909D2B4D2B3C4
:200133001228DBC293C295C292903C00121AB6901E00121AB6908000121AB6903000121A7B
:20015300B6900200121AB6900080121AB6900080121AB6907080121AB6905080121AB6904A
:200173005080121AB6907080121AB6900080121AB6900080121AB6900080121AB690108062
:20019300121AB6903080121AB6907080121AB6903080121AB6901080121AB6900080121A86
:2001B300B690F880121AB6900080121AB6900080121AB6900080121AB6900080121AB69034
:2001D3000080121AB6900080121AB690F880121AB690F880121AB6900080121AB6900080E2
:2001F300121AB6900080121AB6900080121AB690F880121AB690F880121AB690F880121A1E
:20021300B690F880121AB6900080121AB690F880121AB690F880121AB690F880121AB690EB
:20023300F880121AB690F880121AB690F880121AB690F880121AB6902080121AB690708001
:20025300121AB6900080121AB6905080121AB6907080121AB6905080121AB6900080121A95
:20027300B690F880121AB690F880121AB6900080121AB6900080121AB6905080121AB6902B
:200293007080121AB6905080121AB6900080121AB6900080121AB6900080121AB690C08091
:2002B300121AB690D880121AB6900080121AB6900080121AB6908880121AB6907080121A75
:2002D300B6900080121AB61204EBAE8E4306088E8E758900D2A91223C875D34875D4027CEC
:2002F300DD7D8A7E147F008C008D018E028F031CBCFF091DBDFF051EBEFF011FE8494A4B3B
:2003130070E5D29FD29ED29DD29C75CAFD75CBFFD2CDD2CCC2CBD2CAC2C9C2C8759BFC7540
:200333009AD0AAE84302018AE8D2ACC2A3758201C007C006C005C004122CCAD004D005D084
:2003530006D007757290E4F573F574F5758C828D838EF0EFC007C006C005C004122D04A88B
:2003730082A983AAF0FBD004D005D006D007E8494A4B7013C007C006C005C0041228DBD08D
:2003930004D005D006D007757259E4F573F574F5758C828D838EF0EFC007C006C005C004C4
:2003B300122D04A882A983AAF0FBD004D005D006D007E8494A4B7013C007C006C005C00447
:2003D30012246BD004D005D006D007757203E4F573F574F5758C828D838EF0EFC007C006F2
:2003F300C005C004122D04A882A983AAF0FBD004D005D006D007E8494A4B7013C007C00607
:20041300C005C0041204EBD004D005D006D0078C008D018E028F030CBC00090DBD00050EFF
:20043300BE00010F888289838AF0EBC007C006C005C004121DFFD004D005D006D0070203C1
:010453005652
:20045400858272E4F573F574F575F576FAE5726007D29775DA888005D29475DA817908E968
:2004740014F970FBE5DA30E4FBA8DB7900E828F8E933F9E828F8E933F9AFDC7E00E84207B2
:20049400E9420653DA7F8E04E4FDFEEF2573F573EC3574F574ED3575F575EE3576F5760AFE
:2004B400BA200040A8AC73E574C403CCC40354076CCC5407CC6CCCFDE575C40354F84DFDEE
:1704D400AE75E576C403CEC40354076ECE5407CE6ECE8C828D8322FB
:1E00A200750B007510007512007513007514007515007516007508457509FF750AFFD1
:2004EB00121622AF82E4BF050104FE7003BF0B21EE60067D027E0080047D037E008D82C0CB
:20050B0007122C83D007AD0B7E004305808D0B8012E50B30E70D758200C007122C83D0079F
:20052B00530B7FBF0734758210C00712276AAE82D007BE80067D007E0080047D807E008D96
:20054B0066756500758210C0071227FE7508007509FF7569021228DBD007BF01107401B58B
:20056B00690575690280037569010228DBBF0802800302061675820F12276AE582F4F566F2
:20058B0075650075820F1227FE908000121AB675820F12276AE582601775210F752200750F
:2005AB002300752400902E4775F080121863801575210F752200752300752400902E577571
:2005CB00F08012186375210F752200752301752400902E6675F080121863750CB5750DD87F
:2005EB00750E07750F00A80CA90DAA0EAE0F150C74FFB50C0C150DB50D07150EB50E0215BA
:20060B000FE8494A4E70DF7509FF22BF090280030206C6747F550BFE908000C006121AB6E5
:20062B00D0068E047D007572038D738C828D83C006122E0DE582FC2CFC2428F582C004128B
:20064B001419AA82AB83ADF07521107522007523007524008A828B838DF0121863D0047491
:20066B00292CF582121419AB82AC83ADF07521107522007523017524008B828C838DF01251
:20068B001863D006EE04547F420B750CDD750D8A750E14750F00A80CA90DAA0EAE0F150C67
:2006AB0074FFB50C0C150DB50D07150EB50E02150FE8494A4E70DF7509FF22BF04067508FB
:2006CB00007509FFE509702DBF03028028BF1E028023BF1F02801EBF0A028019BF64028092
:2006EB0014BF6502800FBF0C02800ABF02028005E508600122AE08BE0103020794BE02033F
:20070B0002079EBE0303020799BE04030207A3BE05030207A8BE06030207ADBE070302078B
:20072B00ADBE08030207ADBE09028076BE0A028076BE0B028071BE0C02806CBE0D02806CD6
:20074B00BE0E028067BE14028067BE15028067BE4569908000121AB675211075220175232E
:20076B0000752400902E7675F080121863752110752200752301752400902E8575F0801286
:20078B0018637509FF750800228F82020AA58F82020BF18F82020CA68F82020D5B8F820293
:2007AB000E0D8F82020EEA8F820210108F820211348F820212518F820212D5C0071207E647
:2007CB00D007BF0209751700758201021377BF0C0975170075820202137722E509700302F3
:2007EB0008CD908000121AB6750900750AFF7510FF751155E56B7033E56A30E72E7521109F
:20080B00752201752300752400902E9575F080121863752110752200752301752400902E12
:20082B00A475F0801218637512FF22E512600C7401B56B067512007509FF2275821012278B
:20084B006AE5826017752110752201752300752400902EB475F08012186380661228CA7593
:20086B00250475260175270012192775820E12276AAF82BF01028005BF020A80047F038049
:20088B00067F0180027F0A7E0075250C7526018E278F828E8312192775210475220075230A
:2008AB0001752400902EC075F080121863752104752209752301752400902EC575F08012BD
:2008CB00186305137401B56955E5157008AE14FF4306208E14E5687016E51430E535752B9E
:2008EB000E752C00758280121A815314DF802474B7B5130E752B0E752C00758280121A81BC
:20090B008011743FB5130C752B0E752C00758204121A81AE147F004306108E14802E74015E
:20092B00B51509AE147F004306108E14E51430E418752B0E752C00758204121A81AE147F40
:20094B00004306208E145314EF751500E56A30E716E51430E049752B0F752C00758260121A
:20096B001A815314FE8038E513702BE51430E111752B0F752C00758204121A815314FD802A
:20098B0015752B0F752C007582A0121A81AE147F004306028E14AE147F004306018E1475D3
:2009AB00821012276AE5826003020A45E5366028E50A30E749752106752201752300752485
:2009CB0000902ECA75F080121863AE0A7F004306408E0A530A7F8026E50A30E62175210676
:2009EB00752201752300752400902ED175F080121863AE0A7F004306808E0A530ABFE56722
:200A0B00FFB51001228F057E007525078E268E278D828E83C007121927D007E56870057D79
:200A2B0092FE80047D227E008D82752B0B752C00C007121A81D0078F1022E568FFB51102FF
:200A4B008037EF7019752109F522752301F524902ED875F080C007121863D007801975211F
:200A6B0009752200752301752400902EE175F080C007121863D0078F11E567FFB510012217
:200A8B008F057E0075250C7526018E278D828E83C007121927D0078F1022AF82E5096025CD
:200AAB00750900750AFF908000C007121AB675210A752203752300752400902EEA75F0807E
:200ACB00121863D007E50A7003020BAA750A00758200C00712276AAE82D007BE020280372E
:200AEB00BE0473758202C007121419AC82AD83AEF07521107522037523017524008C828DAE
:200B0B00838EF0121863752B0C752C01758240121A81D007020BAA758201C007121419ACD2
:200B2B0082AD83AEF07521107522037523017524008C828D838EF0121863752B0C752C0171
:200B4B00758240121A81752B0D752C017582C0121A81D0078049758200C007121419AC8228
:200B6B00AD83AEF07521107522037523017524008C828D838EF0121863752B0C752C01753E
:200B8B008240121A81752B0D752C017582C0121A81752B0E752C01758220121A81D007BF7E
:200BAB000202802FBF0302800ABF0A028015BF0C3480297565017566007582001227FE75C8
:200BCB000AFF227565027566007582001227FE750AFF227517007582010213777517007549
:200BEB00820202137722AF82E509603A750900750AFF908000C007121AB675210D7522020E
:200C0B00752300752400902EF475F080121863752108752208752301752400902F0175F0E0
:200C2B0080121863D007E50A6020750A00758202C00712276AAE827D007525047526018D00
:200C4B00278E828D83121927D007BF02028039BF03028014BF0A02801FBF0C028033BF1F7D
:200C6B00028005BF653480107565017566007582021227FE750AFF227565027566007582C6
:200C8B00021227FE750AFF2275170075820102137775170075820202137722AF82E50960AE
:200CAB003A750900750AFF908000C007121AB675210D752202752300752400902F0975F0A0
:200CCB0080121863752108752208752301752400902F0175F080121863D007E50A602075A0
:200CEB000A00758201C00712276AAE827D007525047526018D278E828D83121927D007BFDA
:200D0B0002028039BF03028014BF0A02801FBF0C028033BF1F028005BF65348010756501A1
:200D2B007566007582011227FE750AFF227565027566007582011227FE750AFF22751700EC
:200D4B0075820102137775170075820202137722AF82E5096025750900750AFF908000C061
:200D6B0007121AB6752107752206752300752400902F1675F080121863D007E50A60327500
:200D8B000A00758203C00712276AAE8274142EF582121419AC82AD83AEF075211075220302
:200DAB007523017524008C828D838EF0121863D007BF02028039BF03028014BF0A02801FB8
:200DCB00BF0C028033BF1F028005BF653480107565017566007582031227FE750AFF22753F
:200DEB0065027566007582031227FE750AFF2275170075820102137775170075820202132B
:200E0B007722AF82E5096025750900750AFF908000C007121AB675210C752203752300758C
:200E2B002400902F1D75F080121863D007E50A605D750A00758204C00712276AE582D00790
:200E4B00701A752110752203752301F524902F2975F080C007121863D00780327521107546
:200E6B002203752301752400902F2D75F080C00712186375820412276AAE827D0075250600
:200E8B007526018D278E828D83121927D007BF02028039BF03028014BF0A02801FBF0C02A3
:200EAB008033BF1F028005BF653480107565017566007582041227FE750AFF22756502754E
:200ECB0066007582041227FE750AFF2275170075820102137775170075820202137722AFDD
:200EEB00827E00AD08BD0602800FBD07028012BD08028009BD0910800C7E05800A7E0680C3
:200F0B00067E0780027E08E5096039750900750AFF908000C007C006121AB6AD0874C82D13
:200F2B00F582121419AB82AC83ADF07521107522037523007524008B828C838DF012186360
:200F4B00D006D007E50A606E750A008E82C007C00612276A12276AE582D006D007701E75A3
:200F6B002110752206752301F524902F2975F080C007C006121863D006D0078039752110F3
:200F8B00752200752301752400902F2D75F080C007C006121863D0068E82C00612276AAD96
:200FAB00827C007525067526018C278D828C83121927D006D007BF02028037BF030280144A
:200FCB00BF0A02801EBF0C028031BF1F028005BF6532800F7565017566008E821227FE7563
:200FEB000AFF227565027566008E821227FE750AFF2275170075820102137775170075828A
:20100B000202137722AF82AE087410C39EFE7D00AC08BC0A02800ABC0B028009BC0C0C8022
:20102B00087D0980067D0A80027D0BE509607C750900750AFF908000C007C006C005121AAC
:20104B00B6752110752201752300752400902F2E75F080121863D005D006D007BE0402803B
:20106B000ABE0502801BBE0642802C752B08752C0075822CC007C005121A81D005D0078078
:20108B002A752B08752C007582ACC007C005121A81D005D0078014752B08752C0075826C0A
:2010AB00C007C005121A81D005D007E50A6035750A008D82C007C00512276AAE82743C2EF1
:2010CB00F582121419AB82AC83AEF07521107522047523017524008B828C838EF0121863BB
:2010EB00D005D007BF0202802DBF0302800ABF0A028014BF0C3280277565017566008D82B3
:20110B001227FE750AFF227565027566008D821227FE750AFF2275170075820102137775CB
:20112B00170075820202137722AF82E5096049750900750AFF908000C007121AB6D007741E
:20114B000DB5081B75210E752202752300752400902F3E75F080C007121863D00780197516
:20116B00210E752202752300752400902F4C75F080C007121863D007E50A602E750A0075DF
:20118B00F003E5168485F082C007121419AC82AD83AEF07521107522067523017524008CD8
:2011AB00828D838EF0121863D007BF020302123FBF03028073BF0A028074BF0C03021248F9
:2011CB00BF1E0280012275F003E51684AFF0740DB508067D017E0080047D007E008D728FAF
:2011EB0082122714752110752200752301752400902F2D75F080121863740DB5081575215F
:20120B0010752206752301752400902F5A75F0800218637521107522067523017524009064
:20122B002F6175F0800218630516750AFF221516750AFF227517007582010213777517008F
:20124B00758202021377AF82BF0202802FBF03028014BF0A02801ABF0C028029BF1F0280C8
:20126B0005BF652A800B758201122877750AFF801D758202122877750AFF80127517007506
:20128B008201021377751700758202021377E5096021750900750AFF908000121AB6752130
:2012AB000C752202752300752400902F6975F080121863E50A6012750A001228CA75250431
:2012CB0075260175270002192722AF82BF02028031BF0302800ABF0A028016BF0C36802B67
:2012EB0075650175660075820E1227FE750AFF802375650275660075820E1227FE750AFF5F
:20130B008012751700758201021377751700758202021377E5096021750900750AFF908094
:20132B0000121AB6752111752200752300752400902F7575F080121863E50A602E750A00AF
:20134B0075820E12276AAF8274642FF582121419AD82AE83AFF075211075220175230175A1
:20136B0024008D828E838FF002186322AF827509FFBF01028008BF0202803D0213FC8508EA
:20138B001775821012276AE5827017E51770067517140214110517E51724EA5069751700EF
:2013AB008064E5177005751701805B0517E51724F15053750800804E850817758210122766
:2013CB006AE5827016E51770057517158038150874EC25084030750800802BE517700575B9
:2013EB00170E8022150874EB2508401A7508008015E51724F1500C74EC25175009E5172484
:20140B00EA40037517008517082285088222AF828F06BE0003021518BE0103021511BF02B0
:20142B000302150ABF140302151FBF1503021526BF160302152DBF1703021534BF18030241
:20144B001542BF1903021549BF1A0302153BBF28030215F1BF29030215F8BF2A030215FFD3
:20146B00BF2B03021606BF2C0302160DBF2D03021614BF3C0302156CBF3D03021573BF3E21
:20148B000302157ABF3F03021581BF4003021588BF410302158FBF4203021596BF43030212
:2014AB00159DBF44030215A4BF45030215ABBF46030215B2BF47030215B9BF48030215C05A
:2014CB00BF50030215C7BF51030215CEBF52030215D5BF64030215DCBF65030215E3BF66BA
:2014EB00030215EABFCE03021550BFCF0302155EBFD003021557BFD10302156502161B900E
:20150B002F8675F08022902F8C75F08022902F9175F08022902F2975F08022902F9875F0B0
:20152B008022902FA075F08022902FA575F08022902FAB75F08022902FB175F08022902F86
:20154B00B675F08022902FBC75F08022902FC675F08022902FD275F08022902FDD75F0809C
:20156B0022902FEA75F08022902FF475F0802290300175F0802290300575F0802290300C74
:20158B0075F0802290301275F0802290301775F0802290301C75F0802290302475F08022B4
:2015AB0090303075F0802290303E75F0802290304A75F0802290305375F0802290305C7568
:2015CB00F0802290306375F0802290306A75F0802290307175F0802290307875F08022900C
:2015EB00308675F0802290308C75F0802290309B75F080229030AA75F080229030BB75F01D
:17160B0080229030CC75F080229030DD75F0802290000075F00022D8
:202E470054616E6B204C6967687473204F66660054616E6B204C6967687473204F6E0046DB
:202E6700756E2B4D616E20746F20556E646F0041746D6F7346454152203232314200427994
:202E870020426C697A7A6172642050726F005043204C6F6164204C6574746572004275728C
:202EA700737420746F20526566696C6C004D616E75616C204D6F64650041646472004D6F69
:202EC700646500444D58204F6B004E6F20444D5800496E74657276616C00447572617469EB
:202EE7006F6E00466F67204C6576656C00466F6720496E74657276616C005365636F6E64DD
:202F07007300466F67204475726174696F6E004D6163726F73004D6163726F2053706565B1
:202F270064004F6666000052656D6F7465205820416374696F6E005361766520536574745A
:202F4700696E6773004C6F61642053657474696E677300536176656421004C6F616465646B
:202F67002100444D58204164647265737300444D58204368616E6E656C204D6F646500579C
:202F8700696D7079004D696C6400426C617A696E005261696E626F77004669726500576175
:202FA7007465720053746F726D004163696400457468657200526564204C6576656C0047C7
:202FC7007265656E204C6576656C00426C7565204C6576656C005374726F6265204C6576D2
:202FE700656C004E6F20416374696F6E0043686F6F7365204D6163726F0052656400596572
:203007006C6C6F7700477265656E004379616E00426C7565004D6167656E746100537472F1
:203027006F626520536C6F77005374726F6265204D656469756D005374726F626520466168
:20304700737400426C61636B6F75740057686974656F757400536C6F74203100536C6F745F
:20306700203200536C6F74203300313020416C6C003320466F67202B204D6163726F00316B
:2030870020466F67003078343836463643364436353733002620353736313734373336462B
:2030A70036450036323646373436383446373736453431003533364536463737363236316D
:2030C70036433643003444364637323639363137323734373900363436463635373334454C
:0730E70036463734203B00A0
:0600C0007518007519001F
:20162200758201120454AE82AF837D00C3EE94A2EF9403402674FD2519501A74DE251940AB
:20164200147403B518028007740AB5180880047D0380027D0A751800751900C3747A9E7469
:20166200039F402574669E74039F501D7402B5181274FD2519400F051974FD251950077D72
:20168200028003751900751802C374489E74039F4029742F9E74039F50217403B518167474
:2016A200DE2519400C051974DE2519500B7D1E80077D1F8003751900751803C374AA9EE4F5
:2016C2009F4028748C9EE49F5021740AB5181674DE2519400C051974DE2519500B7D6480C8
:2016E200077D65800375190075180AC374019EE49F4021EE4F601D740CB5181274FD2519D5
:20170200400F051974FD251950077D0C800375190075180CC374989E74039F402574849EA3
:2017220074039F501D7401B5181274FD2519400F051974FD251950077D01800375190075AA
:201742001801C374129E74029F402574FE9E74019F501D7407B5181274FD2519400F051906
:2017620074FD251950077D078003751900751807C374C69E74029F402974A89E74029F5000
:20178200217405B5181674FD2519400C051974FD2519500B7D0580077D0580037519007596
:2017A2001805C374EA9E74019F402574CC9E74019F501D7408B5181274FD2519400F0519FC
:2017C20074FD251950077D088003751900751808C374B89E74019F402574A49E74019F50B6
:2017E2001D7409B5181274DE2519400F05197434251950077D098003751900751809C374D0
:201802002A9E74039F402574169E74039F501D7404B5181274FD2519400F051974FD2519B6
:2018220050077D048003751900751804C3748A9E74029F402974769E74029F5021740BB50D
:20184200181674FD2519400C051974FD2519500B7D0B80077D0B800375190075180B8D82E6
:011862002263
:20186300AD82AE83AFF07C00E5236008AB2274402BFB8002AB228B82C007C006C005C00461
:20188300121D05AA827B008B8274014AF583121AB6D004D005D006D0070521E524601690B9
:2018A3000080C007C006C005C004121AB6D004D005D006D0077B00C3EB9521400122EC70B9
:2018C30045EB2DF8E43EF98F02888289838AF0122DF1FA602D8A82C007C006C005C004C0DB
:2018E30003121AFCAA828A0189027900748049F5828A83121AB6D003D004D005D006D00733
:20190300801E7C01801A900480C007C006C005C004C003121AB6D003D004D005D006D00717
:201923000B0218BAAE82AF837D00752804752904752A0CC3EE94E8EF940340047EE77F031A
:20194300E5266008AC2574402CFC8002AC258C82C007C006C005121D05AB827C008C827452
:20196300014BF583121AB6D005D006D007E5276014900080C007C006C005121AB6D005D0D3
:2019830006D0078012900480C007C006C005121AB6D005D006D0077572647573008E828F39
:2019A30083C007C006C005122CDBAB82AC83D005D006D007EB4C60398B0274302AF582C0F6
:2019C30007C006C004C003121AFCE582D003D004F5287D018B728C73900064C005122D8764
:2019E300AB82AC83D005D006D007EEC39BFEEF9CFF75720A7573008E828F83C007C006C0EA
:201A030005122CDBAB82AC83D005D006D007ED7004EB4C60338B0574302DF582C007C00637
:201A2300C004C003121AFCE582D003D004F5298B728C7390000A122D87AC82AD83D006D068
:201A430007EEC39CFEEF9DFF74302EF582121AFCE582F52AAF287E0074804EF5828F83127D
:201A63001AB6AF297E0074804EF5828F83121AB6AF2A7E0074804EF5828F83021AB6AF826B
:201A8300E52C6008AE2B74402EFE8002AE2B8E82C007121D05AD827E008E8274014DF583B4
:201AA300121AB6D0078F067F0074804FF5828E83021AB6AE82AF834306208E828F83C00705
:201AC300C006121CD1D006D0075306DF8E828F83C007C006121CD1D006D007E4BE0004BF99
:201AE300800104FF7D007E038D038E041DBDFF011EEB4C6003EF70F022AF82BF26005003D3
:201B0300021CCDEF24855003021CCDEF24DAFF240A83F582EF245983F583E473C5CDCDCD03
:201B2300CDC1CDCDCDCD999DA1A5A9ADB1B5B9BDCDC9CDCDCDCDCDC9D1D9E1E9F1F901096A
:201B43001119212931394149515961697179818991CDCDCDCDCDCDCDD5DDE5EDF5FD050DFE
:201B6300151D252D353D454D555D656D757D858D951C1C1C1C1C1C1C1C1C1C1C1C1C1C1C19
:201B83001C1C1C1C1C1C1C1C1C1C1C1C1B1B1B1B1B1B1B1C1C1C1C1C1C1C1C1C1C1C1C1CC9
:201BA3001C1C1C1C1C1C1C1C1C1C1C1C1B1B1B1B1B1B1B1C1C1C1C1C1C1C1C1C1C1C1C1CA9
:201BC3001C1C1C1C1C1C758282227582862275824222758246227582C2227582C6227582B5
:201BE3002222758226227582A2227582A62275826222758266227582E2227582E6227582FA
:201C0300122275821622758292227582962275825222758256227582D2227582D622758259
:201C23003222758236227582B2227582B62275827222758276227582F2227582F622758239
:201C43000A2275820E2275828A2275828E2275824A2275824E227582CA227582CE22758259
:201C63002A2275822E227582AA227582AE2275826A2275826E227582EA227582EE22758239
:201C83001A2275821E2275829A2275829E2275825A2275825E2275820C2275828C227582B9
:201CA3004C227582CC2275822C227582AC2275826C227582EC2275821C2275829C22758259
:201CC300D422758264227582602275820422AE82AF837D048DF005F07B017C008006EB2B0F
:201CE300FBEC33FCD5F0F7EE5203EF5204EB4C24FF9295D293C2930DBD100040D7D292C235
:201D03009222AF827E007D008DF005F07B80E4FC3392D28008A2D2EC13FCEB13FBD5F0F552
:201D23008F017A00E95203EA5204EB4C60067B017C0080047B007C008D048CF005F0EB809B
:131D43000225E0D5F0FB8E044CFE0DBD080040B88E8222EE
:0800C600753600E4F537F5384A
:201D5600C020C0E0C0F0C082C083C007C006C005C004C003C002C001C000C0D075D00012B5
:201D760028CAAE82AF83759BFC759AD07536FF74012537F537E43538F538C3E5379EE5384F
:201D96009F401A74092EFCE43FFDC3E5379CE5389D500AE537FDC39E242DF8A699C298D0B2
:201DB600D0D000D001D002D003D004D005D006D007D083D082D0F0D0E0D02032C0E0E537AE
:201DD6004538701AF536F52DF52EF52F753000753100753200753300753400753500E4F58C
:091DF60037F5385391EFD0E032CB
:2000CE00753900753E00753F00754000754100754D01E4F54EF54FF550755101F552F553C9
:0200EE00F554C7
:201DFF00AC82AD83AEF0FF758210C007C006C005C00412276AE582D004D005D006D00760EC
:201E1F0003021F2075820EC007C006C005C00412276AAB82D004D005D006D007BB000280E1
:201E3F0009BB0103021EE00223C8AB34BB14004036BB9400500C8B02EA24EC25E0F58202FA
:201E5F0023668B82C007C006C005C004121FE5858242D004D005D006D0078535438C828D6A
:201E7F00838EF0EF02202AE533FB60417A00EB2BFBEA33FA741CC39BFB74029A8B72F57353
:201E9F003395E0F574F5758C828D838EF0EF122D0485823A85833B85F03CF53DE53A453BD4
:201EBF00453C453D700AE539F4F53980037539FFE539600A8530BD8531AD8532B522022306
:201EDF00C8AB2EBB14004036BB9400500C8B02EA24EC25E0F5820223668B82C007C006C06A
:201EFF0005C004121FE5858242D004D005D006D007852F438C828D838EF0EF02202A022352
:201F1F00C8758203C007C006C005C00412276AE582D004D005D006D0076031758203C00718
:201F3F00C006C005C00412276AAB82758204C00312276A858243D003D004D005D006D0078F
:201F5F008B428C828D838EF0EF02202A758208C007C006C005C00412276AAB82D004D00530
:201F7F00D006D007EB60397A00EB2BFBEA33FA741CC39BFB74029A8B72F5733395E0F57400
:201F9F00F5758C828D838EF0EF122D04AC82AD83AEF0FFEC4D4E4F700AE539F4F5398003DC
:201FBF007539FFE539601C75820512276A8582BD75820612276A8582AD75820712276A85DE
:201FDF0082B5220223C8AF82BFB400500475822122BFBE00500475820122BFC8005004752F
:201FFF00820222BFD200500475820322BFDC00500475820422BFE600500475820522BFF049
:20201F00005004758206227582452285824485834585F046F547E4F548F549F54AF54BF56E
:20203F004CE543C313FE7D007485C39EFEE49DFD8E72EDF5733395E0F574F5758544828546
:20205F0045838546F0E547122D04AC82AD83AEF0FFEC4D4E4F7013754CFF1223D285824805
:20207F0085834985F04AF54B053E7401B5420280427402B5420280417403B54204740180E7
:20209F0001E4FF600302217C7404B5420302217C7405B5420302217C7406B5420302223A46
:2020BF007421B5420302229A7445B5420302229D022363853E82022366E54C70012274C9E7
:2020DF00253F400C753F37AD417E004305018D41E54130E00E74FFB53F055341FE802005DC
:2020FF003F801CAD3F7E001DBDFF011EBD370EBE000BAD417E004305018D418002153FE57B
:20211F003FF5BD0303543FFE8E72757300757400757500854882854983854AF0E54B122D8F
:20213F0004AB828BAD75720DE4F573F574F575854882854983854AF0E54B122D04AB82AC59
:20215F0083ADF0FEEB4C4D4E700CC3740195ADE433FD7E0080047D007E008DB522E54C7064
:20217F000122E54130E014AE3F74022EF53FC3944B501F5341FE753FFF8017E53FFE24FEDD
:20219F00F53F247D400CAD417E004305018D41753F82757215E4F573F574F5758548828557
:2021BF004983854AF0E54BC007122D04AB82AC83ADF0FED007EB4C4D4E7015E54130E405D7
:2021DF005341EF8028AD417E004305108D41801DE54130E40D054074DE254050107540220C
:2021FF00800B1540E54024DB5003754000EF600A8540BD8540AD853FB5227404B5420A85CE
:20221F0040BD853FAD75B500227405B54202800122853FBD8540AD853FB522E54C7001227E
:20223F00757259E4F573F574F575854882854983854AF0E54B122D04AC82AD83AEF0FFEC67
:20225F004D4E4F7005753FFF8027E53F24375004153F801DE53F247D5009E53FFF24FEF58A
:20227F003F800EE53FFF24FDF53F24375003753F00853FBD853FAD853FB5220223BE74E0D4
:20229F00253E4040853EF005F07C007D007E007F80800DC3EF13FFEE13FEED13FDEC13FCD6
:2022BF00D5F0F0EC54BA700FED54B8700AEE543B7005EF54EE600A75BD0075ADFF75B5FF55
:2022DF00220223C874C0253E403DE53E24E0FF8FF005F07F007E007D007C80800DC3EC135D
:2022FF00FCED13FDEE13FEEF13FFD5F0F0EF5438700FEE54BA700AED54B87005EC5428606B
:20231F00030223BE0223C874AD253E4033E53E24C0FF8FF005F07F007E007D007C80800D57
:20233F00C3EC13FCED13FDEE13FEEF13FFD5F0F0ED54B87005EC54EB60030223BE0223C842
:20235F00753E00220223C8AF82BF55005018EF75F003A4F5BD8F06EE75F003A4D394FFF459
:20237F00F5AD75B50022BFAA00501B8F06EE24ABFE75F003A4D394FFF4F5BD75AD00EE758F
:20239F00F003A4F5B522EF2456FF75BD0075F003A4F5ADEF75F003A4D394FFF4F5B52275DD
:2023BF00BDFF75ADFF75B5FF2275BD0075AD0075B50022E551254DF551E552354EF552E562
:2023DF0053354FF553E5543550F554E551C3954DF54DE552954EF54EE553954FF54FE554A5
:1023FF009550F5508551828552838553F0E55422CF
:0E00F000751C00E4F51DF51E751A00751B0049
:20240F00C020C0E0C0F0C082C083C007C006C005C004C003C002C001C000C0D075D00020E7
:20242F00B714AF1A051AEF24F0500E12265285821B751A008003751A00758C84758A5FD079
:20244F00D0D000D001D002D003D004D005D006D007D083D082D0F0D0E0D0203275821012B1
:20246F00276AE58270045388EF22AE884306108E88E51BFF24F94051EF2F90248D73804908
:20248F00800A800D801080168023803075690180387569008033758202122C83802BE51C0F
:2024AF00702775820912276A1224EE801CE51C701875820A12276A1224EE800DE51C7009BB
:2024CF0075820B12276A1224EE7403B51C0D7403B51B028006758200122C83851B1C22AFBB
:2024EF00827E007D007C008E1FEF700122EF14FA8AF005F079017A008006E929F9EA33FA9D
:20250F00D5F0F7E9551DF8EA551EFB4860107EFFE9F4F8EAF4FBE8521DEB521E8006E942FF
:20252F001DEA421EEF24F350030225E5EF240A83F582EF241183F583E473E5636F747B7F0E
:20254F00858A91A9C1D9DD252525252525252525252525257565017566007582030227FEF4
:20256F007DFF0225E67DFF7CFF0225E67CFF80677CFF8C1F8061751FFF805C751FFF7DFFD8
:20258F008055EE60067B007F0080047B017F008B667565007582080227FEEE60067B007F4B
:2025AF000080047B797F008B667565007582080227FEEE60067B007F0080047BFF7F008BCE
:2025CF00667565007582080227FE7EFF80097DFF7CFF8D1F8001227565007566007582038B
:2025EF00C006C005C0041227FED004D005D006EE60067B007F0080048D037F008B6675651B
:20260F0000758205C006C0041227FED004D006EE60067D007F0080048C057F008D66756593
:20262F0000758206C0061227FED006EE60067E007F008004AE1F7F008E66756500758207CE
:20264F000227FE7F00C0071226BEAE82D007EE70038E82228FF005F07C017D008006EC2C62
:20266F00FCED33FDD5F0F7EC54577005ED54056009BE0102800D75820022BE020280047599
:20268F008200220FBF0C0040BC7F0D8F061F8F05EE6016C007C0051226BEAE82D005D0071B
:2026AF00EE7003F58222BE02E2EDC313F582227EB87F0B8E048F051EBEFF011FEC4D600396
:2026CF0030B7F0EE4F7003F582227E007F007CB87D0B8C028D031CBCFF011DEA4B600A3030
:2026EF00B7070EBE00EC0F80E9EC4D7003F58222C374E99EE49F50067E027F0080047E01FF
:05270F007F008E822214
:20271400E582C454F0FFE572700375E4A07401B5720474018001E4FE7D00EE6014EF2D24DD
:2027340000F582E43401F583ED2455F9E7FCF08012ED2455F9EF2D2400F582E43401F58312
:20275400E0FCF70DBD100040D1EE600975E49075E4C000000022AF82BF100774805555F592
:202774008222EF2455F98706EF24F150030227FBEF240A83F582EF241383F583E473B0C336
:20279400C3CBFBFBFBFBFBDBDBDBFBFBEB2727272727272727272727272727278E057F00E3
:2027B400747F5DF5828F837572038F73022E0DEE70027E018E82228E057F007572078F73F0
:2027D4008D828F83022E0D8E057F0075720D8F738D828F83022E0D8E057F007572038F7323
:2027F4008D828F83022E0D8E8222AF8274805555FE7401B5650280077402B56516800AEF31
:202814002455F9E7FD04F7802AEF2455F9E7FD14F78020BF1017E566600BAC557D00430458
:20283400808C55800E747F5555F5558006EF2455F8A666EF7024EE6013EF2455F9EF24550F
:20285400F886067D00430680A706800EEF2455F9EF2455F88607747F5FF7757201758200E9
:20287400022714AF82C0071228CAAD82AE83D007BF011274FE2E50067D017E00801A0DBDAC
:2028940000160E8013C374019DE49E40067D007E0280051DBDFF011E8D6675650075820D85
:2028B400C006C0051227FED005D0068E6675650075820C0227FEAF617E00AC627D00EC4E4C
:0728D400F582ED4FF58322B0
:203FC0008006090000000000000B0C0A000100008006090000000000000B0C0A000100007F
:203FE0008006090000000000000B0C0A000100008006090000000000000B0C0A000100005F
:1200FE00756C00756D00757100756900756A04756B01A5
:2028DB00758200120454AE82AF83C3EE94A0EF94005005756A04801EC374B99EE49F500576
:2028FB00756A828011C374AF9EE49F5009AE6A7F004306808E6A121415AF82BF450280041D
:20291B00D2B4D2B320A6187401B56B0EAF6C056CEF24DD501F756B00801A756C008015E550
:20293B006B700EAF6C056CEF24DD5008756B018003756C0075820F12276AE5827028E56B82
:20295B007013E56DF4F56D6006C290D2A0801BD290D2A08015E56A30E706C290D2A0800A49
:20297B00D290C2A08004D290D2A075821012276AE5826003022B82E5367003022B7D7569E7
:20299B000175820E12276AE5827049AF2DBF140050057569008014BF640050047F04800B58
:2029BB00BFC80050047F0280027F01EFB5700280028F70E52EFFB56E0280088F6E856E67F1
:2029DB007568FFE52FFFB56F03022BC88F6F756902022BC8757001AF2DBF14005006756935
:2029FB0000022BC8BF280050197403B56E087408B56F03022BC8756E03756F087569020289
:202A1B002BC8BF3C0050197403B56E08740DB56F03022BC8756E03756F0D756902022BC859
:202A3B00BF5000E433FE60197403B56E087415B56F03022BC8756E03756F15756902022BAB
:202A5B00C8EE60197403B56E087415B56F03022BC8756E03756F15756902022BC8BF64000E
:202A7B0050197403B56E087422B56F03022BC8756E03756F22756902022BC8BF780050191D
:202A9B007403B56E087437B56F03022BC8756E03756F37756902022BC8BF8C0050197408AC
:202ABB00B56E087415B56F03022BC8756E08756F15756902022BC8BFA00050197408B56E0B
:202ADB00087422B56F03022BC8756E08756F22756902022BC8BFB40050197408B56E087464
:202AFB0037B56F03022BC8756E08756F37756902022BC8BFC80050197408B56E087459B574
:202B1B006F03022BC8756E08756F59756902022BC8BFDC0050197408B56E087490B56F0360
:202B3B00022BC8756E08756F90756902022BC8BFF00050177415B56E077437B56F02806DCA
:202B5B00756E15756F3775690280627415B56E077459B56F028056756E15756F59756902F4
:202B7B00804B756902804675820012276AAF828FF005F07401800225E0D5F0FBFFB57002A8
:202B9B0080058F7075690275820112276AE582FFB56E0280058F6E75690275820212276A92
:202BBB00E582FFB56F0280058F6F7569027402B56909756900856F67756800E56970030295
:202BDB002C7D057175821012276AE582702875820E12276AE582701EE56E6004E56F7016E4
:202BFB008570F0E57184E5F07006758201022C83758200022C83AE717F007572088F738E42
:202C1B00828F83122E0DE5828583F045F070021567E567702EE56870057E01FF80047E000A
:202C3B007F008E82122C83E5687004AF6E8002AF6F8F67E56870057EFFFF80047E007F00F6
:202C5B008E6822E5687005F582022C838570F0E57184E5F07006758201022C8375820002AB
:202C7B002C83758200022C83AF82BF0102800ABF0202801FBF03358030E56B6013AE6A532E
:202C9B0006807F00BE8009BF0006C2A5536AFD22D2A522AE6A5306807F00BE8009BF0006B0
:202CBB00C2A5536AFD22D2A522C2A522D2A522AF82BF0108AE6A4306808E6A22536A7F22A9
:202CDB007A10E4FBFCE58225E0F582E58333F583EB33FBEC33FCEB9572F5F0EC9573400639
:092CFB00FCABF0438201DADD229A
:202D0400F9E57245734574457560777800C308E57520E73BE57225E0F572E57333F573E5E3
:202D24007433F574E57533F575E5829572E5839573E5F09574E9957550D4C3E57513F5751B
:202D4400E57413F574E57313F573E57213F572E5829572FCE5839573FDE5F09574FEE995C5
:202D6400754007F98EF08D838C82C3E57513F575E57413F574E57313F573E57213F572D813
:032D8400CEE92273
:06007800E478FFF6D8FD5C
:200056007900E94400601B7A009030EE780175A000E493F2A308B8000205A0D9F4DAF27532
:02007600A0FFE9
:1D2D8700E5828572F0A4C582C0F08573F0A4D0F025F0C5838572F0A42583F58322D0
:202DA400E572457360467A01E57225E0F572E573334012F573E5829572E583957340030AAC
:202DC40080E6C3E57313F573E57213F572C3E5829572F5F0E58395734005F58385F082C325
:0D2DE400E57313F573E57213F572DAE12261
:20007E007800E84400600A790175A000E4F309D8FC7800E84400600C7900900001E4F0A380
:04009E00D8FCD9FAB7
:0D004900758176122E43E5826003020046A9
:1C2DF10020F71430F6148883A88220F507E6A88375830022E280F7E49322E022F1
:202E0D00C2D5E58330E70DD2D5E4C39582F582E49583F583E57330E70BE4C39572F572E4BF
:162E2D009573F573122DA430D50BE4C39582F582E49583F5832261
:042E43007582002272
:00000001FF
