:04000000020049327F
:03000B00022B1BAA
:0100130032BA
:01001B0032B2
:0300230002228E28
:01002B0032A2
:01003300329A
:01003B003292
:0300430002231B7A
:0301200002004694
:0300460002012391
:2001230075BF5075B721D2AFD2A375E63F75E5C0E4C0E0758200122E9C158175D909D2B477
:20014300D2B37582011235561230C6C293C295C292903C00121FE6901E00121FE6908000C2
:20016300121FE6903000121FE6900200121FE6908880121FE690F880121FE6900080121FD6
:20018300E690F880121FE690A080121FE6900080121FE690F880121FE690A080121FE690F3
:2001A3000080121FE6901080121FE6903080121FE6907080121FE6903080121FE690108009
:2001C300121FE6900080121FE690F880121FE6900080121FE6900080121FE6900080121F30
:2001E300E6900080121FE6900080121FE6900080121FE690F880121FE690F880121FE690D3
:200203000080121FE6900080121FE6900080121FE6900080121FE690F880121FE690F880A8
:20022300121FE690F880121FE690F880121FE6900080121FE690F880121FE690F880121FE7
:20024300E690F880121FE690F880121FE690F880121FE690F880121FE690F880121FE6908A
:200263002080121FE6907080121FE6900080121FE6905080121FE6907080121FE690508098
:20028300121FE6900080121FE690F880121FE690F880121FE6900080121FE6900080121F77
:2002A300E6905080121FE6907080121FE6905080121FE6900080121FE6900080121FE690F2
:2002C3000080121FE690C080121FE690D880121FE6900080121FE6900080121FE6908880B8
:2002E300121FE6907080121FE6900080121FE612052AAE8E4306088E8E758900D2A9122A87
:200303002E75D34875D4027CDD7D8A7E147F008C008D018E028F031CBCFF091DBDFF051E48
:20032300BEFF011FE8494A4B70E5D29FD29ED29DD29C75CAFD75CBFFD2CDD2CCC2CBD2CA23
:20034300C2C9C2C8759BFC759AEEAAE84302018AE8D2ACC2A3758200C007C006C005C00442
:20036300123556D004D005D006D007C007C006C005C0047490C0E0E4C0E0C0E0C0E08C82FB
:200383008D838EF0EF1235BAA882A983AAF0FBE58124FCF581D004D005D006D007E8494A24
:2003A3004B7013C007C006C005C0041230C6D004D005D006D007C007C006C005C004745915
:2003C300C0E0E4C0E0C0E0C0E08C828D838EF0EF1235BAA882A983AAF0FBE58124FCF58143
:2003E300D004D005D006D007E8494A4B7013C007C006C005C004122B77D004D005D006D042
:2004030007C007C006C005C0047403C0E0E4C0E0C0E0C0E08C828D838EF0EF1235BAA8822B
:20042300A983AAF0FBE58124FCF581D004D005D006D007E8494A4B7013C007C006C005C04B
:200443000412052AD004D005D006D0078C008D018E028F030CBC00090DBD00050EBE000155
:1E0463000F888289838AF0EBC007C006C005C004122348D004D005D006D00702036E95
:20048100C01AE581F51A2404F581AB82A81A08E4F608F608F608F67A00EB6007D29775DA1F
:2004A100888005D29475DA817F08EF14FF70FBE5DA30E4FBAEDB7F00EE2EFEEF33FFEE2ED7
:2004C100FEEF33FFADDC7C00EE4205EF420453DA7F8D077D007E00A81A08EF26F6EC083653
:2004E100F6ED0836F6EE0836F60ABA200040AAA81A08860408E6C403CCC40354076CCC5471
:2005010007CC6CCCFD08E6C40354F84DFD860608E6C403CEC40354076ECE5407CE6ECE8C29
:09052100828D83851A81D01A2213
:1E00A200750B00750C00750E00750F007510007511007512007508457509FF750AFFE9
:20052A00C01AE581F51A2404F581121A56AF82E4BF050104FE7003BF0A21EE60067D027EB8
:20054A000080047D037E008D82C00712350FD007AD0B7E004305808D0B8012E50B30E70DD0
:20056A00758200C00712350FD007530B7FBF0838758210C007122F00AE82D007BE80067DD3
:20058A00007E0080047D807E00C007C005E4C0E0758210122FC0158115817508007509FF96
:2005AA00754E021230C6D007BFC8137401B54E05754E028003754E011230C602095ABF0935
:2005CA0002800302068675820F122F00E582F4FEC006E4C0E075820F122FC0158115819051
:2005EA008000121FE675820F122F00E582601CE4C0E0C0E0C0E0740FC0E09036CE75F080D0
:20060A00121CABE58124FCF581801AE4C0E0C0E0C0E0740FC0E09036DE75F080121CABE533
:20062A008124FCF581E4C0E004C0E0E4C0E0740FC0E09036ED75F080121CABE58124FCF5DE
:20064A0081A81A0876B50876D8087607087600A81A088602088604088605088606A81A08EC
:20066A0016B6FF0C0816B6FF070816B6FF020816EA4C4D4E70D97509FF02095ABF07028088
:20068A0003020736908000121FE6E54F20E424E4C0E0C0E07402C0E0740FC0E09036FD75F6
:2006AA00F080121CABE58124FCF5817582011235568022E4C0E0C0E07402C0E0740FC0E057
:2006CA0090370875F080121CABE58124FCF581758200123556E4C0E004C0E0E4C0E07410C3
:2006EA00C0E090371275F080121CABE58124FCF581A81A0876B50876D8087607087600A8C7
:20070A001A088602088604088605088606A81A0816B6FF0C0816B6FF070816B6FF020816FE
:20072A00EA4C4D4E70D97509FF02095ABF06028003020805747F550BFE908000C006121F02
:20074A00E6D0068E047D00C0067403C0E0E4C0E08C828D83123648AC8215811581EC2CFC47
:20076A002428F582C00412184DAA82AB83ADF0E4C0E0C0E0C0E07410C0E08A828B838DF0FB
:20078A00121CABE58124FCF581D00474292CF58212184DAB82AC83ADF0E4C0E004C0E0E4EA
:2007AA00C0E07410C0E08B828C838DF0121CABE58124FCF581D0060E530B80747F5E420B9D
:2007CA00A81A0876DD08768A087614087600A81A088602088604088605088606A81A0816EF
:2007EA00B6FF0C0816B6FF070816B6FF020816EA4C4D4E70D97509FF02095ABF040675081F
:20080A00007509FFE509702FBF0302802ABF1E028025BF1F028020BF0B02801BBF6E02803C
:20082A0016BF6F028011BF0102800CBF02028007E508600302095AAE08BE01030208EFBE5B
:20084A0002030208FDBE03030208F6BE0403020904BE050302090BBE0603020912BE070362
:20086A00020912BE0803020912BE0903020912BE0A03020919BE0B03020919BE0C030209CD
:20088A0019BE0D03020920BE0E03020920BE1403020927BE150302092EBE45028003020999
:2008AA0035908000121FE6E4C0E0C0E004C0E0C4C0E090372375F080121CABE58124FCF583
:2008CA0081E4C0E004C0E0E4C0E07410C0E090373275F080121CABE58124FCF5817509FF8D
:2008EA00750800806B8F82120D1A80648F82120EAA805D8F82120F7B80568F8212104C801E
:20090A004F8F8212111680488F8212121180418F82121351803A8F8212149D80338F82127A
:20092A0015ED802C8F821216858025C007120960D007BF020DE4C0E075820112174015813A
:20094A00800EBF010BE4C0E07582021217401581851A81D01A22E50E60507401B5500775F3
:20096A000E007509FF22E509603F750900908000121FE6E4C0E0C0E004C0E0C4C0E090379B
:20098A004275F080121CABE58124FCF581E4C0E004C0E0E4C0E07410C0E090375175F08084
:2009AA00121CABE58124FCF58122E5507047AE4F5306807F00BE803DBF003AE4C0E0C0E05D
:2009CA0004C0E0C4C0E090374275F080121CABE58124FCF581E4C0E004C0E0E4C0E0741012
:2009EA00C0E090375175F080121CABE58124FCF581750EFF22E5097003020AC29080001286
:200A0A001FE6750900750AFF750CFF750D55758210122F00E582601DE4C0E0C0E004C0E080
:200A2A00C4C0E090376175F080121CABE58124FCF581020AC21230B3E4C0E004C0E0740403
:200A4A00C0E0121D6815811581158175820E122F00AF82BF01028005BF020A80047F038084
:200A6A00067F0180027F0BE4FEC0E004C0E0740CC0E08F828E83121D68158115811581E435
:200A8A00C0E004C0E0E4C0E07404C0E090376D75F080121CABE58124FCF581E4C0E004C036
:200AAA00E07409C0E07404C0E090377275F080121CABE58124FCF581050F7401B54E64E54F
:200ACA00117008AE10FF4306208E10E54D701BE51030E544E4C0E0740EC0E0758280121F66
:200AEA009B158115815310DF802E74B7B50F13E4C0E0740EC0E0758280121F9B158115811E
:200B0A008016743FB50F11E4C0E0740EC0E0758204121F9B15811581AE107F004306108EF0
:200B2A001080337401B51109AE107F004306108E10E51030E41DE4C0E0740EC0E0758204A9
:200B4A00121F9B15811581AE107F004306208E105310EF751100E54F20E46DE54F30E71B6C
:200B6A00E51030E058E4C0E0740FC0E0758260121F9B158115815310FE8042E50F7035E577
:200B8A001030E116E4C0E0740FC0E0758204121F9B158115815310FD801AE4C0E0740FC0B9
:200BAA00E07582A0121F9B15811581AE107F004306028E10AE107F004306018E10AE107F34
:200BCA00004306088E10801CE51030E314E4C0E0740FC0E0758200121F9B1581158153106B
:200BEA00F7431009758210122F00E5826003020CA2E52C602EE50A30E755E4C0E0C0E004B4
:200C0A00C0E07406C0E090377775F080121CABE58124FCF581AE0A7F004306408E0A530A63
:200C2A007F802CE50A30E627E4C0E0C0E004C0E07406C0E090377E75F080121CABE58124E4
:200C4A00FCF581AE0A7F004306808E0A530ABFE54CFFB50C01228F057E00C007E4C0E0C033
:200C6A00E07407C0E08D828E83121D68158115811581D007E54D70057D92FE80047D227ECA
:200C8A00008D82C007E4C0E0740BC0E0121F9B15811581D0078F0C22E54DFFB50D02804789
:200CAA00EF7022C007E4C0E004C0E0E4C0E07409C0E090378575F080121CABE58124FCF594
:200CCA0081D0078020C007E4C0E004C0E0E4C0E07409C0E090378E75F080121CABE58124E5
:200CEA00FCF581D0078F0DE54CFFB50C01228F057E00C007E4C0E004C0E0740BC0E08D82C2
:200D0A008E83121D68158115811581D0078F0C22AF82BF01028046BF02028035BF03028056
:200D2A0005BF0B458015E4C0E004C0E0758200122FC015811581750AFF802EE4C0E074028E
:200D4A00C0E0758200122FC015811581750AFF8018E4C0E0758201121740158122E4C0E08E
:200D6A00758202121740158122E5096028750900750AFF908000121FE6E4C0E0C0E074031B
:200D8A00C0E0740AC0E090379775F080121CABE58124FCF581E50A700122750A007582007B
:200DAA00122F00AF82BF0002800CBF01028043BF0203020E4A2275820012184DAD82AE83D7
:200DCA00AFF0E4C0E004C0E07403C0E07410C0E08D828E838FF0121CABE58124FCF581741F
:200DEA0001C0E0740CC0E0758240121F9B158115812275820112184DAD82AE83AFF0E4C0C5
:200E0A00E004C0E07403C0E07410C0E08D828E838FF0121CABE58124FCF5817401C0E0740C
:200E2A000CC0E0758240121F9B158115817401C0E0740DC0E07582C0121F9B1581158122C6
:200E4A0075820212184DAD82AE83AFF0E4C0E004C0E07403C0E07410C0E08D828E838FF017
:200E6A00121CABE58124FCF5817401C0E0740CC0E0758240121F9B158115817401C0E074A6
:200E8A000DC0E07582C0121F9B158115817401C0E0740EC0E0758220121F9B158115812284
:200EAA00AF82BF01028050BF0202803FBF0302800FBF0B02801FBF1F028005BF6F458015B8
:200ECA00E4C0E004C0E0758202122FC015811581750AFF802EE4C0E07402C0E075820212E9
:200EEA002FC015811581750AFF8018E4C0E0758201121740158122E4C0E075820212174034
:200F0A00158122E5096044750900750AFF908000121FE6E4C0E0C0E07402C0E0740DC0E0FF
:200F2A009037A175F080121CABE58124FCF581E4C0E004C0E07407C0E004C0E09037AE75B4
:200F4A00F080121CABE58124FCF581E50A6021750A00758202122F00AF82E4FEC0E004C0A2
:200F6A00E0C0E08F828E83121D6815811581158122AF82BF01028050BF0202803FBF030241
:200F8A00800FBF0B02801FBF1F028005BF6F458015E4C0E004C0E0758201122FC015811514
:200FAA0081750AFF802EE4C0E07402C0E0758201122FC015811581750AFF8018E4C0E075AC
:200FCA008201121740158122E4C0E0758202121740158122E5096044750900750AFF908027
:200FEA0000121FE6E4C0E0C0E07402C0E0740DC0E09037B675F080121CABE58124FCF5813E
:20100A00E4C0E004C0E07407C0E004C0E09037AE75F080121CABE58124FCF581E50A602140
:20102A00750A00758201122F00AF82E4FEC0E004C0E0C0E08F828E83121D681581158115FD
:20104A008122AF82BF01028050BF0202803FBF0302800FBF0B02801FBF1F028005BF6F4508
:20106A008015E4C0E004C0E0758203122FC015811581750AFF802EE4C0E07402C0E07582C5
:20108A0003122FC015811581750AFF8018E4C0E0758201121740158122E4C0E075820212D4
:2010AA001740158122E5096028750900750AFF908000121FE6E4C0E0C0E07404C0E07407C7
:2010CA00C0E09037C375F080121CABE58124FCF581E50A6036750A00758203122F00AF82B2
:2010EA0074142FF58212184DAD82AE83AFF0E4C0E004C0E07406C0E07410C0E08D828E83BC
:20110A008FF0121CABE58124FCF58122AF82BF01028050BF0202803FBF0302800FBF0B02EB
:20112A00801FBF1F028005BF6F458015E4C0E004C0E0758204122FC015811581750AFF804B
:20114A002EE4C0E07402C0E0758204122FC015811581750AFF8018E4C0E07582011217409A
:20116A00158122E4C0E0758202121740158122E5096028750900750AFF908000121FE6E492
:20118A00C0E0C0E07403C0E0740CC0E09037CA75F080121CABE58124FCF581E50A60677558
:2011AA000A00758204122F00E582701DC0E004C0E07406C0E07410C0E09037D675F08012D5
:2011CA001CABE58124FCF58122E4C0E004C0E07403C0E07410C0E09037DA75F080121CAB5E
:2011EA00E58124FCF581758204122F00AF82E4FEC0E004C0E07405C0E08F828E83121D6884
:20120A0015811581158122AF827E00AD08BD0602800FBD0702800EBD0802800DBD0910802A
:20122A000C7E05800A7E0680067E0780027E08BF01028056BF02028045BF0302800FBF0BB7
:20124A00028022BF1F028005BF6F4B8018C006E4C0E004C0E08E82122FC015811581D00669
:20126A00750AFF8031C006E4C0E07402C0E08E82122FC015811581D006750AFF8018E4C008
:20128A00E0758201121740158122E4C0E0758202121740158122E509603C750900750AFF27
:2012AA00908000C006121FE6AF0874C82FF58212184DAC82AD83AFF0E4C0E0C0E07403C0CF
:2012CA00E07410C0E08C828D838FF0121CABE58124FCF581D006E50A606C750A008E82C0AE
:2012EA0006122F00E582D006701DC0E004C0E07406C0E07410C0E09037D675F080121CABF6
:20130A00E58124FCF58122C006E4C0E004C0E0E4C0E07410C0E09037DA75F080121CABE5CB
:20132A008124FCF581D0068E82122F00AF82E4FEC0E004C0E07406C0E08F828E83121D683B
:20134A0015811581158122AF827E007D00AC08BC0A02800ABC0B02800BBC0C12800C7D092D
:20136A007E04800A7D0A7E0580047D0B7E06BF01028054BF02028043BF03028005BF0B533B
:20138A00801CC006C005E4C0E004C0E08D82122FC015811581D005D006750AFF8035C00614
:2013AA00C005E4C0E07402C0E08D82122FC015811581D005D006750AFF8018E4C0E075824C
:2013CA0001121740158122E4C0E0758202121740158122E5097003021464750900750AFF6C
:2013EA00908000C006C005121FE6E4C0E0C0E004C0E0C4C0E09037DB75F080121CABE5813F
:20140A0024FCF581D005D006BE0402800ABE0502801CBE0645802EC005E4C0E07408C0E0B6
:20142A0075822C121F9B15811581D005802CC005E4C0E07408C0E07582AC121F9B15811587
:20144A0081D0058015C005E4C0E07408C0E075826C121F9B15811581D005E50A6034750A00
:20146A00008D82122F00AF82743C2FF58212184DAD82AE83AFF0E4C0E004C0E004C0E074D5
:20148A0010C0E08D828E838FF0121CABE58124FCF58122AF82BF0103021557BF02030215BF
:2014AA004BBF030302153DBF0B03021544BF1E028003021563740DB508067E017F008004F4
:2014CA007E007F0075F003E5128485F082C006122E9C1581E4C0E004C0E0E4C0E07410C003
:2014EA00E09037DA75F080121CABE58124FCF581740DB5081FE4C0E004C0E07406C0E07494
:20150A0010C0E09037EB75F080121CABE58124FCF5818045E4C0E004C0E07406C0E074101A
:20152A00C0E09037F275F080121CABE58124FCF58180260512750AFF801F1512750AFF808F
:20154A0018E4C0E0758201121740158122E4C0E0758202121740158122E509604B75090017
:20156A00750AFF908000121FE6740DB5081EE4C0E0C0E07402C0E0740EC0E09037FA75F0DE
:20158A0080121CABE58124FCF581801CE4C0E0C0E07402C0E0740EC0E090380875F080122D
:2015AA001CABE58124FCF581E50A6036750A0075F003E51284AFF074502FF58212184DAD4A
:2015CA0082AE83AFF0E4C0E004C0E07404C0E07410C0E08D828E838FF0121CABE58124FC4D
:2015EA00F58122AF82BF0102803BBF0202802ABF0302800FBF0B028015BF1F028005BF6FE7
:20160A0030800B758201123053750AFF8023758202123053750AFF8018E4C0E07582011225
:20162A001740158122E4C0E0758202121740158122E5096028750900750AFF908000121F40
:20164A00E6E4C0E0C0E07402C0E0740CC0E090381675F080121CABE58124FCF581E50A6059
:20166A0019750A001230B3E4C0E004C0E07404C0E0121D6815811581158122AF82BF010225
:20168A008046BF02028035BF03028005BF0B458015E4C0E004C0E075820E122FC01581153C
:2016AA0081750AFF802EE4C0E07402C0E075820E122FC015811581750AFF8018E4C0E07598
:2016CA008201121740158122E4C0E0758202121740158122E5096026750900750AFF90803E
:2016EA0000121FE6E4C0E0C0E0C0E07411C0E090382275F080121CABE58124FCF581E50A4D
:20170A006033750A0075820E122F00AF8274642FF58212184DAD82AE83AFF0E4C0E004C0FA
:20172A00E0C0E0C4C0E08D828E838FF0121CABE58124FCF58122C01A85811AAF827509FF7D
:20174A00BF01028077BF0202800302181AE51A24FDF8A608758210122F00E582702FE51A39
:20176A0024FDF8E6700AE51A24FDF8761402183FE51A24FDF806E51A24FDF8E624EA40037E
:20178A0002183FE51A24FDF8760002183FE51A24FDF8E6700AE51A24FDF8760102183FE5BA
:2017AA001A24FDF806E51A24FDF8E624F1400302183FE51A24FDF8760002183FE51A24FD30
:2017CA00F8A608758210122F00E582702AE51A24FDF8E67009E51A24FDF876158057E51A20
:2017EA0024FDF816E51A24FDF8B614005047E51A24FDF87600803EE51A24FDF8E67009E58F
:20180A001A24FDF8760E802DE51A24FDF8168025E51A24FDF8E624F15014E51A24FDF8B642
:20182A0014004011E51A24FDF8E624EA4007E51A24FDF87600E51A24FDF88608D01A228521
:20184A00088222AF828F06BE000302193EBE0103021945BF020302194CBF1403021953BFA2
:20186A00150302195ABF1603021961BF1703021968BF1803021976BF190302197DBF1A0367
:20188A0002196FBF2803021A25BF2903021A2CBF2A03021A33BF2B03021A3ABF2C03021ACE
:2018AA0041BF2D03021A48BF3C030219A0BF3D030219A7BF3E030219AEBF3F030219B5BFB7
:2018CA0040030219BCBF41030219C3BF42030219CABF43030219D1BF44030219D8BF450329
:2018EA000219DFBF46030219E6BF47030219EDBF48030219F4BF50030219FBBF5103021A5A
:20190A0002BF5203021A09BF6403021A10BF6503021A17BF6603021A1EBFCE03021984BF86
:20192A00CF0302198BBFD003021992BFD103021999021A4F90383375F0802290383975F0CC
:20194A00802290383E75F080229037D675F0802290384575F0802290384D75F08022903832
:20196A005275F0802290385875F0802290385E75F0802290386375F0802290386975F08068
:20198A002290387375F0802290387F75F0802290388A75F0802290389775F080229038A163
:2019AA0075F080229038AE75F080229038B275F080229038B975F080229038BF75F0802202
:2019CA009038C475F080229038C975F080229038D175F080229038DD75F080229038EB755E
:2019EA00F080229038F775F0802290390075F0802290390975F0802290391075F08022906C
:201A0A00391775F0802290391E75F0802290392575F0802290393475F0802290393B75F015
:201A2A00802290394A75F0802290395975F0802290396A75F0802290397B75F08022903969
:0C1A4A008C75F0802290000075F00022E6
:2036CE0054616E6B204C6967687473204F66660054616E6B204C6967687473204F6E00464C
:2036EE00756E2B4D616E20746F20556E646F00486561746572204F666600486561746572EC
:20370E00204F6E0042757273742B557020746F20556E646F0041746D6F7346454152203291
:20372E0032314200427920426C697A7A6172642050726F005043204C6F6164204C6574747C
:20374E00657200427572737420746F20526566696C6C004D616E75616C204D6F64650041AF
:20376E00646472004D6F646500444D58204F6B004E6F20444D5800496E74657276616C00AE
:20378E004475726174696F6E00466F67204C6576656C00466F6720496E74657276616C0020
:2037AE005365636F6E647300466F67204475726174696F6E004D6163726F73004D616372C2
:2037CE006F205370656564004F6666000052656D6F7465205820416374696F6E00536176B4
:2037EE00656421004C6F616465642100536176652053657474696E6773004C6F6164205374
:20380E00657474696E677300444D58204164647265737300444D58204368616E6E656C20EB
:20382E004D6F64650057696D7079004D696C6400426C617A696E005261696E626F770046E1
:20384E006972650057617465720053746F726D004163696400457468657200526564204C12
:20386E006576656C00477265656E204C6576656C00426C7565204C6576656C005374726F3D
:20388E006265204C6576656C004E6F20416374696F6E0043686F6F7365204D6163726F008D
:2038AE005265640059656C6C6F7700477265656E004379616E00426C7565004D6167656E77
:2038CE007461005374726F626520536C6F77005374726F6265204D656469756D00537472A8
:2038EE006F6265204661737400426C61636B6F75740057686974656F757400536C6F742086
:20390E003100536C6F74203200536C6F74203300313120416C6C00203320466F67202B20EA
:20392E004D6163726F00203120466F670030783438364636433644363537330026203537F0
:20394E003631373437333646364500363236463734363834463737364534310035333645BE
:20396E003646373736323631364336430034443646373236393631373237343739003634AD
:0F398E00364636353733344536463734203B001E
:0600C00075130075140029
:201A5600758201120481AE82AF837D00C3EE94A2EF9403403174F825145025741725144006
:201A76001F7401B5130280167403B513028007740BB5130C80047D0380067D0B80027D012F
:201A9600751300751400C3747A9E74039F402574669E74039F501D7402B5131274F8251465
:201AB600400F051474F8251450077D028003751400751302C374489E74039F4029742F9EBA
:201AD60074039F50217403B5131674172514400C051474172514500B7D1E80077D1F80038B
:201AF600751400751303C374AA9EE49F4028748C9EE49F5021740BB5131674172514400C53
:201B1600051474172514500B7D6E80077D6F800375140075130BC374769E74029F40257441
:201B3600589E74029F501D7407B5131274172514400F05147417251450077D0780037514EB
:201B560000751307C374989E74039F402574849E74039F501D7401B5131274172514400F7D
:201B760005147417251450077DC88003751400751301C374129E74029F402574FE9E74015B
:201B96009F501D7408B5131274F82514400F051474F8251450077D088003751400751308A3
:201BB600C374C69E74029F402974A89E74029F50217405B5131674F82514400C051474F8E9
:201BD6002514500B7D0580077D058003751400751305C374EA9E74019F402574CC9E7401AC
:201BF6009F501D7409B5131274172514400F05147417251450077D09800375140075130902
:201C1600C374B89E74019F402974A49E74019F5021740AB5131674172514400C0514741759
:201C36002514500B7D0A80077D0A800375140075130AC3742A9E74039F402574169E7403AE
:201C56009F501D7404B5131274F82514400F051474F8251450077D048003751400751304EE
:201C7600C3748A9E74029F402974769E74029F50217406B5131674172514400C0514741757
:151C96002514500B7D0680077D0680037514007513068D82224D
:201CAB00C01A85811AC082C083C0F07C00E51A24FBF8E6600DE51A24FCF8860374402BFB8B
:201CCB008007E51A24FCF886038B82C004122235AA827B008B8274014AF583121FE6D004C2
:201CEB00E51A24FDF806E51A24FAF8E6600A900080C004121FE6D0047B00E51A24FDF8C341
:201D0B00EB965053EC703FC004A81A08EB26FAE40836FC0886078A828C838FF012362CFFA0
:201D2B00D004EF601D8F82C004C00312202CAE827F0074804FF5828E83121FE6D003D0042A
:201D4B0080127C01800E900480C004C003121FE6D003D0040B80A3851A81D01A22C01A85C9
:201D6B00811A058105810581AE82AF837D00A91A097704E904F87604740229FCC000A8049F
:201D8B00760CD000C3EE94E8EF940340047EE77F03C000E51A24FCF8E6D0006011C000E565
:201DAB001A24FDF88603D00074402BFB800BC000E51A24FDF88603D0008B82C007C006C09C
:201DCB0005C004C001C000122235AA827B008B8274014AF583121FE6D000D001D004D005F9
:201DEB00D006D007C000E51A24FBF8E6D0006020900080C007C006C005C004C001C0001266
:201E0B001FE6D000D001D004D005D006D007801E900480C007C006C005C004C001C0001260
:201E2B001FE6D000D001D004D005D006D007C007C006C005C004C001C0007464C0E0E4C0E8
:201E4B00E08E828F83123567AA82AB8315811581D000D001D004D005D006D007EA4B605461
:201E6B00C0048A0474302CF582C007C006C004C003C002C001C00012202CE582D000D00101
:201E8B00D002D003D004F77D01C005C001C000C002C003900064123598AB82AC83158115A4
:201EAB0081D000D001D005D006D007EEC39BFEEF9CFFD004C007C006C005C004C001C00034
:201ECB00740AC0E0E4C0E08E828F83123567AA82AB8315811581D000D001D004D005D006DF
:201EEB00D007ED7004EA4B604A8A0574302DF582C007C006C004C003C002C001C000122060
:201F0B002CE582D000D001D002D003F6C001C000C002C00390000A123598AB82AD83158175
:201F2B001581D000D001D004D006D007EEC39BFEEF9DFF74302EF582C004C001C000122049
:201F4B002CE582D000D001D004C000A804F6D00087078F067F0074804FF5828E83C004C04B
:201F6B0000121FE6D00086078F067F0074804FF5828E83121FE6D004A80486078F067F00CB
:201F8B0074804FF5828E83121FE6851A81D01A22C01A85811AAF82E51A24FCF8E6600DE5AE
:201FAB001A24FDF8860674402EFE8007E51A24FDF886068E82C007122235AD827E008E824F
:201FCB0074014DF583121FE6D0078F067F0074804FF5828E83121FE6D01A22AE82AF834327
:201FEB0006208E828F83C007C006122201D006D0075306DF8E828F83C007C006122201D033
:20200B0006D007E4BE0004BF800104FF7D007E038D038E041DBDFF011EEB4C6003EF70F0EE
:20202B0022AF82BF260050030221FDEF248550030221FDEF24DAFF240A83F582EF245983DC
:20204B00F583E473F5FDFDFDFDF1FDFDFDFDC9CDD1D5D9DDE1E5E9EDFDF9FDFDFDFDFDF96A
:20206B000109111921293139414951596169717981899199A1A9B1B9C1FDFDFDFDFDFDFDF1
:20208B00050D151D252D353D454D555D656D757D858D959DA5ADB5BDC52121212121212171
:2020AB002121212121212121212121212121212121212121202121212121212121212121F6
:2020CB002121212121212121212121212121212121212121202121212121212121212121D6
:2020EB0021212121212121212121212121217582822275828622758242227582462275821C
:20210B00C2227582C62275822222758226227582A2227582A622758262227582662275820C
:20212B00E2227582E62275821222758216227582922275829622758252227582562275820C
:20214B00D2227582D62275823222758236227582B2227582B622758272227582762275824C
:20216B00F2227582F62275820A2275820E2275828A2275828E2275824A2275824E227582DC
:20218B00CA227582CE2275822A2275822E227582AA227582AE2275826A2275826E2275824C
:2021AB00EA227582EE2275821A2275821E2275829A2275829E2275825A2275825E2275824C
:2021CB000C2275828C2275824C227582CC2275822C227582AC2275826C227582EC2275824C
:2021EB001C2275829C227582D422758264227582E02275820422AE82AF837D048DF005F00C
:20220B007B017C008006EB2BFBEC33FCD5F0F7EE5203EF5204EB4C24FF9295D293C2930D7D
:20222B00BD100040D7D292C29222AF827E007D00C0068DF005F07B80E4FC3392D28008A2D5
:20224B00D2EC13FCEB13FBD5F0F58F027E00EA5203EE5204D006EB4C60067B017C00800472
:20226B007B007C008D048CF005F0EB800225E0D5F0FBFB8E04EC42038B060DBD080040B017
:03228B008E82221E
:0800C600752C00E4F52DF52E68
:20228E00C020C0E0C0F0C082C083C007C006C005C004C003C002C001C000C0D075D0001278
:2022AE0030B3AE82AF83AD99759BFC759AEE752CFFE52D452E7009ED6006752D01752E0243
:2022CE00C3E52D9EE52E9F401A740B2EFBE43FFCC3E52D9BE52E9C500AE52DFCC39E24217D
:2022EE00F8A6057401252DF52DE4352EF52EC298D0D0D000D001D002D003D004D005D0061B
:20230E00D007D083D082D0F0D0E0D02032C0E0E52D452E701AF52CF521F522F523752400F3
:1A232E00752500752600752700752800752900E4F52DF52E5391EFD0E032AB
:2000CE00752F00753000753100753200753300753401E4F535F536F537753801F539F53ABA
:0200EE00F53BE0
:20234800C01A85811AC082C083C0F0C0E0758210122F00E58260030224B975820E122F006F
:20236800AB82BB00028009BB01030224480224B3AB29BB1400405EBB9400500F8B02EA2452
:20238800EC25E0F5821229AA02256EE52AFA24F55026EA24FBFA8B82C002122574AF82C04D
:2023A80007A81A0886820886830886F008E61225B91581158102256E8B82122574AF8274B1
:2023C800FFC0E0C007900001E4F5F01225B91581158102256EE528FF60487E00EF2FFFEE47
:2023E80033FE741CC39FFF74029EFE3395E0FDFCC007C006C005C004A81A08868208868307
:202408000886F008E61235BAAC82AD83AEF0FFE58124FCF581EC4D4E4F700AE52FF4F52FD4
:202428008003752FFFE52F6011852582C027C026122A7B1581158102256E122A2E02256E79
:20244800AF22BF1400405EBF9400500F8F06EE24EC25E0F5821229AA02256EE523FE24F5D8
:202468005026EE24FBFE8F82C006122574AD82C005A81A0886820886830886F008E61225D7
:20248800B91581158102256E8F82122574AF8274FFC0E0C007900001E4F5F01225B9158113
:2024A800158102256E122A2E02256E122A2E02256E758203122F00E582602B758204122F82
:2024C80000AF82758203C007122F00AE82C006A81A0886820886830886F008E61225B91577
:2024E80081158102256E758208122F00E582FF60487E00EF2FFFEE33FE741CC39FFF7402B9
:202508009EFE3395E0FDFCC007C006C005C004A81A0886820886830886F008E61235BAAC64
:2025280082AD83AEF0FFE58124FCF581EC4D4E4F700AE52FF4F52F8003752FFFE52F60230F
:20254800758207122F00AF82758206C007122F00AE82758205C006122F00122A7B15811569
:20256800818003122A2E851A81D01A22AF82BFB400500475822122BFBE005004758201229C
:20258800BFC800500475820222BFD200500475820322BFDC00500475820422BFE600500437
:2025A80075820522BFF00050047582062275824522C01A85811AC082C083C0F0C0E0E58140
:2025C8002404F581E51A2405F8E4F608F608F608F67B00E51A24FCF8E6C313FC7D007485A1
:2025E800C39CFCE49DFD3395E0FEFFC003C004C005C006C007A81A0886820886830886F01B
:2026080008E61235BAAC82AD83AEF0FFE58124FCF581D003EC4D4E4F70227BFFC003122A18
:202628003EAC82AD83AEF0FFD003E51A2405F8A60408A60508A60608A6070530E51A24FD4B
:20264800F8B601028054E51A24FDF8B602028053E51A24FDF8E4B6030104FF600302277291
:20266800E51A24FDF8B60403022772E51A24FDF8B60503022772E51A24FDF8B60603022870
:202688005AE51A24FDF8B621030228CDE51A24FDF8B645030228D30229A18530821229AAF4
:2026A8000229A4EB70030229A474C92531400C753137AD337E004305018D33E53330E00EBD
:2026C80074FFB531055333FE80200531801CAD317E001DBDFF011EBD370EBE000BAD337E21
:2026E800004305018D3380021531740DC0E0E4C0E0C0E0C0E0E51A2405F8868208868308DB
:2027080086F008E61235BAAB82AC83ADF0FEE58124FCF581EB4C4D4E700CC3740195ADE4AD
:2027280033FD7E0080047D007E00E5310303543FFE7C007B007A00C005C006C004C003C074
:2027480002E51A2405F886820886830886F008E61235BAAA82E58124FCF581C002853182A7
:20276800122A7B158115810229A4EB70030229A4E53330E014AE3174022EF531C3944B509B
:202788001F5333FE7531FF8017E531FE24FEF531247D400CAD337E004305018D337531827A
:2027A800C0077415C0E0E4C0E0C0E0C0E0E51A2405F886820886830886F008E61235BAAB0C
:2027C80082AC83ADF0FEE58124FCF581D007EB4C4D4E7015E53330E4055333EF8028AD334D
:2027E8007E004305108D33801DE53330E40D053274DE25325010753222800B1532E532244F
:20280800DB5003753200EF6011C031C032853282122A7B158115810229A4E51A24FDF8B6DF
:202828000412E4C0E0C031853282122A7B158115810229A4E51A24FDF8B605028003022997
:20284800A4C031C032853182122A7B158115810229A4EB70030229A47459C0E0E4C0E0C021
:20286800E0C0E0E51A2405F886820886830886F008E61235BAAC82AD83AEF0FFE58124FCA9
:20288800F581EC4D4E4F70057531FF8027E531243750041531801DE531247D5009E531FF56
:2028A80024FEF531800EE531FF24FDF53124375003753100C031C031853182122A7B158123
:2028C80015810229A4122A1D0229A474E02530403F8530F005F07C007D007E007F80800D9E
:2028E800C3EF13FFEE13FEED13FDEC13FCD5F0F0EC54BA700FED54B8700AEE543B7005EF93
:2029080054EE6006122A1D0229A4122A2E0229A474C025304041E53024E0FF8FF005F07F91
:20292800007E007D007C80800DC3EC13FCED13FDEE13FEEF13FFD5F0F0EF5438700FEE545F
:20294800BA700AED54B87005EC54286005122A1D804A122A2E804574AD25304037E5302488
:20296800C0FF8FF005F07F007E007D007C80800DC3EC13FCED13FDEE13FEEF13FFD5F0F0A9
:20298800ED54B87005EC54EB6005122A1D800D122A2E80087530008003122A2E851A81D0D7
:2029A8001A22AF82BF550050208F06EE75F003A4D394FFF4FEEF75F003A4F582E4C0E0C081
:2029C80006122A7B1581158122BFAA0050238F06EE24ABFE75F003A4FDEE75F003A4D3944E
:2029E800FFF4F582C005E4C0E0122A7B1581158122EF2456FFFEEE75F003A4D394FFF4FE5F
:202A0800EF75F003A4FFC006C007758200122A7B158115812274FFC0E0C0E07582FF122A46
:202A28007B1581158122E4C0E0C0E0758200122A7B1581158122E5382534F538E53935357A
:202A4800F539E53A3536F53AE53B3537F53BE538C39534F534E5399535F535E53A9536F508
:202A680036E53B9537F537853882853983853AF0E53B22C01A85811AAF827EFF758210C020
:202A880007C006122F00E582D006D007701475820EC007C006122F00E582D006D00770022F
:202AA800AE24BEFF128FBDE51A24FDF886ADE51A24FCF886B580597D007C00C006C004C068
:202AC80006C0048F828D83123598AF8315811581D004D0068FBDE51A24FDF886057F00C0EE
:202AE80006C004C006C0048D828F83123598AF83158115818FADE51A24FCF886057F008D32
:132B0800828F83123598AE82AF83158115818FB5D01A2269
:0E00F000751700E4F518F51975150075160062
:202B1B00C020C0E0C0F0C082C083C007C006C005C004C003C002C001C000C0D075D00020D4
:202B3B00B714AF150515EF24F0500E122DDA8582167515008003751500758C84758A5FD0F0
:202B5B00D0D000D001D002D003D004D005D006D007D083D082D0F0D0E0D02032758210129E
:202B7B002F00E58270045388EF22AE884306108E88E516FF24F94051EF2F902B9973804949
:202B9B00800A800D8010801680238030754E018038754E00803375820212350F802BE517A2
:202BBB007027758209122F00122BFA801CE517701875820A122F00122BFA800DE517700950
:202BDB0075820B122F00122BFA7403B5170D7403B51602800675820012350F85161722C065
:202BFB001A85811A058105810581AF827E00A81A087600A81A08087600E51A2403F8760023
:202C1B00EF7003022DD4EF14FA8AF005F07A017B008006EA2AFAEB33FBD5F0F7EA5518FC16
:202C3B00EB5519FD4C60107EFFEAF4FCEBF4FDEC5218ED52198006EA4218EB4219EF24F370
:202C5B005003022DD4EF240A83F582EF241183F583E47357889BA3B1BACAD4E201203F43CB
:202C7B002D2C2C2C2C2C2C2C2C2D2D2D2DE4C0E004C0E0758203122FC015811581022DD4A6
:202C9B00A81A0876FF022D59A81A0876FFA81A080876FF022D59A81A080876FF022D59A8CD
:202CBB001A080876FFE51A2403F876FF022D59E51A2403F876FF022D59E51A2403F876FF91
:202CDB00A81A0876FF8077EE60067D007F0080047D017F00C005E4C0E0758208122FC01574
:202CFB00811581022DD4EE60067D007F0080047D797F00C005E4C0E0758208122FC0158177
:202D1B001581022DD4EE60067D007F0080047DFF7F00C005E4C0E0758208122FC01581153C
:202D3B0081022DD47EFF8016A81A0876FFA81A080876FFE51A2403F876FF8002807BC00685
:202D5B00E4C0E0C0E0758203122FC015811581D006EE60067D007F008007A81A0886057F8C
:202D7B0000C006C005E4C0E0758205122FC015811581D006EE60067D007F008008A81A0888
:202D9B000886057F00C006C005E4C0E0758206122FC015811581D006EE60067E007F008026
:202DBB0009E51A2403F886067F00C006E4C0E0758207122FC015811581851A81D01A227FA6
:202DDB0000C007122E46AE82D007EE70038E82228FF005F07C017D008006EC2CFCED33FDCC
:202DFB00D5F0F7EC54577005ED54056009BE0102800D75820022BE02028004758200220F6C
:202E1B00BF0C0040BC7F0D8F061F8F05EE6016C007C005122E46AE82D005D007EE7003F554
:202E3B008222BE02E2EDC313F582227EB87F0B8E048F051EBEFF011FEC4D600330B7F0EE93
:202E5B004F7003F582227E007F007CB87D0B8C028D031CBCFF011DEA4B600A30B7070EBED7
:202E7B0000EC0F80E9EC4D7003F58222C374E99EE49F50067E027F0080047E017F008E8266
:012E9B002214
:202E9C00C01A85811AE582C454F0FFE51A24FDF8E6700375E4A0E51A24FDF8E4B60101048C
:202EBC00FE7D00EE6017EF2D2400FBE43401FCED243CF987028B828C83EAF08012ED243C22
:202EDC00F9EF2D2400F582E43401F583E0FCF70DBD100040CEEE600975E49075E4C0000081
:202EFC0000D01A22AF82BF10077480553CF58222EF243CF98706EF24F15003022FBDEF2458
:202F1C000A83F582EF241383F583E4734664646CBDBDBDBDBD878787BDBDA22F2F2F2F2F52
:202F3C002F2F2F2F2F2F2F2F2F2F8E057F00747F5DF5828F837403C0E0E4C0E0123648ADDC
:202F5C0082158115818D8222EE70027E018E82228E057F007407C0E0E4C0E08D828F831281
:202F7C003648AD82158115818D82228E057F00740DC0E0E4C0E08D828F83123648AD82157F
:202F9C008115818D82228E057F007403C0E0E4C0E08D828F83123648AD82158115818D8205
:202FBC00228E8222C01A85811AAF827480553CFEE51A24FDF8B60102800AE51A24FDF8B6CA
:202FDC000216800AEF243CF9E7FD04F78033EF243CF9E7FD14F78029BF101BE51A24FCF878
:202FFC00E6600BAC3C7D004304808C3C8013747F553CF53C800BEF243CF8E51A24FCF9E757
:20301C00F6EF7024EE6013EF243CF9EF243CF886067D00430680A706800EEF243CF9EF24C3
:20303C003CF88607747F5FF77401C0E0758200122E9C1581D01A22AF82C0071230B3AD82C4
:20305C00AE83D007BF011274FE2E50067D017E00801A0DBD00160E8013C374019DE49E40D6
:20307C00067D007E0280051DBDFF011E8D07C006C005C007E4C0E075820D122FC01581159A
:20309C0081D005D0068E05C005E4C0E075820C122FC01581158122AF487E00AC497D00EEE5
:0A30BC004204EF42058C828D83224E
:203FC0008206090000000000000B0C0A000100008206090000000000000B0C0A000100007B
:203FE0008206090000000000000B0C0A000100008206090000000000000B0C0A000100005B
:2000FE00E4F551F552F553F554F555F556F557F558F559F55AF55BF55F754E00754F047571
:02011E0050018E
:2030C600C01AE581F51A2404F581A81A08E4F608F608F608F6AB5B055B530303EB2B245313
:2030E600F9758200C001120481E5828583F0D001F709A7F07B00EB701FEB2B2453F9C0037D
:20310600870209870319A81A08A60208A603087600087600D0038025EB2B2453F9C003870D
:2031260002098703197E007F00A81A08EA26F6EB0836F6EE0836F6EF0836F6D0030BBB040D
:203146000040B3A81A08080808E6C313FF18E613FE18E613FD18E613FCEFC313FFEE13FEEC
:20316600ED13FDEC13FCC3948CED9400EE9400EF94005005534F7D8031C374B99CE49DE4D2
:203186009EE49F5010AA4F4302028A4F7B004302808A4F8015C374AA9CE49DE49EE49F508E
:2031A60009AE4F7F004306808E4FE54F30E406D2B4D2B3800AE54FA2E1920092B492B32007
:2031C600A6187401B5500EAF510551EF24F2501F755000801A7551008015E550700EAF516C
:2031E6000551EF24DD5008755001800375510075820F122F00E5827028E5507013E552F4F3
:20320600F5526006C290D2A0801BD290D2A08015E54F30E706C290D2A0800AD290C2A08050
:2032260004D290D2A0758210122F00E58260030233FBE52C70030233F6754E01755E0175B2
:20324600820012355675820E122F00E5827057AF21BF14005005754E008014BF640050040F
:203266007F04800BBFC80050047F0280027F01EFB55E0280028F5EE522FFB55C0280088F39
:203286005C855C4C754DFFE523FFB55D0280058F5D754E027480252B400302344675820192
:2032A600123556023446AF21BF14005006754E00023446BF280050197403B55C08740DB5A1
:2032C6005D03023446755C03755D0D754E02023446BF3C0050197403B55C087415B55D0386
:2032E600023446755C03755D15754E02023446BF500050197403B55C087422B55D03023467
:2033060046755C03755D22754E02023446BF640050197403B55C087437B55D03023446758B
:203326005C03755D37754E02023446BF780050197408B55C087415B55D03023446755C08B6
:20334600755D15754E02023446BF8C0050197408B55C087422B55D03023446755C08755D24
:2033660022754E02023446BFA00050197408B55C087437B55D03023446755C08755D3775F4
:203386004E02023446BFB40050197408B55C087459B55D03023446755C08755D59754E02C3
:2033A600023446BFC80050197408B55C087490B55D03023446755C08755D90754E0202343B
:2033C60046BFDC0050177415B55C077437B55D02806E755C15755D37754E028063E55C7009
:2033E60004E55D605B755C00755D00754E028050754E02804B758200122F00AF827402C35C
:203406009FFF8FF005F07401800225E0D5F0FBFFB55E0280058F5E754E02758201122F0054
:20342600E582FFB55C0280058F5C754E02758202122F00E582FFB55D0280058F5D754E02EE
:203446007402B54E09754E00855D4C754D00E54E7003023503055F758210122F00E58270CE
:2034660024E55C6004E55D701C855EF0E55F84E5F0700975820112350F023509758200122F
:20348600350F023509AE5F7F007408C0E0E4C0E08E828F83123648AE82AF8315811581EE48
:2034A6004F7002154CE54C702FE54D70057E01FF80047E007F008E8212350FE54D7004AFB3
:2034C6005C8002AF5D8F4CE54D70057EFFFF80047E007F008E4D802BE54D7007F582123590
:2034E6000F8020855EF0E55F84E5F0700875820112350F800E75820012350F800675820089
:2035060012350F851A81D01A22AF82BF0102800ABF0202801FBF03358030E5506013AE4FF8
:203526005306807F00BE8009BF0006C2A5534FFD22D2A522AE4F5306807F00BE8009BF0005
:2035460006C2A5534FFD22D2A522C2A522D2A522AF82BF0108AE4F4306108E4F22534FEF9D
:013566002242
:20356700E58124FEF8E6F918E6F87A10E4FBFCE58225E0F582E58333F583EB33FBEC33FC60
:11358700EB98F5F0EC994006FCABF0438201DADF22C8
:06007800E478FFF6D8FD5C
:200056007900E94400601B7A0090399D780175A000E493F2A308B8000205A0D9F4DAF2757A
:02007600A0FFE9
:2035980074FE2581F8E68582F0A4C0E08582F018E6A4F582D0E025F0C58386F0A42583F50E
:0235B80083226C
:20007E007800E84400600A790175A000E4F309D8FC7800E84400600C7900900001E4F0A380
:04009E00D8FCD9FAB7
:2035BA00F9E58124FBF886020886030886040886057800EA4B4C4D60587800C308ED20E708
:2035DA0027EA25E0FAEB33FBEC33FCED33FDE5829AE5839BE5F09CE99D50E1C3ED13FDEC98
:2035FA0013FCEB13FBEA13FAE5829AE5839BFEE5F09CFFE99D400AF98FF08E83E5829AF5F1
:12361A0082C3ED13FDEC13FCEB13FBEA13FAD8D8E922B6
:0D00490075815F1236CAE582600302004631
:1C362C0020F71430F6148883A88220F507E6A88375830022E280F7E49322E022AD
:20364800C2D5E58330E70DD2D5E4C39582F582E49583F583E58124FEF8E630E70918E4C3AA
:1D36680096F6E40896F6860118860012368F30D50BE4C39582F582E49583F583226A
:20368500E58124FEF88601188600E84960367A01E825E0F8E933400EF9E58298E5839940B6
:2036A500030A80ECC3E913F9E813F8C3E58298F5F0E583994005F58385F082C3E913F9E8E5
:0536C50013F8DAE72212
:0436CA0075820022E3
:00000001FF
