:04000000020049327F
:03000B000223B815
:0100130032BA
:01001B0032B2
:03002300021CFFBD
:01002B0032A2
:01003300329A
:01003B003292
:03004300021D7B20
:03011000020046A4
:03004600020113A1
:2001130075BF5075B721D2AFD2A375E63F75E5C07572007582001226BD75D909D2B4D2B31C
:20013300122884C293C295C292903C00121A5F901E00121A5F908000121A5F903000121AD7
:200153005F900200121A5F900080121A5F900080121A5F907080121A5F905080121A5F9054
:200173005080121A5F907080121A5F900080121A5F900080121A5F900080121A5F90108015
:20019300121A5F903080121A5F907080121A5F903080121A5F901080121A5F900080121A39
:2001B3005F90F880121A5F900080121A5F900080121A5F900080121A5F900080121A5F903E
:2001D3000080121A5F900080121A5F90F880121A5F90F880121A5F900080121A5F90008095
:2001F300121A5F900080121A5F900080121A5F90F880121A5F90F880121A5F90F880121AD1
:200213005F90F880121A5F900080121A5F90F880121A5F90F880121A5F90F880121A5F90F5
:20023300F880121A5F90F880121A5F90F880121A5F90F880121A5F902080121A5F907080B4
:20025300121A5F900080121A5F905080121A5F907080121A5F905080121A5F900080121A48
:200273005F90F880121A5F90F880121A5F900080121A5F900080121A5F905080121A5F9035
:200293007080121A5F905080121A5F900080121A5F900080121A5F900080121A5F90C08044
:2002B300121A5F90D880121A5F900080121A5F900080121A5F908880121A5F907080121A28
:2002D3005F900080121A5F1204EBAE8E4306088E8E758900D2A912237175D34875D4027CF1
:2002F300DD7D8A7E147F008C008D018E028F031CBCFF091DBDFF051EBEFF011FE8494A4B3B
:2003130070E5D29FD29ED29DD29C75CAFD75CBFFD2CDD2CCC2CBD2CAC2C9C2C8759BFC7540
:200333009AD0AAE84302018AE8D2ACC2A3758201C007C006C005C004122C73D004D005D0DB
:2003530006D007757290E4F573F574F5758C828D838EF0EFC007C006C005C004122CADA8E3
:2003730082A983AAF0FBD004D005D006D007E8494A4B7013C007C006C005C004122884D0E4
:2003930004D005D006D007757259E4F573F574F5758C828D838EF0EFC007C006C005C004C4
:2003B300122CADA882A983AAF0FBD004D005D006D007E8494A4B7013C007C006C005C0049F
:2003D300122414D004D005D006D007757203E4F573F574F5758C828D838EF0EFC007C00649
:2003F300C005C004122CADA882A983AAF0FBD004D005D006D007E8494A4B7013C007C0065F
:20041300C005C0041204EBD004D005D006D0078C008D018E028F030CBC00090DBD00050EFF
:20043300BE00010F888289838AF0EBC007C006C005C004121DA8D004D005D006D007020318
:010453005652
:20045400858272E4F573F574F575F576FAE5726007D29775DA888005D29475DA817908E968
:2004740014F970FBE5DA30E4FBA8DB7900E828F8E933F9E828F8E933F9AFDC7E00E84207B2
:20049400E9420653DA7F8E04E4FDFEEF2573F573EC3574F574ED3575F575EE3576F5760AFE
:2004B400BA200040A8AC73E574C403CCC40354076CCC5407CC6CCCFDE575C40354F84DFDEE
:1704D400AE75E576C403CEC40354076ECE5407CE6ECE8C828D8322FB
:1E00A200750B007510007512007513007514007515007516007508457509FF750AFFD1
:2004EB001215CBAF82E4BF050104FE7003BF0B21EE60067D027E0080047D037E008D82C023
:20050B0007122C2CD007AD0B7E004305808D0B8012E50B30E70D758200C007122C2CD0074D
:20052B00530B7FBF0734758210C007122713AE82D007BE80067D007E0080047D807E008DED
:20054B0066756500758210C0071227A77508007509FF756902122884D007BF01107401B539
:20056B0069057569028003756901022884BF0802800302061675820F122713E582F4F566A0
:20058B0075650075820F1227A7908000121A5F75820F122713E582601775210F7522007514
:2005AB002300752400902DF075F08012180C801575210F752200752300752400902E007577
:2005CB00F08012180C75210F752200752301752400902E0F75F08012180C750CB5750DD884
:2005EB00750E07750F00A80CA90DAA0EAE0F150C74FFB50C0C150DB50D07150EB50E0215BA
:20060B000FE8494A4E70DF7509FF22BF090280030206C6747F550BFE908000C006121A5F3C
:20062B00D0068E047D007572038D738C828D83C006122DB6E582FC2CFC2428F582C00412E3
:20064B0013C2AA82AB83ADF07521107522007523007524008A828B838DF012180CD0047440
:20066B00292CF5821213C2AB82AC83ADF07521107522007523017524008B828C838DF012A9
:20068B00180CD006EE04547F420B750CDD750D8A750E14750F00A80CA90DAA0EAE0F150CBE
:2006AB0074FFB50C0C150DB50D07150EB50E02150FE8494A4E70DF7509FF22BF04067508FB
:2006CB00007509FFE509702DBF03028028BF1E028023BF1F02801EBF0A028019BF64028092
:2006EB0014BF6502800FBF0C02800ABF02028005E508600122AE08BE0103020794BE02033F
:20070B0002079EBE0303020799BE04030207A3BE05030207A8BE06030207ADBE070302078B
:20072B00ADBE08030207ADBE09028076BE0A028076BE0B028071BE0C02806CBE0D02806CD6
:20074B00BE0E028067BE14028067BE15028067BE4569908000121A5F752110752201752385
:20076B0000752400902E1F75F08012180C752110752200752301752400902E2E75F080128B
:20078B00180C7509FF750800228F82020AA58F82020BD78F82020C868F82020D358F82024A
:2007AB000DE18F82020EAE8F82020FC48F820210E28F820211FA8F8202127EC0071207E6FF
:2007CB00D007BF0209751700758201021320BF0C0975170075820202132022E509700302A1
:2007EB0008CD908000121A5F750900750AFF7510FF751155E56B7033E56A30E72E752110F6
:20080B00752201752300752400902E3E75F08012180C752110752200752301752400902EC0
:20082B004D75F08012180C7512FF22E512600C7401B56B067512007509FF22758210122739
:20084B0013E5826017752110752201752300752400902E5D75F08012180C806612287375EF
:20086B0025047526017527001218D075820E122713AF82BF01028005BF020A80047F0380F8
:20088B00067F0180027F0A7E0075250C7526018E278F828E831218D0752104752200752362
:2008AB0001752400902E6975F08012180C752104752209752301752400902E6E75F08012C2
:2008CB00180C05137401B56955E5157008AE14FF4306208E14E5687016E51430E535752BF5
:2008EB000E752C00758280121A2A5314DF802474B7B5130E752B0E752C00758280121A2A6A
:20090B008011743FB5130C752B0E752C00758204121A2AAE147F004306108E14802E7401B5
:20092B00B51509AE147F004306108E14E51430E418752B0E752C00758204121A2AAE147F97
:20094B00004306208E145314EF751500E56A30E716E51430E049752B0F752C00758260121A
:20096B001A2A5314FE8038E513702BE51430E111752B0F752C00758204121A2A5314FD80D8
:20098B0015752B0F752C007582A0121A2AAE147F004306028E14AE147F004306018E14752A
:2009AB008210122713E5826003020A45E5366028E50A30E7497521067522017523007524DC
:2009CB0000902E7375F08012180CAE0A7F004306408E0A530A7F8026E50A30E62175210624
:2009EB00752201752300752400902E7A75F08012180CAE0A7F004306808E0A530ABFE567D0
:200A0B00FFB51001228F057E007525078E268E278D828E83C0071218D0D007E56870057DD1
:200A2B0092FE80047D227E008D82752B0B752C00C007121A2AD0078F1022E568FFB5110256
:200A4B008037EF7019752109F522752301F524902E8175F080C00712180CD00780197521CD
:200A6B0009752200752301752400902E8A75F080C00712180CD0078F11E567FFB5100122C5
:200A8B008F057E0075250C7526018E278D828E83C0071218D0D0078F1022AF82BF02028055
:200AAB0031BF0302800ABF0A028016BF0C36802B7565017566007582001227A7750AFF8014
:200ACB00237565027566007582001227A7750AFF801275170075820102132075170075820E
:200AEB0002021320E5096021750900750AFF908000121A5F75210A75220375230075240043
:200B0B00902E9375F08012180CE50A700122750A00758200122713AF82BF02028030BF04B3
:200B2B00667582021213C2AD82AE83AFF07521107522037523017524008D828E838FF01242
:200B4B00180C752B0C752C01758240021A2A7582011213C2AD82AE83AFF07521107522037D
:200B6B007523017524008D828E838FF012180C752B0C752C01758240121A2A752B0D752C3A
:200B8B00017582C0021A2A7582001213C2AD82AE83AFF07521107522037523017524008D70
:200BAB00828E838FF012180C752B0C752C01758240121A2A752B0D752C017582C0121A2AAB
:200BCB00752B0E752C01758220021A2AAF82BF0202803BBF03028014BF0A028020BF0C021E
:200BEB008035BF1F028005BF653680117565017566007582021227A7750AFF802375650259
:200C0B007566007582021227A7750AFF801275170075820102132075170075820202132092
:200C2B00E5096036750900750AFF908000121A5F75210D752202752300752400902E9D7551
:200C4B00F08012180C752108752208752301752400902EAA75F08012180CE50A601C750A07
:200C6B0000758202122713AF827E007525047526018E278F828E830218D022AF82BF020264
:200C8B00803BBF03028014BF0A028020BF0C028035BF1F028005BF65368011756501756643
:200CAB00007582011227A7750AFF80237565027566007582011227A7750AFF801275170005
:200CCB00758201021320751700758202021320E5096036750900750AFF908000121A5F7592
:200CEB00210D752202752300752400902EB275F08012180C752108752208752301752400F7
:200D0B00902EAA75F08012180CE50A601C750A00758201122713AF827E007525047526012E
:200D2B008E278F828E830218D022AF82BF0202803BBF03028014BF0A028020BF0C028035D1
:200D4B00BF1F028005BF653680117565017566007582031227A7750AFF80237565027566D0
:200D6B00007582031227A7750AFF8012751700758201021320751700758202021320E5091D
:200D8B006021750900750AFF908000121A5F752107752206752300752400902EBF75F08063
:200DAB0012180CE50A602E750A00758203122713AF8274142FF5821213C2AD82AE83AFF06B
:200DCB007521107522037523017524008D828E838FF002180C22AF82BF0202803BBF03023C
:200DEB008014BF0A028020BF0C028035BF1F028005BF653680117565017566007582041254
:200E0B0027A7750AFF80237565027566007582041227A7750AFF801275170075820102139D
:200E2B0020751700758202021320E5096021750900750AFF908000121A5F75210C7522038B
:200E4B00752300752400902EC675F08012180CE50A604F750A00758204122713E582701468
:200E6B00752110752203752301F524902ED275F08002180C75211075220375230175240068
:200E8B00902ED675F08012180C758204122713AF827E007525067526018E278F828E83028D
:200EAB0018D022AF827E00AD08BD0602800FBD07028012BD08028009BD0910800C7E058058
:200ECB000A7E0680067E0780027E08BF02028041BF03028014BF0A028023BF0C02803BBFD5
:200EEB001F028005BF653C80147565017566008E82C0061227A7D006750AFF80267565020B
:200F0B007566008E82C0061227A7D006750AFF801275170075820102132075170075820211
:200F2B00021320E5096035750900750AFF908000C006121A5FAF0874C82FF5821213C2AC65
:200F4B0082AD83AFF07521107522037523007524008C828D838FF012180CD006E50A605874
:200F6B00750A008E82C006122713122713E582D0067014752110752206752301F524902E05
:200F8B00D275F08002180C752110752200752301752400902ED675F080C00612180CD006AF
:200FAB008E82122713AF827E007525067526018E278F828E830218D022AF82AE087410C3CE
:200FCB009EFE7D00AC08BC0A02800ABC0B028009BC0C0C80087D0980067D0A80027D0BBFDD
:200FEB000202803FBF0302800ABF0A02801DBF0C4480397565017566008D82C006C0051243
:20100B0027A7D005D006750AFF802A7565027566008D82C006C0051227A7D005D006750AC9
:20102B00FF8012751700758201021320751700758202021320E509606C750900750AFF905B
:20104B008000C006C005121A5F752110752201752300752400902ED775F08012180CD005FB
:20106B00D006BE0402800ABE05028017BE06368024752B08752C0075822CC005121A2AD0F0
:20108B00058022752B08752C007582ACC005121A2AD0058010752B08752C0075826CC005C1
:2010AB00121A2AD005E50A602D750A008D82122713AF82743C2FF5821213C2AD82AE83AF27
:2010CB00F07521107522047523017524008D828E838FF002180C22AF82BF0203021178BF7C
:2010EB00030302116ABF0A03021171BF0C03021181BF1E02800302118A75F003E51684AF1B
:20110B00F0740DB508067D017E0080047D007E008D728F821226BD7521107522007523013A
:20112B00752400902ED675F08012180C740DB50817752110752206752301752400902EE7ED
:20114B0075F08012180C8037752110752206752301752400902EEE75F08012180C802005D1
:20116B0016750AFF80191516750AFF8012751700758201021320751700758202021320E5A4
:20118B0009603D750900750AFF908000121A5F740DB5081775210E75220275230075240044
:2011AB00902EF675F08012180C801575210E752202752300752400902F0475F08012180C74
:2011CB00E50A602A750A0075F003E5168485F0821213C2AD82AE83AFF07521107522067590
:2011EB0023017524008D828E838FF002180C22AF82BF0202802FBF03028014BF0A02801AE0
:20120B00BF0C028029BF1F028005BF652A800B758201122820750AFF801D7582021228204F
:20122B00750AFF8012751700758201021320751700758202021320E5096021750900750AB4
:20124B00FF908000121A5F75210C752202752300752400902F1275F08012180CE50A601230
:20126B00750A001228737525047526017527000218D022AF82BF02028031BF0302800ABFA3
:20128B000A028016BF0C36802B75650175660075820E1227A7750AFF802375650275660082
:2012AB0075820E1227A7750AFF8012751700758201021320751700758202021320E509606D
:2012CB0021750900750AFF908000121A5F752111752200752300752400902F1E75F0801208
:2012EB00180CE50A602E750A0075820E122713AF8274642FF5821213C2AD82AE83AFF07568
:20130B0021107522017523017524008D828E838FF002180C22AF827509FFBF01028008BF29
:20132B000202803D0213A5850817758210122713E5827017E51770067517140213BA051745
:20134B00E51724EA50697517008064E5177005751701805B0517E51724F1505375080080A9
:20136B004E850817758210122713E5827016E51770057517158038150874EC2508403075D7
:20138B000800802BE517700575170E8022150874EB2508401A7508008015E51724F1500C60
:2013AB0074EC25175009E51724EA40037517008517082285088222AF828F06BE00030214C0
:2013CB00C1BE01030214BABF02030214B3BF14030214C8BF15030214CFBF16030214D6BF2F
:2013EB0017030214DDBF18030214EBBF19030214F2BF1A030214E4BF280302159ABF2903BB
:20140B000215A1BF2A030215A8BF2B030215AFBF2C030215B6BF2D030215BDBF3C03021518
:20142B0015BF3D0302151CBF3E03021523BF3F0302152ABF4003021531BF4103021538BF83
:20144B00420302153FBF4303021546BF440302154DBF4503021554BF460302155BBF470325
:20146B00021562BF4803021569BF5003021570BF5103021577BF520302157EBF640302153E
:20148B0085BF650302158CBF6603021593BFCE030214F9BFCF03021507BFD003021500BF6A
:2014AB00D10302150E0215C4902F2F75F08022902F3575F08022902F3A75F08022902ED2CD
:2014CB0075F08022902F4175F08022902F4975F08022902F4E75F08022902F5475F08022B6
:2014EB00902F5A75F08022902F5F75F08022902F6575F08022902F6F75F08022902F7B758D
:20150B00F08022902F8675F08022902F9375F08022902F9D75F08022902FAA75F080229026
:20152B002FAE75F08022902FB575F08022902FBB75F08022902FC075F08022902FC575F051
:20154B008022902FCD75F08022902FD975F08022902FE775F08022902FF375F08022902F87
:20156B00FC75F0802290300575F0802290300C75F0802290301375F0802290301A75F08025
:20158B002290302175F0802290302F75F0802290303575F0802290304475F0802290305326
:2015AB0075F0802290306475F0802290307575F0802290308675F0802290000075F000224E
:202DF00054616E6B204C6967687473204F66660054616E6B204C6967687473204F6E004633
:202E1000756E2B4D616E20746F20556E646F0041746D6F73464541522032323142004279EB
:202E300020426C697A7A6172642050726F005043204C6F6164204C657474657200427572E3
:202E5000737420746F20526566696C6C004D616E75616C204D6F64650041646472004D6FC0
:202E7000646500444D58204F6B004E6F20444D5800496E74657276616C0044757261746942
:202E90006F6E00466F67204C6576656C00466F6720496E74657276616C005365636F6E6434
:202EB0007300466F67204475726174696F6E004D6163726F73004D6163726F205370656509
:202ED00064004F6666000052656D6F7465205820416374696F6E00536176656421004C6F32
:202EF000616465642100536176652053657474696E6773004C6F61642053657474696E6795
:202F10007300444D58204164647265737300444D58204368616E6E656C204D6F64650057A1
:202F3000696D7079004D696C6400426C617A696E005261696E626F770046697265005761CC
:202F50007465720053746F726D004163696400457468657200526564204C6576656C00471E
:202F70007265656E204C6576656C00426C7565204C6576656C005374726F6265204C657629
:202F9000656C004E6F20416374696F6E0043686F6F7365204D6163726F00526564005965C9
:202FB0006C6C6F7700477265656E004379616E00426C7565004D6167656E74610053747249
:202FD0006F626520536C6F77005374726F6265204D656469756D005374726F6265204661C0
:202FF000737400426C61636B6F75740057686974656F757400536C6F74203100536C6F74B7
:20301000203200536C6F74203300313020416C6C003320466F67202B204D6163726F0031C2
:2030300020466F670030783438364636433644363537330026203537363137343733364682
:203050003645003632364637343638344637373645343100353336453646373736323631C4
:203070003643364300344436463732363936313732373437390036343646363537333445A3
:0730900036463734203B00F7
:0600C0007518007519001F
:2015CB00758201120454AE82AF837D00C3EE94A2EF9403402674FD2519501A74DE25194003
:2015EB00147403B518028007740AB5180880047D0380027D0A751800751900C3747A9E74C1
:20160B00039F402574669E74039F501D7402B5181274FD2519400F051974FD251950077DC9
:20162B00028003751900751802C374489E74039F4029742F9E74039F50217403B5181674CB
:20164B00DE2519400C051974DE2519500B7D1E80077D1F8003751900751803C374AA9EE44C
:20166B009F4028748C9EE49F5021740AB5181674DE2519400C051974DE2519500B7D64801F
:20168B00077D65800375190075180AC374019EE49F4021EE4F601D740CB5181274FD25192C
:2016AB00400F051974FD251950077D0C800375190075180CC374989E74039F402574849EFB
:2016CB0074039F501D7401B5181274FD2519400F051974FD251950077D0180037519007502
:2016EB001801C374129E74029F402574FE9E74019F501D7407B5181274FD2519400F05195E
:20170B0074FD251950077D078003751900751807C374C69E74029F402974A89E74029F5057
:20172B00217405B5181674FD2519400C051974FD2519500B7D0580077D05800375190075ED
:20174B001805C374EA9E74019F402574CC9E74019F501D7408B5181274FD2519400F051953
:20176B0074FD251950077D088003751900751808C374B89E74019F402574A49E74019F500D
:20178B001D7409B5181274DE2519400F05197434251950077D098003751900751809C37427
:2017AB002A9E74039F402574169E74039F501D7404B5181274FD2519400F051974FD25190E
:2017CB0050077D048003751900751804C3748A9E74029F402974769E74029F5021740BB565
:2017EB00181674FD2519400C051974FD2519500B7D0B80077D0B800375190075180B8D823E
:01180B0022BA
:20180C00AD82AE83AFF07C00E5236008AB2274402BFB8002AB228B82C007C006C005C004B8
:20182C00121CAEAA827B008B8274014AF583121A5FD004D005D006D0070521E524601690BF
:20184C000080C007C006C005C004121A5FD004D005D006D0077B00C3EB9521400122EC7067
:20186C0045EB2DF8E43EF98F02888289838AF0122D9AFA602D8A82C007C006C005C004C089
:20188C0003121AA5AA828A0189027900748049F5828A83121A5FD003D004D005D006D00738
:2018AC00801E7C01801A900480C007C006C005C004C003121A5FD003D004D005D006D007C6
:2018CC000B021863AE82AF837D00752804752904752A0CC3EE94E8EF940340047EE77F03C9
:2018EC00E5266008AC2574402CFC8002AC258C82C007C006C005121CAEAB827C008C827402
:20190C00014BF583121A5FD005D006D007E5276014900080C007C006C005121A5FD005D0D8
:20192C0006D0078012900480C007C006C005121A5FD005D006D0077572647573008E828FE7
:20194C0083C007C006C005122C84AB82AC83D005D006D007EB4C60398B0274302AF582C0A4
:20196C0007C006C004C003121AA5E582D003D004F5287D018B728C73900064C005122D3069
:20198C00AB82AC83D005D006D007EEC39BFEEF9CFF75720A7573008E828F83C007C006C041
:2019AC0005122C84AB82AC83D005D006D007ED7004EB4C60338B0574302DF582C007C006E6
:2019CC00C004C003121AA5E582D003D004F5298B728C7390000A122D30AC82AD83D006D06E
:2019EC0007EEC39CFEEF9DFF74302EF582121AA5E582F52AAF287E0074804EF5828F83122C
:201A0C001A5FAF297E0074804EF5828F83121A5FAF2A7E0074804EF5828F83021A5FAF82C7
:201A2C00E52C6008AE2B74402EFE8002AE2B8E82C007121CAEAD827E008E8274014DF58363
:201A4C00121A5FD0078F067F0074804FF5828E83021A5FAE82AF834306208E828F83C0070A
:201A6C00C006121C7AD006D0075306DF8E828F83C007C006121C7AD006D007E4BE0004BF9E
:201A8C00800104FF7D007E038D038E041DBDFF011EEB4C6003EF70F022AF82BF260050032A
:201AAC00021C76EF24855003021C76EF24DAFF240A83F582EF245983F583E4736E76767665
:201ACC00766A7676767642464A4E52565A5E626676727676767676727A828A929AA2AAB2A2
:201AEC00BAC2CAD2DAE2EAF2FA020A121A222A323A767676767676767E868E969EA6AEB636
:201B0C00BEC6CED6DEE6EEF6FE060E161E262E363E1C1C1C1C1C1C1C1C1C1C1C1C1C1C1C37
:201B2C001C1C1C1C1C1C1C1C1C1C1C1C1B1B1B1B1B1B1B1B1B1B1B1B1B1B1B1B1B1B1C1C2B
:201B4C001C1C1C1C1C1C1C1C1C1C1C1C1B1B1B1B1B1B1B1B1B1B1B1B1B1B1B1B1B1B1C1C0B
:201B6C001C1C1C1C1C1C758282227582862275824222758246227582C2227582C62275820C
:201B8C002222758226227582A2227582A62275826222758266227582E2227582E622758251
:201BAC00122275821622758292227582962275825222758256227582D2227582D6227582B1
:201BCC003222758236227582B2227582B62275827222758276227582F2227582F622758291
:201BEC000A2275820E2275828A2275828E2275824A2275824E227582CA227582CE227582B1
:201C0C002A2275822E227582AA227582AE2275826A2275826E227582EA227582EE22758290
:201C2C001A2275821E2275829A2275829E2275825A2275825E2275820C2275828C22758210
:201C4C004C227582CC2275822C227582AC2275826C227582EC2275821C2275829C227582B0
:201C6C00D422758264227582602275820422AE82AF837D048DF005F07B017C008006EB2B66
:201C8C00FBEC33FCD5F0F7EE5203EF5204EB4C24FF9295D293C2930DBD100040D7D292C28C
:201CAC009222AF827E007D008DF005F07B80E4FC3392D28008A2D2EC13FCEB13FBD5F0F5AA
:201CCC008F017A00E95203EA5204EB4C60067B017C0080047B007C008D048CF005F0EB80F3
:131CEC000225E0D5F0FB8E044CFE0DBD080040B88E822246
:0800C600753600E4F537F5384A
:201CFF00C020C0E0C0F0C082C083C007C006C005C004C003C002C001C000C0D075D000120D
:201D1F002873AE82AF83759BFC759AD07536FF74012537F537E43538F538C3E5379EE538FD
:201D3F009F401A74092EFCE43FFDC3E5379CE5389D500AE537FDC39E242DF8A699C298D009
:201D5F00D0D000D001D002D003D004D005D006D007D083D082D0F0D0E0D02032C0E0E53705
:201D7F004538701AF536F52DF52EF52F753000753100753200753300753400753500E4F5E3
:091D9F0037F5385391EFD0E03222
:2000CE00753900753E00753F00754000754100754D01E4F54EF54FF550755101F552F553C9
:0200EE00F554C7
:201DA800AC82AD83AEF0FF758210C007C006C005C004122713E582D004D005D006D007609A
:201DC80003021EC975820EC007C006C005C004122713AB82D004D005D006D007BB000280E8
:201DE80009BB0103021E89022371AB34BB14004036BB9400500C8B02EA24EC25E0F5820200
:201E0800230F8B82C007C006C005C004121F8E858242D004D005D006D0078535438C828D6F
:201E2800838EF0EF021FD3E533FB60417A00EB2BFBEA33FA741CC39BFB74029A8B72F57302
:201E48003395E0F574F5758C828D838EF0EF122CAD85823A85833B85F03CF53DE53A453B83
:201E6800453C453D700AE539F4F53980037539FFE539600A8530BD8531AD8532B52202235D
:201E880071AB2EBB14004036BB9400500C8B02EA24EC25E0F58202230F8B82C007C006C06F
:201EA80005C004121F8E858242D004D005D006D007852F438C828D838EF0EF021FD3022358
:201EC80071758203C007C006C005C004122713E582D004D005D006D0076031758203C0071E
:201EE800C006C005C004122713AB82758204C003122713858243D003D004D005D006D00795
:201F08008B428C828D838EF0EF021FD3758208C007C006C005C004122713AB82D004D00536
:201F2800D006D007EB60397A00EB2BFBEA33FA741CC39BFB74029A8B72F5733395E0F57457
:201F4800F5758C828D838EF0EF122CADAC82AD83AEF0FFEC4D4E4F700AE539F4F53980038B
:201F68007539FFE539601C7582051227138582BD7582061227138582AD758207122713853A
:201F880082B522022371AF82BFB400500475822122BFBE00500475820122BFC800500475DD
:201FA800820222BFD200500475820322BFDC00500475820422BFE600500475820522BFF0A0
:201FC800005004758206227582452285824485834585F046F547E4F548F549F54AF54BF5C6
:201FE8004CE543C313FE7D007485C39EFEE49DFD8E72EDF5733395E0F574F575854482859E
:2020080045838546F0E547122CADAC82AD83AEF0FFEC4D4E4F7013754CFF12237B8582480B
:2020280085834985F04AF54B053E7401B5420280427402B5420280417403B542047401803E
:2020480001E4FF60030221257404B542030221257405B542030221257406B542030221E3FA
:202068007421B542030222437445B5420302224602230C853E8202230FE54C70012274C99A
:20208800253F400C753F37AD417E004305018D41E54130E00E74FFB53F055341FE80200533
:2020A8003F801CAD3F7E001DBDFF011EBD370EBE000BAD417E004305018D418002153FE5D2
:2020C8003FF5BD0303543FFE8E72757300757400757500854882854983854AF0E54B122CE8
:2020E800ADAB828BAD75720DE4F573F574F575854882854983854AF0E54B122CADAB82AC60
:2021080083ADF0FEEB4C4D4E700CC3740195ADE433FD7E0080047D007E008DB522E54C70BB
:202128000122E54130E014AE3F74022EF53FC3944B501F5341FE753FFF8017E53FFE24FE34
:20214800F53F247D400CAD417E004305018D41753F82757215E4F573F574F57585488285AE
:202168004983854AF0E54BC007122CADAB82AC83ADF0FED007EB4C4D4E7015E54130E40586
:202188005341EF8028AD417E004305108D41801DE54130E40D054074DE2540501075402263
:2021A800800B1540E54024DB5003754000EF600A8540BD8540AD853FB5227404B5420A8525
:2021C80040BD853FAD75B500227405B54202800122853FBD8540AD853FB522E54C700122D6
:2021E800757259E4F573F574F575854882854983854AF0E54B122CADAC82AD83AEF0FFEC17
:202208004D4E4F7005753FFF8027E53F24375004153F801DE53F247D5009E53FFF24FEF5E1
:202228003F800EE53FFF24FDF53F24375003753F00853FBD853FAD853FB52202236774E082
:20224800253E4040853EF005F07C007D007E007F80800DC3EF13FFEE13FEED13FDEC13FC2D
:20226800D5F0F0EC54BA700FED54B8700AEE543B7005EF54EE600A75BD0075ADFF75B5FFAC
:202288002202237174C0253E403DE53E24E0FF8FF005F07F007E007D007C80800DC3EC130B
:2022A800FCED13FDEE13FEEF13FFD5F0F0EF5438700FEE54BA700AED54B87005EC542860C2
:2022C8000302236702237174AD253E4033E53E24C0FF8FF005F07F007E007D007C80800D5D
:2022E800C3EC13FCED13FDEE13FEEF13FFD5F0F0ED54B87005EC54EB600302236702237148
:20230800753E0022022371AF82BF55005018EF75F003A4F5BD8F06EE75F003A4D394FFF407
:20232800F5AD75B50022BFAA00501B8F06EE24ABFE75F003A4D394FFF4F5BD75AD00EE75E6
:20234800F003A4F5B522EF2456FF75BD0075F003A4F5ADEF75F003A4D394FFF4F5B5227534
:20236800BDFF75ADFF75B5FF2275BD0075AD0075B50022E551254DF551E552354EF552E5B9
:2023880053354FF553E5543550F554E551C3954DF54DE552954EF54EE553954FF54FE554FC
:1023A8009550F5508551828552838553F0E5542226
:0E00F000751C00E4F51DF51E751A00751B0049
:2023B800C020C0E0C0F0C082C083C007C006C005C004C003C002C001C000C0D075D000203F
:2023D800B714AF1A051AEF24F0500E1225FB85821B751A008003751A00758C84758A5FD029
:2023F800D0D000D001D002D003D004D005D006D007D083D082D0F0D0E0D020327582101209
:202418002713E58270045388EF22AE884306108E88E51BFF24F94051EF2F9024367380490D
:20243800800A800D801080168023803075690180387569008033758202122C2C802BE51CBD
:202458007027758209122713122497801CE51C701875820A122713122497800DE51C70096E
:2024780075820B1227131224977403B51C0D7403B51B028006758200122C2C851B1C22AF17
:20249800827E007D007C008E1FEF700122EF14FA8AF005F079017A008006E929F9EA33FAF4
:2024B800D5F0F7E9551DF8EA551EFB4860107EFFE9F4F8EAF4FBE8521DEB521E8006E94257
:2024D8001DEA421EEF24F3500302258EEF240A83F582EF241183F583E4738E0C181D2428C7
:2024F8002E333A526A8286252525252525252525252525257565017566007582030227A704
:202518007DFF02258F7DFF7CFF02258F7CFF80677CFF8C1F8061751FFF805C751FFF7DFFDD
:202538008055EE60067B007F0080047B017F008B667565007582080227A7EE60067B007FF9
:202558000080047B797F008B667565007582080227A7EE60067B007F0080047BFF7F008B7C
:20257800667565007582080227A77EFF80097DFF7CFF8D1F80012275650075660075820339
:20259800C006C005C0041227A7D004D005D006EE60067B007F0080048D037F008B667565C9
:2025B80000758205C006C0041227A7D004D006EE60067D007F0080048C057F008D66756542
:2025D80000758206C0061227A7D006EE60067E007F008004AE1F7F008E667565007582077D
:2025F8000227A77F00C007122667AE82D007EE70038E82228FF005F07C017D008006EC2C68
:20261800FCED33FDD5F0F7EC54577005ED54056009BE0102800D75820022BE0202800475F0
:202638008200220FBF0C0040BC7F0D8F061F8F05EE6016C007C005122667AE82D005D007C9
:20265800EE7003F58222BE02E2EDC313F582227EB87F0B8E048F051EBEFF011FEC4D6003ED
:2026780030B7F0EE4F7003F582227E007F007CB87D0B8C028D031CBCFF011DEA4B600A3087
:20269800B7070EBE00EC0F80E9EC4D7003F58222C374E99EE49F50067E027F0080047E0156
:0526B8007F008E82226C
:2026BD00E582C454F0FFE572700375E4A07401B5720474018001E4FE7D00EE6014EF2D2435
:2026DD0000F582E43401F583ED2455F9E7FCF08012ED2455F9EF2D2400F582E43401F5836A
:2026FD00E0FCF70DBD100040D1EE600975E49075E4C000000022AF82BF100774805555F5EA
:20271D008222EF2455F98706EF24F150030227A4EF240A83F582EF241383F583E473596C92
:20273D006C74A4A4A4A4A4848484A4A4942727272727272727272727272727278E057F00A5
:20275D00747F5DF5828F837572038F73022DB6EE70027E018E82228E057F007572078F739F
:20277D008D828F83022DB68E057F0075720D8F738D828F83022DB68E057F007572038F732A
:20279D008D828F83022DB68E8222AF8274805555FE7401B5650280077402B56516800AEFE0
:2027BD002455F9E7FD04F7802AEF2455F9E7FD14F78020BF1017E566600BAC557D004304B0
:2027DD00808C55800E747F5555F5558006EF2455F8A666EF7024EE6013EF2455F9EF245567
:2027FD00F886067D00430680A706800EEF2455F9EF2455F88607747F5FF775720175820041
:20281D000226BDAF82C007122873AD82AE83D007BF011274FE2E50067D017E00801A0DBDB2
:20283D0000160E8013C374019DE49E40067D007E0280051DBDFF011E8D6675650075820DDC
:20285D00C006C0051227A7D005D0068E6675650075820C0227A7AF617E00AC627D00EC4E51
:07287D00F582ED4FF5832207
:203FC0008006090000000000000B0C0A000100008006090000000000000B0C0A000100007F
:203FE0008006090000000000000B0C0A000100008006090000000000000B0C0A000100005F
:1200FE00756C00756D00757100756900756A04756B01A5
:20288400758200120454AE82AF83C3EE94A0EF94005005756A04801EC374B99EE49F5005CD
:2028A400756A828011C374AF9EE49F5009AE6A7F004306808E6A1213BEAF82BF45028004CC
:2028C400D2B4D2B320A6187401B56B0EAF6C056CEF24DD501F756B00801A756C008015E5A8
:2028E4006B700EAF6C056CEF24DD5008756B018003756C0075820F122713E5827028E56B31
:202904007013E56DF4F56D6006C290D2A0801BD290D2A08015E56A30E706C290D2A0800AA0
:20292400D290C2A08004D290D2A0758210122713E5826003022B2BE5367003022B26756943
:202944000175820E122713E5827049AF2DBF140050057569008014BF640050047F04800B06
:20296400BFC80050047F0280027F01EFB5700280028F70E52EFFB56E0280088F6E856E6748
:202984007568FFE52FFFB56F03022B718F6F756902022B71757001AF2DBF1400500675693A
:2029A40000022B71BF280050197403B56E087408B56F03022B71756E03756F08756902028E
:2029C4002B71BF3C0050197403B56E08740DB56F03022B71756E03756F0D756902022B71B6
:2029E400BF5000E433FE60197403B56E087415B56F03022B71756E03756F15756902022B5A
:202A040071EE60197403B56E087415B56F03022B71756E03756F15756902022B71BF64006A
:202A240050197403B56E087422B56F03022B71756E03756F22756902022B71BF7800501922
:202A44007403B56E087437B56F03022B71756E03756F37756902022B71BF8C0050197408B1
:202A6400B56E087415B56F03022B71756E08756F15756902022B71BFA00050197408B56E10
:202A8400087422B56F03022B71756E08756F22756902022B71BFB40050197408B56E087469
:202AA40037B56F03022B71756E08756F37756902022B71BFC80050197408B56E087459B579
:202AC4006F03022B71756E08756F59756902022B71BFDC0050197408B56E087490B56F0366
:202AE400022B71756E08756F90756902022B71BFF00050177415B56E077437B56F02806DD0
:202B0400756E15756F3775690280627415B56E077459B56F028056756E15756F597569024B
:202B2400804B7569028046758200122713AF828FF005F07401800225E0D5F0FBFFB5700256
:202B440080058F70756902758201122713E582FFB56E0280058F6E75690275820212271397
:202B6400E582FFB56F0280058F6F7569027402B56909756900856F67756800E569700302EC
:202B84002C260571758210122713E582702875820E122713E582701EE56E6004E56F701640
:202BA4008570F0E57184E5F07006758201022C2C758200022C2CAE717F007572088F738E47
:202BC400828F83122DB6E5828583F045F070021567E567702EE56870057E01FF80047E00BA
:202BE4007F008E82122C2CE5687004AF6E8002AF6F8F67E56870057EFFFF80047E007F00A5
:202C04008E6822E5687005F582022C2C8570F0E57184E5F07006758201022C2C75820002B0
:202C24002C2C758200022C2CAF82BF0102800ABF0202801FBF03358030E56B6013AE6A5333
:202C440006807F00BE8009BF0006C2A5536AFD22D2A522AE6A5306807F00BE8009BF000607
:202C6400C2A5536AFD22D2A522C2A522D2A522AF82BF0108AE6A4306808E6A22536A7F2200
:202C84007A10E4FBFCE58225E0F582E58333F583EB33FBEC33FCEB9572F5F0EC9573400690
:092CA400FCABF0438201DADD22F1
:202CAD00F9E57245734574457560777800C308E57520E73BE57225E0F572E57333F573E53B
:202CCD007433F574E57533F575E5829572E5839573E5F09574E9957550D4C3E57513F57573
:202CED00E57413F574E57313F573E57213F572E5829572FCE5839573FDE5F09574FEE9951D
:202D0D00754007F98EF08D838C82C3E57513F575E57413F574E57313F573E57213F572D86A
:032D2D00CEE922CA
:06007800E478FFF6D8FD5C
:200056007900E94400601B7A00903097780175A000E493F2A308B8000205A0D9F4DAF27589
:02007600A0FFE9
:1D2D3000E5828572F0A4C582C0F08573F0A4D0F025F0C5838572F0A42583F5832227
:202D4D00E572457360467A01E57225E0F572E573334012F573E5829572E583957340030A03
:202D6D0080E6C3E57313F573E57213F572C3E5829572F5F0E58395734005F58385F082C37C
:0D2D8D00E57313F573E57213F572DAE122B8
:20007E007800E84400600A790175A000E4F309D8FC7800E84400600C7900900001E4F0A380
:04009E00D8FCD9FAB7
:0D004900758176122DECE582600302004601
:1C2D9A0020F71430F6148883A88220F507E6A88375830022E280F7E49322E02248
:202DB600C2D5E58330E70DD2D5E4C39582F582E49583F583E57330E70BE4C39572F572E417
:162DD6009573F573122D4D30D50BE4C39582F582E49583F5832210
:042DEC0075820022CA
:00000001FF
