:04000000020049327F
:03000B0002256467
:0100130032BA
:01001B0032B2
:03002300021DC7F4
:01002B0032A2
:01003300329A
:01003B003292
:03004300021E4357
:03011000020046A4
:03004600020113A1
:2001130075BF5075B721D2AFD2A375E63F75E5C075740075820012286975D909D2B4D2B36C
:20013300122A30C293C295C292903C00121B27901E00121B27908000121B27903000121BCD
:2001530027900200121B27908880121B2790F880121B27900080121B2790F880121B2790E7
:20017300A080121B27900080121B2790F880121B2790A080121B27900080121B27901080B0
:20019300121B27903080121B27907080121B27903080121B27901080121B27900080121B4B
:2001B3002790F880121B27900080121B27900080121B27900080121B27900080121B279089
:2001D3000080121B27900080121B2790F880121B2790F880121B27900080121B27900080A8
:2001F300121B27900080121B27900080121B2790F880121B2790F880121B2790F880121BE3
:200213002790F880121B27900080121B2790F880121B2790F880121B2790F880121B279040
:20023300F880121B2790F880121B2790F880121B2790F880121B27902080121B27907080C7
:20025300121B27900080121B27905080121B27907080121B27905080121B27900080121B5A
:200273002790F880121B2790F880121B27900080121B27900080121B27905080121B279080
:200293007080121B27905080121B27900080121B27900080121B27900080121B2790C08057
:2002B300121B2790D880121B27900080121B27900080121B27908880121B27907080121B3A
:2002D30027900080121B271204EBAE8E4306088E8E758900D2A912249B75D34875D4027C35
:2002F300DD7D8A7E147F008C008D018E028F031CBCFF091DBDFF051EBEFF011FE8494A4B3B
:2003130070E5D29FD29ED29DD29C75CAFD75CBFFD2CDD2CCC2CBD2CAC2C9C2C8759BFC7540
:200333009AD0AAE84302018AE8D2ACC2A3758201C007C006C005C004122E1FD004D005D02D
:2003530006D007757490E4F575F576F5778C828D838EF0EFC007C006C005C004122E59A82D
:2003730082A983AAF0FBD004D005D006D007E8494A4B7013C007C006C005C004122A30D036
:2003930004D005D006D007757459E4F575F576F5778C828D838EF0EFC007C006C005C004BC
:2003B300122E59A882A983AAF0FBD004D005D006D007E8494A4B7013C007C006C005C004F1
:2003D3001225C0D004D005D006D007757403E4F575F576F5778C828D838EF0EFC007C00694
:2003F300C005C004122E59A882A983AAF0FBD004D005D006D007E8494A4B7013C007C006B1
:20041300C005C0041204EBD004D005D006D0078C008D018E028F030CBC00090DBD00050EFF
:20043300BE00010F888289838AF0EBC007C006C005C004121E70D004D005D006D00702034F
:010453005652
:20045400858274E4F575F576F577F578FAE5746007D29775DA888005D29475DA817908E95C
:2004740014F970FBE5DA30E4FBA8DB7900E828F8E933F9E828F8E933F9AFDC7E00E84207B2
:20049400E9420653DA7F8E04E4FDFEEF2575F575EC3576F576ED3577F577EE3578F5780AEE
:2004B400BA200040A8AC75E576C403CCC40354076CCC5407CC6CCCFDE577C40354F84DFDE8
:1704D400AE77E578C403CEC40354076ECE5407CE6ECE8C828D8322F7
:1E00A200750B007510007512007513007514007515007516007508457509FF750AFFD1
:2004EB0012167FAF82E4BF050104FE7003BF0A21EE60067D027E0080047D037E008D82C06F
:20050B0007122DD8D007AD0B7E004305808D0B8012E50B30E70D758200C007122DD8D007F3
:20052B00530B7FBF0834758210C0071228BFAE82D007BE80067D007E0080047D807E008D3F
:20054B0068756700758210C0071229537508007509FF756B02122A30D007BFC8107401B510
:20056B006B05756B028003756B01022A30BF0902800302061675820F1228BFE582F4F5683C
:20058B0075670075820F122953908000121B2775820F1228BFE582601775210F75220075EE
:2005AB002300752400902F9C75F0801218D4801575210F752200752300752400902FAC7554
:2005CB00F0801218D475210F752200752301752400902FBB75F0801218D4750CB5750DD847
:2005EB00750E07750F00A80CA90DAA0EAE0F150C74FFB50C0C150DB50D07150EB50E0215BA
:20060B000FE8494A4E70DF7509FF22BF070280030206A7908000121B27E56C20E41D7521A3
:20062B000F752202752300752400902FCB75F0801218D4758201122E1F801B75210F75223B
:20064B0002752300752400902FD675F0801218D4758200122E1F7521107522007523017543
:20066B002400902FE075F0801218D4750CB5750DD8750E07750F00A80CA90DAA0EAE0F1537
:20068B000C74FFB50C0C150DB50D07150EB50E02150FE8494A4E70DF7509FF22BF0602800E
:2006AB0003020757747F550BFE908000C006121B27D0068E047D007574038D758C828D8360
:2006CB00C006122F62E582FC2CFC2428F582C004121476AA82AB83ADF0752110752200754F
:2006EB0023007524008A828B838DF01218D4D00474292CF582121476AB82AC83ADF075215F
:20070B00107522007523017524008B828C838DF01218D4D006EE04547F420B750CDD750D96
:20072B008A750E14750F00A80CA90DAA0EAE0F150C74FFB50C0C150DB50D07150EB50E02F6
:20074B00150FE8494A4E70DF7509FF22BF04067508007509FFE509702DBF03028028BF1E1C
:20076B00028023BF1F02801EBF0B028019BF6E028014BF6F02800FBF0102800ABF020280D5
:20078B0005E508600122AE08BE0103020825BE020302082FBE030302082ABE04030208343B
:2007AB00BE0503020839BE060302083EBE070302083EBE080302083EBE09028076BE0A026C
:2007CB008076BE0B028071BE0C02806CBE0D02806CBE0E028067BE14028067BE15028067BF
:2007EB00BE4569908000121B27752110752201752300752400902FF175F0801218D4752186
:20080B001075220075230175240090300075F0801218D47509FF750800228F82020B5D8F2B
:20082B0082020C978F82020D468F82020DF58F82020EA18F82020F6E8F820210818F820202
:20084B0011A08F820212BC8F82021340C007120877D007BF02097517007582010213E2BF62
:20086B0001097517007582020213E222E509700302095E908000121B27750900750AFF7526
:20088B0010FF751155E56D7033E56C30E72E75211075220175230075240090301075F080B4
:2008AB001218D475211075220075230175240090301F75F0801218D47512FF22E512600CF3
:2008CB007401B56D067512007509FF227582101228BFE58260177521107522017523007521
:2008EB00240090302F75F0801218D48066122A1F75250475260175270012199875820E1206
:20090B0028BFAF82BF01028005BF020A80047F0380067F0180027F0A7E0075250C752601CB
:20092B008E278F828E8312199875210475220075230175240090303B75F0801218D475213B
:20094B000475220975230175240090304075F0801218D405137401B56B55E5157008AE149D
:20096B00FF4306208E14E56A7016E51430E535752B0E752C00758280121AF25314DF80247C
:20098B0074B7B5130E752B0E752C00758280121AF28011743FB5130C752B0E752C00758209
:2009AB0004121AF2AE147F004306108E14802E7401B51509AE147F004306108E14E5143073
:2009CB00E418752B0E752C00758204121AF2AE147F004306208E145314EF751500E56C200B
:2009EB00E45EE56C30E716E51430E049752B0F752C00758260121AF25314FE8038E5137090
:200A0B002BE51430E111752B0F752C00758204121AF25314FD8015752B0F752C007582A03C
:200A2B00121AF2AE147F004306028E14AE147F004306018E14AE147F004306088E14801767
:200A4B00E51430E30F752B0F752C00758200121AF25314F74314097582101228BFE5826086
:200A6B0003020AFDE5366028E50A30E74975210675220175230075240090304575F080120C
:200A8B0018D4AE0A7F004306408E0A530A7F8026E50A30E6217521067522017523007524FA
:200AAB000090304C75F0801218D4AE0A7F004306808E0A530ABFE569FFB51001228F057E41
:200ACB00007525078E268E278D828E83C007121998D007E56A70057D92FE80047D227E000E
:200AEB008D82752B0B752C00C007121AF2D0078F1022E56AFFB511028037EF70197521092F
:200B0B00F522752301F52490305375F080C0071218D4D00780197521097522007523017590
:200B2B00240090305C75F080C0071218D4D0078F11E569FFB51001228F057E0075250C75E7
:200B4B0026018E278D828E83C007121998D0078F1022AF82BF0102803ABF0202802CBF038E
:200B6B00028005BF0B368011756701756800758200122953750AFF802375670275680075C2
:200B8B008200122953750AFF80127517007582010213E27517007582020213E2E5096021C4
:200BAB00750900750AFF908000121B2775210A75220375230075240090306575F08012182B
:200BCB00D4E50A700122750A007582001228BFAF82BF0002800BBF01028033BF02028067A9
:200BEB0022758200121476AD82AE83AFF07521107522037523017524008D828E838FF01213
:200C0B0018D4752B0C752C01758240021AF2758201121476AD82AE83AFF075211075220377
:200C2B007523017524008D828E838FF01218D4752B0C752C01758240121AF2752B0D752CE9
:200C4B00017582C0021AF2758202121476AD82AE83AFF07521107522037523017524008D30
:200C6B00828E838FF01218D4752B0C752C01758240121AF2752B0D752C017582C0121AF292
:200C8B00752B0E752C01758220021AF2AF82BF01028044BF02028036BF0302800FBF0B0285
:200CAB00801BBF1F028005BF6F368011756701756800758202122953750AFF8023756702F4
:200CCB00756800758202122953750AFF80127517007582010213E27517007582020213E29E
:200CEB00E5096036750900750AFF908000121B2775210D75220275230075240090306F75F4
:200D0B00F0801218D475210875220775230175240090307C75F0801218D4E50A601C750AE3
:200D2B00007582021228BFAF827E007525017526018E278F828E8302199822AF82BF010231
:200D4B008044BF02028036BF0302800FBF0B02801BBF1F028005BF6F36801175670175687D
:200D6B0000758201122953750AFF8023756702756800758201122953750AFF8012751700E4
:200D8B007582010213E27517007582020213E2E5096036750900750AFF908000121B277584
:200DAB00210D75220275230075240090308475F0801218D47521087522077523017524009B
:200DCB0090307C75F0801218D4E50A601C750A007582011228BFAF827E0075250175260128
:200DEB008E278F828E8302199822AF82BF01028044BF02028036BF0302800FBF0B02801B52
:200E0B00BF1F028005BF6F368011756701756800758203122953750AFF802375670275684F
:200E2B0000758203122953750AFF80127517007582010213E27517007582020213E2E5092A
:200E4B006021750900750AFF908000121B2775210775220475230075240090309175F08007
:200E6B001218D4E50A602E750A007582031228BFAF8274142FF582121476AD82AE83AFF080
:200E8B007521107522067523017524008D828E838FF00218D422AF82BF01028044BF0202A9
:200EAB008036BF0302800FBF0B02801BBF1F028005BF6F3680117567017568007582041296
:200ECB002953750AFF8023756702756800758204122953750AFF801275170075820102137D
:200EEB00E27517007582020213E2E5096021750900750AFF908000121B2775210C7522037E
:200F0B0075230075240090309875F0801218D4E50A604F750A007582041228BFE58270145E
:200F2B00752110752206752301F5249030A475F0800218D475211075220375230175240008
:200F4B009030A875F0801218D47582041228BFAF827E007525057526018E278F828E830284
:200F6B00199822AF827E00AD08BD0602800FBD0702800EBD0802800DBD0910800C7E0580CE
:200F8B000A7E0680067E0780027E08BF0102804ABF0202803CBF0302800FBF0B02801EBF1E
:200FAB001F028005BF6F3C80147567017568008E82C006122953D006750AFF80267567028C
:200FCB007568008E82C006122953D006750AFF80127517007582010213E2751700758202DF
:200FEB000213E2E5096035750900750AFF908000C006121B27AF0874C82FF582121476AC65
:20100B0082AD83AFF07521107522037523007524008C828D838FF01218D4D006E50A6055EE
:20102B00750A008E82C0061228BFE582D0067014752110752206752301F5249030A475F0D8
:20104B00800218D47521107522007523017524009030A875F080C0061218D4D0068E82129F
:20106B0028BFAF827E007525067526018E278F828E8302199822AF827E007D00AC08BC0A41
:20108B0002800ABC0B02800BBC0C12800C7D097E04800A7D0A7E0580047D0B7E06BF010211
:2010AB008048BF0202803ABF03028005BF0B4480187567017568008D82C006C0051229530F
:2010CB00D005D006750AFF802A7567027568008D82C006C005122953D005D006750AFF80A6
:2010EB00127517007582010213E27517007582020213E2E509606C750900750AFF90800016
:20110B00C006C005121B277521107522017523007524009030A975F0801218D4D005D0067F
:20112B00BE0402800ABE05028017BE06368024752B08752C0075822CC005121AF2D00580B8
:20114B0022752B08752C007582ACC005121AF2D0058010752B08752C0075826CC005121A91
:20116B00F2D005E50A602D750A008D821228BFAF82743C2FF582121476AD82AE83AFF07503
:20118B0021107522027523017524008D828E838FF00218D422AF82BF010302123FBF02038E
:2011AB00021236BF0303021228BF0B0302122FBF1E02800302124875F003E51684AFF07411
:2011CB000DB508067D017E0080047D007E008D748F82122869752110752200752301752495
:2011EB00009030A875F0801218D4740DB508177521107522067523017524009030B975F0F1
:20120B00801218D480377521107522067523017524009030C075F0801218D4802005167586
:20122B000AFF80191516750AFF80127517007582010213E27517007582020213E2E5096081
:20124B003D750900750AFF908000121B27740DB5081775210E752202752300752400903063
:20126B00C875F0801218D4801575210E7522027523007524009030D675F0801218D4E50A4D
:20128B00602E750A0075F003E51684AFF074502FF582121476AD82AE83AFF075211075226E
:2012AB00047523017524008D828E838FF00218D422AF82BF01028038BF0202802ABF030262
:2012CB00800FBF0B028015BF1F028005BF6F2A800B7582011229CC750AFF801D75820212A6
:2012EB0029CC750AFF80127517007582010213E27517007582020213E2E5096021750900FA
:20130B00750AFF908000121B2775210C7522027523007524009030E475F0801218D4E50AFE
:20132B006012750A00122A1F75250475260175270002199822AF82BF0102803ABF020280BB
:20134B002CBF03028005BF0B36801175670175680075820E122953750AFF802375670275BB
:20136B00680075820E122953750AFF80127517007582010213E27517007582020213E2E57B
:20138B00096021750900750AFF908000121B277521117522007523007524009030F075F0D4
:2013AB00801218D4E50A602E750A0075820E1228BFAF8274642FF582121476AD82AE83AF50
:2013CB00F07521107522017523017524008D828E838FF00218D422AF827509FFBF01028003
:2013EB003DBF026A8508177582101228BFE5827017E517700675171402146E0517E5172416
:20140B00EA5060751700805BE517700575170180520517E51724F1504A751700804585084B
:20142B00177582101228BFE5827016E5177005751715802F151774EC2517402775170080A1
:20144B0022E517700575170E801915178015E51724F1500C74EC25175009E51724EA40034B
:20146B007517008517082285088222AF828F06BE0003021567BE010302156EBF02030215B7
:20148B0075BF140302157CBF1503021583BF160302158ABF1703021591BF180302159FBFA9
:2014AB0019030215A6BF1A03021598BF280302164EBF2903021655BF2A0302165CBF2B03C8
:2014CB00021663BF2C0302166ABF2D03021671BF3C030215C9BF3D030215D0BF3E030215C3
:2014EB00D7BF3F030215DEBF40030215E5BF41030215ECBF42030215F3BF43030215FABF2D
:20150B004403021601BF4503021608BF460302160FBF4703021616BF480302161DBF500382
:20152B00021624BF510302162BBF5203021632BF6403021639BF6503021640BF660302167A
:20154B0047BFCE030215ADBFCF030215B4BFD0030215BBBFD1030215C202167890310175F2
:20156B00F0802290310775F0802290310C75F080229030A475F0802290311375F080229055
:20158B00311B75F0802290312075F0802290312675F0802290312C75F0802290313175F0CC
:2015AB00802290313775F0802290314175F0802290314D75F0802290315875F08022903180
:2015CB006575F0802290316F75F0802290317C75F0802290318075F0802290318775F080A4
:2015EB002290318D75F0802290319275F0802290319775F0802290319F75F080229031ABDD
:20160B0075F080229031B975F080229031C575F080229031CE75F080229031D775F0802275
:20162B009031DE75F080229031E575F080229031EC75F080229031F375F0802290320175A5
:20164B00F0802290320775F0802290321675F0802290322575F0802290323675F0802290C1
:14166B00324775F0802290325875F0802290000075F00022B3
:202F9C0054616E6B204C6967687473204F66660054616E6B204C6967687473204F6E004685
:202FBC00756E2B4D616E20746F20556E646F00486561746572204F66660048656174657225
:202FDC00204F6E0042757273742B557020746F20556E646F0041746D6F73464541522032CB
:202FFC0032314200427920426C697A7A6172642050726F005043204C6F6164204C657474B6
:20301C00657200427572737420746F20526566696C6C004D616E75616C204D6F64650041E8
:20303C00646472004D6F646500444D58204F6B004E6F20444D5800496E74657276616C00E7
:20305C004475726174696F6E00466F67204C6576656C00466F6720496E74657276616C0059
:20307C005365636F6E647300466F67204475726174696F6E004D6163726F73004D616372FB
:20309C006F205370656564004F6666000052656D6F7465205820416374696F6E00536176ED
:2030BC00656421004C6F616465642100536176652053657474696E6773004C6F61642053AD
:2030DC00657474696E677300444D58204164647265737300444D58204368616E6E656C2025
:2030FC004D6F64650057696D7079004D696C6400426C617A696E005261696E626F7700461B
:20311C006972650057617465720053746F726D004163696400457468657200526564204C4B
:20313C006576656C00477265656E204C6576656C00426C7565204C6576656C005374726F76
:20315C006265204C6576656C004E6F20416374696F6E0043686F6F7365204D6163726F00C6
:20317C005265640059656C6C6F7700477265656E004379616E00426C7565004D6167656EB0
:20319C007461005374726F626520536C6F77005374726F6265204D656469756D00537472E1
:2031BC006F6265204661737400426C61636B6F75740057686974656F757400536C6F7420BF
:2031DC003100536C6F74203200536C6F74203300313120416C6C003320466F67202B204DF7
:2031FC006163726F003120466F670030783438364636433644363537330026203537363130
:20321C003734373336463645003632364637343638344637373645343100353336453646E2
:20323C003737363236313643364300344436463732363936313732373437390036343646E6
:0D325C0036353733344536463734203B00D5
:0600C0007518007519001F
:20167F00758201120454AE82AF837D00C3EE94A2EF9403403174F825195025741725194004
:20169F001F7401B5180280167403B518028007740BB5180C80047D0380067D0B80027D01FB
:2016BF00751800751900C3747A9E74039F402574669E74039F501D7402B5181274F825192C
:2016DF00400F051974F8251950077D028003751900751802C374489E74039F4029742F9E81
:2016FF0074039F50217403B5181674172519400C051974172519500B7D1E80077D1F800352
:20171F00751900751803C374AA9EE49F4028748C9EE49F5021740BB5181674172519400C19
:20173F00051974172519500B7D6E80077D6F800375190075180BC374769E74029F40257408
:20175F00589E74029F501D7407B5181274172519400F05197417251950077D0780037519AD
:20177F0000751807C374989E74039F402574849E74039F501D7401B5181274172519400F49
:20179F0005197417251950077DC88003751900751801C374129E74029F402574FE9E740122
:2017BF009F501D7408B5181274F82519400F051974F8251950077D08800375190075180860
:2017DF00C374C69E74029F402974A89E74029F50217405B5181674F82519400C051974F8B5
:2017FF002519500B7D0580077D058003751900751805C374EA9E74019F402574CC9E740178
:20181F009F501D7409B5181274172519400F05197417251950077D098003751900751809BE
:20183F00C374B89E74019F402974A49E74019F5021740AB5181674172519400C0519741725
:20185F002519500B7D0A80077D0A800375190075180AC3742A9E74039F402574169E74037A
:20187F009F501D7404B5181274F82519400F051974F8251950077D048003751900751804AB
:20189F00C3748A9E74029F402974769E74029F50217406B5181674F82519400C051974F861
:1518BF002519500B7D0680077D0680037519007518068D822219
:2018D400AD82AE83AFF07C00E5236008AB2274402BFB8002AB228B82C007C006C005C004F0
:2018F400121D76AA827B008B8274014AF583121B27D004D005D006D0070521E52460169065
:201914000080C007C006C005C004121B27D004D005D006D0077B00C3EB9521400122EC70D5
:2019340045EB2DF8E43EF98F02888289838AF0122F46FA602D8A82C007C006C005C004C012
:2019540003121B6DAA828A0189027900748049F5828A83121B27D003D004D005D006D007DD
:20197400801E7C01801A900480C007C006C005C004C003121B27D003D004D005D006D00734
:201994000B02192BAE82AF837D00752804752904752A0CC3EE94E8EF940340047EE77F0337
:2019B400E5266008AC2574402CFC8002AC258C82C007C006C005121D76AB827C008C827470
:2019D400014BF583121B27D005D006D007E5276014900080C007C006C005121B27D005D07E
:2019F40006D0078012900480C007C006C005121B27D005D006D0077574647575008E828F52
:201A140083C007C006C005122E30AB82AC83D005D006D007EB4C60398B0274302AF582C02D
:201A340007C006C004C003121B6DE582D003D004F5287D018B748C75900064C005122EDC26
:201A5400AB82AC83D005D006D007EEC39BFEEF9CFF75740A7575008E828F83C007C006C074
:201A740005122E30AB82AC83D005D006D007ED7004EB4C60338B0574302DF582C007C0066F
:201A9400C004C003121B6DE582D003D004F5298B748C7590000A122EDCAC82AD83D006D02B
:201AB40007EEC39CFEEF9DFF74302EF582121B6DE582F52AAF287E0074804EF5828F83129A
:201AD4001B27AF297E0074804EF5828F83121B27AF2A7E0074804EF5828F83021B27AF82A4
:201AF400E52C6008AE2B74402EFE8002AE2B8E82C007121D76AD827E008E8274014DF583D2
:201B1400121B27D0078F067F0074804FF5828E83021B27AE82AF834306208E828F83C007AF
:201B3400C006121D42D006D0075306DF8E828F83C007C006121D42D006D007E4BE0004BF43
:201B5400800104FF7D007E038D038E041DBDFF011EEB4C6003EF70F022AF82BF2600500361
:201B7400021D3EEF24855003021D3EEF24DAFF240A83F582EF245983F583E473363E3E3EEA
:201B94003E323E3E3E3E0A0E12161A1E22262A2E3E3A3E3E3E3E3E3A424A525A626A727AD9
:201BB400828A929AA2AAB2BAC2CAD2DAE2EAF2FA023E3E3E3E3E3E3E464E565E666E767E6D
:201BD400868E969EA6AEB6BEC6CED6DEE6EEF6FE061D1D1D1D1D1D1D1D1D1D1D1D1D1D1D18
:201BF4001D1D1D1D1D1D1D1D1D1D1D1D1C1C1C1C1C1C1C1C1C1C1C1C1C1C1C1C1C1C1C1C45
:201C14001C1C1C1C1C1D1D1D1D1D1D1D1C1C1C1C1C1C1C1C1C1C1C1C1C1C1C1C1C1C1C1C29
:201C34001C1C1C1C1C1D758282227582862275824222758246227582C2227582C622758242
:201C54002222758226227582A2227582A62275826222758266227582E2227582E622758288
:201C7400122275821622758292227582962275825222758256227582D2227582D6227582E8
:201C94003222758236227582B2227582B62275827222758276227582F2227582F6227582C8
:201CB4000A2275820E2275828A2275828E2275824A2275824E227582CA227582CE227582E8
:201CD4002A2275822E227582AA227582AE2275826A2275826E227582EA227582EE227582C8
:201CF4001A2275821E2275829A2275829E2275825A2275825E2275820C2275828C22758248
:201D14004C227582CC2275822C227582AC2275826C227582EC2275821C2275829C227582E7
:201D3400D422758264227582602275820422AE82AF837D048DF005F07B017C008006EB2B9D
:201D5400FBEC33FCD5F0F7EE5203EF5204EB4C24FF9295D293C2930DBD100040D7D292C2C3
:201D74009222AF827E007D008DF005F07B80E4FC3392D28008A2D2EC13FCEB13FBD5F0F5E1
:201D94008F017A00E95203EA5204EB4C60067B017C0080047B007C008D048CF005F0EB802A
:131DB4000225E0D5F0FB8E044CFE0DBD080040B88E82227D
:0800C600753600E4F537F5384A
:201DC700C020C0E0C0F0C082C083C007C006C005C004C003C002C001C000C0D075D0001244
:201DE7002A1FAE82AF83759BFC759AD07536FF74012537F537E43538F538C3E5379EE53887
:201E07009F401A74092EFCE43FFDC3E5379CE5389D500AE537FDC39E242DF8A699C298D040
:201E2700D0D000D001D002D003D004D005D006D007D083D082D0F0D0E0D02032C0E0E5373C
:201E47004538701AF536F52DF52EF52F753000753100753200753300753400753500E4F51A
:091E670037F5385391EFD0E03259
:2000CE00753900753E00753F00754000754100754D01E4F54EF54FF550755101F552F553C9
:0200EE00F554C7
:201E7000AC82AD83AEF0FF758210C007C006C005C0041228BFE582D004D005D006D0076024
:201E900003021FD575820EC007C006C005C0041228BFAB82D004D005D006D007BB00028065
:201EB00009BB0103021F7402249BAB35BB14004057BB9400500C8B02EA24EC25E0F58202FE
:201ED000242FE536FA24F5502B8B82C007C006C005C004C0021220A6858242D002D004D07A
:201EF00005D006D007EA24FBF5438C828D838EF0EF0220EB8B821220A685824275430090D1
:201F10000000E4F5F00220EBE534FB60417A00EB2BFBEA33FA741CC39BFB74029A8B74F597
:201F3000753395E0F576F5778C828D838EF0EF122E5985823A85833B85F03CF53DE53A45AE
:201F50003B453C453D700AE539F4F53980037539FFE539600C853182853255853356022447
:201F7000E402249BAB2EBB14004057BB9400500C8B02EA24EC25E0F58202242FE52FFA2438
:201F9000F5502B8B82C007C006C005C004C0021220A6858242D002D004D005D006D007EAA9
:201FB00024FBF5438C828D838EF0EF0220EB8B821220A6858242754300900000E4F5F002E1
:201FD00020EB02249B758203C007C006C005C0041228BFE582D004D005D006D00760317559
:201FF0008203C007C006C005C0041228BFAB82758204C0031228BF858243D003D004D00593
:20201000D006D0078B428C828D838EF0EF0220EB758208C007C006C005C0041228BFAB8263
:20203000D004D005D006D007EB60397A00EB2BFBEA33FA741CC39BFB74029A8B74F575337F
:2020500095E0F576F5778C828D838EF0EF122E59AC82AD83AEF0FFEC4D4E4F700AE539F4A3
:20207000F53980037539FFE53960287582051228BFAF82758206C0071228BFAE827582073B
:20209000C0061228BF858256D006D0078E558F820224E402249BAF82BFB400500475822198
:2020B00022BFBE00500475820122BFC800500475820222BFD200500475820322BFDC005021
:2020D0000475820422BFE600500475820522BFF000500475820622758245228582448583E5
:2020F0004585F046F547E4F548F549F54AF54BF54CE543C313FE7D007485C39EFEE49DFD26
:202110008E74EDF5753395E0F576F5778544828545838546F0E547122E59AC82AD83AEF0C3
:20213000FFEC4D4E4F7013754CFF1224A785824885834985F04AF54B053E7401B5420280CA
:20215000427402B5420280417403B5420474018001E4FF60030222447404B542030222440D
:202170007405B542030222447406B542030223087421B5420302236A7445B5420302236D70
:2021900002242C853E8202242FE54C70012274C9253F400C753F37AD417E004305018D4124
:2021B000E54130E00E74FFB53F055341FE8020053F801CAD3F7E001DBDFF011EBD370EBE2B
:2021D000000BAD417E004305018D418002153FE53F0303543FFE8E7475750075760075770D
:2021F00000854882854983854AF0E54B122E59AB8275740DE4F575F576F577854882854942
:2022100083854AF0E54BC003122E59AA82AC83ADF0FED003EA4C4D4E700CC3740195ADE46C
:2022300033FD7E0080047D007E008D568B55853F820224E4E54C700122E54130E014AE3F53
:2022500074022EF53FC3944B501F5341FE753FFF8017E53FFE24FEF53F247D400CAD417ED8
:20227000004305018D41753F82757415E4F575F576F577854882854983854AF0E54BC00788
:20229000122E59AB82AC83ADF0FED007EB4C4D4E7015E54130E4055341EF8028AD417E009A
:2022B0004305108D41801DE54130E40D054074DE25405010754022800B1540E54024DB507D
:2022D00003754000EF600C854055853F568540820224E47404B5420C853F55755600854032
:2022F000820224E47405B54202800122854055853F56853F820224E4E54C700122757459A3
:20231000E4F575F576F577854882854983854AF0E54B122E59AC82AD83AEF0FFEC4D4E4F8F
:202330007005753FFF8027E53F24375004153F801DE53F247D5009E53FFF24FEF53F800ED5
:20235000E53FFF24FDF53F24375003753F00853F55853F56853F820224E402248F74E025E2
:202370003E4039853EF005F07C007D007E007F80800DC3EF13FFEE13FEED13FDEC13FCD55B
:20239000F0F0EC54BA700FED54B8700AEE543B7005EF54EE600302248F02249B74C0253ECE
:2023B000403DE53E24E0FF8FF005F07F007E007D007C80800DC3EC13FCED13FDEE13FEEF4A
:2023D00013FFD5F0F0EF5438700FEE54BA700AED54B87005EC5428600302248F02249B7493
:2023F000AD253E4033E53E24C0FF8FF005F07F007E007D007C80800DC3EC13FCED13FDEE24
:2024100013FEEF13FFD5F0F0ED54B87005EC54EB600302248F02249B753E002202249BAF2E
:2024300082BF5500501AEF75F003A4F5828F06EE75F003A4D394FFF4F5557556000224E412
:20245000BFAA00501F8F06EE24ABFEFDED75F003A4D394FFF4F582EE75F003A4F55675556E
:20247000000224E4EF2456FF75F003A4F555EF75F003A4D394FFF4F5567582000224E4756E
:2024900055FF7556FF7582FF0224E47555007556007582000224E4E551254DF551E552351E
:2024B0004EF552E553354FF553E5543550F554E551C3954DF54DE552954EF54EE553954FD6
:2024D000F54FE5549550F5508551828552838553F0E55422AF827EFF758210C007C006121C
:2024F00028BFE582D006D007701475820EC007C0061228BFE582D006D0077002AE30BEFFA1
:20251000098FBD8555AD8556B5227D007C008E748C758F828D83C006C004122EDCAF83D058
:2025300004D0068FBDAD557F008E748C758D828F83C006C004122EDCAF83D004D0068FAD02
:14255000AD567F008E748C758D828F83122EDCAF838FB5221D
:0E00F000751C00E4F51DF51E751A00751B0049
:20256400C020C0E0C0F0C082C083C007C006C005C004C003C002C001C000C0D075D0002091
:20258400B714AF1A051AEF24F0500E1227A785821B751A008003751A00758C84758A5FD0CD
:2025A400D0D000D001D002D003D004D005D006D007D083D082D0F0D0E0D02032758210125B
:2025C40028BFE58270045388EF22AE884306108E88E51BFF24F94051EF2F9025E273804906
:2025E400800A800D8010801680238030756B018038756B008033758202122DD8802BE51C5F
:2026040070277582091228BF122643801CE51C701875820A1228BF122643800DE51C70090A
:2026240075820B1228BF1226437403B51C0D7403B51B028006758200122DD8851B1C22AF61
:20264400827E007D007C008E1FEF700122EF14FA8AF005F079017A008006E929F9EA33FA46
:20266400D5F0F7E9551DF8EA551EFB4860107EFFE9F4F8EAF4FBE8521DEB521E8006E942A9
:202684001DEA421EEF24F3500302273AEF240A83F582EF241183F583E4733AB8C4C9D0D463
:2026A400DADFE6FE162E3227262626262626262626272727756701756800758203022953DF
:2026C4007DFF02273B7DFF7CFF02273B7CFF80677CFF8C1F8061751FFF805C751FFF7DFFD4
:2026E4008055EE60067B007F0080047B017F008B68756700758208022953EE60067B007F9A
:202704000080047B797F008B68756700758208022953EE60067B007F0080047BFF7F008B1C
:20272400687567007582080229537EFF80097DFF7CFF8D1F800122756700756800758203D5
:20274400C006C005C004122953D004D005D006EE60067B007F0080048D037F008B68756769
:2027640000758205C006C004122953D004D006EE60067D007F0080048C057F008D687567E2
:2027840000758206C006122953D006EE60067E007F008004AE1F7F008E687567007582071D
:2027A4000229537F00C007122813AE82D007EE70038E82228FF005F07C017D008006EC2C5E
:2027C400FCED33FDD5F0F7EC54577005ED54056009BE0102800D75820022BE020280047543
:2027E4008200220FBF0C0040BC7F0D8F061F8F05EE6016C007C005122813AE82D005D0076E
:20280400EE7003F58222BE02E2EDC313F582227EB87F0B8E048F051EBEFF011FEC4D60033F
:2028240030B7F0EE4F7003F582227E007F007CB87D0B8C028D031CBCFF011DEA4B600A30D9
:20284400B7070EBE00EC0F80E9EC4D7003F58222C374E99EE49F50067E027F0080047E01A8
:052864007F008E8222BE
:20286900E582C454F0FFE574700375E4A07401B5740474018001E4FE7D00EE6014EF2D2483
:2028890000F582E43401F583ED2457F9E7FCF08012ED2457F9EF2D2400F582E43401F583B8
:2028A900E0FCF70DBD100040D1EE600975E49075E4C000000022AF82BF100774805557F53A
:2028C9008222EF2457F98706EF24F15003022950EF240A83F582EF241383F583E4730518DD
:2028E900182050505050503030305050402929292929292929292929292929298E057F001E
:20290900747F5DF5828F837574038F75022F62EE70027E018E82228E057F007574078F753B
:202929008D828F83022F628E057F0075740D8F758D828F83022F628E057F007574038F7518
:202949008D828F83022F628E8222AF8274805557FE7401B5670280077402B56716800AEF7E
:202969002457F9E7FD04F7802AEF2457F9E7FD14F78020BF1017E568600BAC577D004304FA
:20298900808C57800E747F5557F5578006EF2457F8A668EF7024EE6013EF2457F9EF2457AB
:2029A900F886067D00430680A706800EEF2457F9EF2457F88607747F5FF77574017582008D
:2029C900022869AF82C007122A1FAD82AE83D007BF011274FE2E50067D017E00801A0DBDA9
:2029E90000160E8013C374019DE49E40067D007E0280051DBDFF011E8D6875670075820D2B
:202A0900C006C005122953D005D0068E6875670075820C022953AF637E00AC647D00EC4E3F
:072A2900F582ED4FF5832259
:203FC0008206090000000000000B0C0A000100008206090000000000000B0C0A000100007B
:203FE0008206090000000000000B0C0A000100008206090000000000000B0C0A000100005B
:1200FE00756E00756F00757300756B00756C04756D0199
:202A3000758200120454AE82AF83C3EE94A0EF94005005536C7D8029C374B99EE49F5010B0
:202A5000AC6C4304028C6C7D004304808C6C8011C374AF9EE49F5009AE6C7F004306808EF0
:202A70006C121472AF82BF4502801AE56C30E406D2B4D2B3800FE56C035401FF24FF92B45B
:202A9000EF24FF92B320A6187401B56D0EAF6E056EEF24DD501F756D00801A756E00801569
:202AB000E56D700EAF6E056EEF24DD5008756D018003756E0075820F1228BFE5827028E532
:202AD0006D7013E56FF4F56F6006C290D2A0801BD290D2A08015E56C30E706C290D2A0806A
:202AF0000AD290C2A08004D290D2A07582101228BFE5826003022CE1E5367003022CDC75BA
:202B10006B0175820E1228BFE5827073AF2DBF14005005756B008014BF640050047F0480FF
:202B30000BBFC80050047F0280027F01EFB5720280028F72E52EFFB5700280088F708570CC
:202B500069756AFFE52FFFB5710280058F71756B02AF37BF8000400EE56C20E409758201B3
:202B7000122E1F022D27BF80004003022D27E56C20E403022D27758200122E1F022D2775E9
:202B90007201AF2DBF14005006756B00022D27BF280050197403B57008740DB57103022DAA
:202BB0002775700375710D756B02022D27BF3C0050197403B570087415B57103022D277546
:202BD0007003757115756B02022D27BF500050197403B570087422B57103022D2775700326
:202BF000757122756B02022D27BF640050197403B570087437B57103022D2775700375715D
:202C100037756B02022D27BF780050197408B570087415B57103022D277570087571157587
:202C30006B02022D27BF8C0050197408B570087422B57103022D27757008757122756B0278
:202C5000022D27BFA00050197408B570087437B57103022D27757008757137756B02022D58
:202C700027BFB40050197408B570087459B57103022D27757008757159756B02022D27BF29
:202C9000C80050197408B570087490B57103022D27757008757190756B02022D27BFDC0091
:202CB00050177415B570077437B571028069757015757137756B02805EE5707004E57160D6
:202CD00056757000757100756B02804B756B0280467582001228BFAF828FF005F0740180E4
:202CF0000225E0D5F0FBFFB5720280058F72756B027582011228BFE582FFB5700280058FDB
:202D100070756B027582021228BFE582FFB5710280058F71756B027402B56B09756B008566
:202D30007169756A00E56B7003022DD205737582101228BFE582701EE5706004E571701604
:202D50008572F0E57384E5F07006758201022DD8758200022DD8AE737F007574088F758E35
:202D7000828F83122F62E5828583F045F070021569E569702EE56A70057E01FF80047E0058
:202D90007F008E82122DD8E56A7004AF708002AF718F69E56A70057EFFFF80047E007F0040
:202DB0008E6A22E56A7005F582022DD88572F0E57384E5F07006758201022DD875820002A1
:202DD0002DD8758200022DD8AF82BF0102800ABF0202801FBF03358030E56D6013AE6C5328
:202DF00006807F00BE8009BF0006C2A5536CFD22D2A522AE6C5306807F00BE8009BF000656
:202E1000C2A5536CFD22D2A522C2A522D2A522AF82BF0108AE6C4306108E6C22536CEF224A
:202E30007A10E4FBFCE58225E0F582E58333F583EB33FBEC33FCEB9574F5F0EC95754006DE
:092E5000FCABF0438201DADD2243
:202E5900F9E57445754576457760777800C308E57720E73BE57425E0F574E57533F575E57B
:202E79007633F576E57733F577E5829574E5839575E5F09576E9957750D4C3E57713F577B1
:202E9900E57613F576E57513F575E57413F574E5829574FCE5839575FDE5F09576FEE9955D
:202EB900774007F98EF08D838C82C3E57713F577E57613F576E57513F575E57413F574D8AB
:032ED900CEE9221D
:06007800E478FFF6D8FD5C
:200056007900E94400601B7A00903269780175A000E493F2A308B8000205A0D9F4DAF275B5
:02007600A0FFE9
:1D2EDC00E5828574F0A4C582C0F08575F0A4D0F025F0C5838574F0A42583F5832274
:202EF900E574457560467A01E57425E0F574E575334012F575E5829574E583957540030A46
:202F190080E6C3E57513F575E57413F574C3E5829574F5F0E58395754005F58385F082C3C2
:0D2F3900E57513F575E57413F574DAE12202
:20007E007800E84400600A790175A000E4F309D8FC7800E84400600C7900900001E4F0A380
:04009E00D8FCD9FAB7
:0D004900758178122F98E582600302004651
:1C2F460020F71430F6148883A88220F507E6A88375830022E280F7E49322E0229A
:202F6200C2D5E58330E70DD2D5E4C39582F582E49583F583E57530E70BE4C39574F574E463
:162F82009575F575122EF930D50BE4C39582F582E49583F58322B1
:042F9800758200221C
:00000001FF
